{
	"contracts/Tipping.sol": {
		"Tipping": {
			"abi": [
				{
					"inputs": [
						{
							"internalType": "address",
							"name": "target",
							"type": "address"
						}
					],
					"name": "AddressEmptyCode",
					"type": "error"
				},
				{
					"inputs": [
						{
							"internalType": "address",
							"name": "account",
							"type": "address"
						}
					],
					"name": "AddressInsufficientBalance",
					"type": "error"
				},
				{
					"inputs": [],
					"name": "EnforcedPause",
					"type": "error"
				},
				{
					"inputs": [],
					"name": "ExpectedPause",
					"type": "error"
				},
				{
					"inputs": [],
					"name": "FailedInnerCall",
					"type": "error"
				},
				{
					"inputs": [],
					"name": "FeesBpsTooHigh",
					"type": "error"
				},
				{
					"inputs": [
						{
							"internalType": "string",
							"name": "message",
							"type": "string"
						}
					],
					"name": "InsufficientAllowance",
					"type": "error"
				},
				{
					"inputs": [],
					"name": "InvalidInitialization",
					"type": "error"
				},
				{
					"inputs": [],
					"name": "NotInitializing",
					"type": "error"
				},
				{
					"inputs": [
						{
							"internalType": "address",
							"name": "owner",
							"type": "address"
						}
					],
					"name": "OwnableInvalidOwner",
					"type": "error"
				},
				{
					"inputs": [
						{
							"internalType": "address",
							"name": "account",
							"type": "address"
						}
					],
					"name": "OwnableUnauthorizedAccount",
					"type": "error"
				},
				{
					"inputs": [],
					"name": "ReentrancyGuardReentrantCall",
					"type": "error"
				},
				{
					"inputs": [
						{
							"internalType": "address",
							"name": "token",
							"type": "address"
						}
					],
					"name": "SafeERC20FailedOperation",
					"type": "error"
				},
				{
					"inputs": [
						{
							"internalType": "string",
							"name": "message",
							"type": "string"
						}
					],
					"name": "TipFailed",
					"type": "error"
				},
				{
					"anonymous": false,
					"inputs": [
						{
							"indexed": false,
							"internalType": "uint64",
							"name": "version",
							"type": "uint64"
						}
					],
					"name": "Initialized",
					"type": "event"
				},
				{
					"anonymous": false,
					"inputs": [
						{
							"indexed": true,
							"internalType": "address",
							"name": "previousOwner",
							"type": "address"
						},
						{
							"indexed": true,
							"internalType": "address",
							"name": "newOwner",
							"type": "address"
						}
					],
					"name": "OwnershipTransferred",
					"type": "event"
				},
				{
					"anonymous": false,
					"inputs": [
						{
							"indexed": false,
							"internalType": "address",
							"name": "account",
							"type": "address"
						}
					],
					"name": "Paused",
					"type": "event"
				},
				{
					"anonymous": false,
					"inputs": [
						{
							"indexed": true,
							"internalType": "uint256",
							"name": "fromProfileId",
							"type": "uint256"
						},
						{
							"indexed": true,
							"internalType": "uint256",
							"name": "toProfileId",
							"type": "uint256"
						},
						{
							"indexed": true,
							"internalType": "uint256",
							"name": "publicationId",
							"type": "uint256"
						},
						{
							"indexed": false,
							"internalType": "address",
							"name": "token",
							"type": "address"
						},
						{
							"indexed": false,
							"internalType": "address",
							"name": "from",
							"type": "address"
						},
						{
							"indexed": false,
							"internalType": "address",
							"name": "to",
							"type": "address"
						},
						{
							"indexed": false,
							"internalType": "uint256",
							"name": "amount",
							"type": "uint256"
						}
					],
					"name": "TipSent",
					"type": "event"
				},
				{
					"anonymous": false,
					"inputs": [
						{
							"indexed": false,
							"internalType": "address",
							"name": "account",
							"type": "address"
						}
					],
					"name": "Unpaused",
					"type": "event"
				},
				{
					"inputs": [
						{
							"internalType": "address",
							"name": "tokenAddress",
							"type": "address"
						},
						{
							"internalType": "address",
							"name": "owner",
							"type": "address"
						}
					],
					"name": "checkAllowance",
					"outputs": [
						{
							"internalType": "uint256",
							"name": "",
							"type": "uint256"
						}
					],
					"stateMutability": "view",
					"type": "function"
				},
				{
					"inputs": [],
					"name": "feesBps",
					"outputs": [
						{
							"internalType": "uint256",
							"name": "",
							"type": "uint256"
						}
					],
					"stateMutability": "view",
					"type": "function"
				},
				{
					"inputs": [
						{
							"internalType": "address",
							"name": "owner",
							"type": "address"
						},
						{
							"internalType": "uint256",
							"name": "_feesBps",
							"type": "uint256"
						}
					],
					"name": "initialize",
					"outputs": [],
					"stateMutability": "nonpayable",
					"type": "function"
				},
				{
					"inputs": [],
					"name": "owner",
					"outputs": [
						{
							"internalType": "address",
							"name": "",
							"type": "address"
						}
					],
					"stateMutability": "view",
					"type": "function"
				},
				{
					"inputs": [],
					"name": "pause",
					"outputs": [],
					"stateMutability": "nonpayable",
					"type": "function"
				},
				{
					"inputs": [],
					"name": "paused",
					"outputs": [
						{
							"internalType": "bool",
							"name": "",
							"type": "bool"
						}
					],
					"stateMutability": "view",
					"type": "function"
				},
				{
					"inputs": [],
					"name": "renounceOwnership",
					"outputs": [],
					"stateMutability": "nonpayable",
					"type": "function"
				},
				{
					"inputs": [
						{
							"internalType": "uint256",
							"name": "_feesBps",
							"type": "uint256"
						}
					],
					"name": "setFees",
					"outputs": [],
					"stateMutability": "nonpayable",
					"type": "function"
				},
				{
					"inputs": [
						{
							"internalType": "address",
							"name": "tokenAddress",
							"type": "address"
						},
						{
							"internalType": "address",
							"name": "recipient",
							"type": "address"
						},
						{
							"internalType": "uint256",
							"name": "amount",
							"type": "uint256"
						},
						{
							"internalType": "uint256",
							"name": "fromProfileId",
							"type": "uint256"
						},
						{
							"internalType": "uint256",
							"name": "toProfileId",
							"type": "uint256"
						},
						{
							"internalType": "uint256",
							"name": "publicationId",
							"type": "uint256"
						}
					],
					"name": "tip",
					"outputs": [],
					"stateMutability": "nonpayable",
					"type": "function"
				},
				{
					"inputs": [
						{
							"internalType": "address",
							"name": "newOwner",
							"type": "address"
						}
					],
					"name": "transferOwnership",
					"outputs": [],
					"stateMutability": "nonpayable",
					"type": "function"
				},
				{
					"inputs": [],
					"name": "unpause",
					"outputs": [],
					"stateMutability": "nonpayable",
					"type": "function"
				}
			],
			"devdoc": {
				"errors": {
					"AddressEmptyCode(address)": [
						{
							"details": "There's no code at `target` (it is not a contract)."
						}
					],
					"AddressInsufficientBalance(address)": [
						{
							"details": "The ETH balance of the account is not enough to perform the operation."
						}
					],
					"EnforcedPause()": [
						{
							"details": "The operation failed because the contract is paused."
						}
					],
					"ExpectedPause()": [
						{
							"details": "The operation failed because the contract is not paused."
						}
					],
					"FailedInnerCall()": [
						{
							"details": "A call to an address target failed. The target may have reverted."
						}
					],
					"InvalidInitialization()": [
						{
							"details": "The contract is already initialized."
						}
					],
					"NotInitializing()": [
						{
							"details": "The contract is not initializing."
						}
					],
					"OwnableInvalidOwner(address)": [
						{
							"details": "The owner is not a valid owner account. (eg. `address(0)`)"
						}
					],
					"OwnableUnauthorizedAccount(address)": [
						{
							"details": "The caller account is not authorized to perform an operation."
						}
					],
					"ReentrancyGuardReentrantCall()": [
						{
							"details": "Unauthorized reentrant call."
						}
					],
					"SafeERC20FailedOperation(address)": [
						{
							"details": "An operation with an ERC20 token failed."
						}
					]
				},
				"events": {
					"Initialized(uint64)": {
						"details": "Triggered when the contract has been initialized or reinitialized."
					},
					"Paused(address)": {
						"details": "Emitted when the pause is triggered by `account`."
					},
					"Unpaused(address)": {
						"details": "Emitted when the pause is lifted by `account`."
					}
				},
				"kind": "dev",
				"methods": {
					"owner()": {
						"details": "Returns the address of the current owner."
					},
					"paused()": {
						"details": "Returns true if the contract is paused, and false otherwise."
					},
					"renounceOwnership()": {
						"details": "Leaves the contract without owner. It will not be possible to call `onlyOwner` functions. Can only be called by the current owner. NOTE: Renouncing ownership will leave the contract without an owner, thereby disabling any functionality that is only available to the owner."
					},
					"transferOwnership(address)": {
						"details": "Transfers ownership of the contract to a new account (`newOwner`). Can only be called by the current owner."
					}
				},
				"version": 1
			},
			"evm": {
				"assembly": "    /* \"contracts/Tipping.sol\":545:2482  contract Tipping is... */\n  mstore(0x40, 0x80)\n  callvalue\n  dup1\n  iszero\n  tag_1\n  jumpi\n  0x00\n  dup1\n  revert\ntag_1:\n  pop\n  dataSize(sub_0)\n  dup1\n  dataOffset(sub_0)\n  0x00\n  codecopy\n  0x00\n  return\nstop\n\nsub_0: assembly {\n        /* \"contracts/Tipping.sol\":545:2482  contract Tipping is... */\n      mstore(0x40, 0x80)\n      callvalue\n      dup1\n      iszero\n      tag_1\n      jumpi\n      0x00\n      dup1\n      revert\n    tag_1:\n      pop\n      jumpi(tag_2, lt(calldatasize, 0x04))\n      shr(0xe0, calldataload(0x00))\n      dup1\n      0x8456cb59\n      gt\n      tag_14\n      jumpi\n      dup1\n      0x8456cb59\n      eq\n      tag_8\n      jumpi\n      dup1\n      0x8b099b23\n      eq\n      tag_9\n      jumpi\n      dup1\n      0x8da5cb5b\n      eq\n      tag_10\n      jumpi\n      dup1\n      0xcd6dc687\n      eq\n      tag_11\n      jumpi\n      dup1\n      0xce2c2df1\n      eq\n      tag_12\n      jumpi\n      dup1\n      0xf2fde38b\n      eq\n      tag_13\n      jumpi\n      jump(tag_2)\n    tag_14:\n      dup1\n      0x0de5e0e7\n      eq\n      tag_3\n      jumpi\n      dup1\n      0x3d18678e\n      eq\n      tag_4\n      jumpi\n      dup1\n      0x3f4ba83a\n      eq\n      tag_5\n      jumpi\n      dup1\n      0x5c975abb\n      eq\n      tag_6\n      jumpi\n      dup1\n      0x715018a6\n      eq\n      tag_7\n      jumpi\n    tag_2:\n      0x00\n      dup1\n      revert\n        /* \"contracts/Tipping.sol\":1810:2479  function tip(... */\n    tag_3:\n      tag_15\n      0x04\n      dup1\n      calldatasize\n      sub\n      dup2\n      add\n      swap1\n      tag_16\n      swap2\n      swap1\n      tag_17\n      jump\t// in\n    tag_16:\n      tag_18\n      jump\t// in\n    tag_15:\n      stop\n        /* \"contracts/Tipping.sol\":1436:1591  function setFees(uint256 _feesBps) external onlyOwner {... */\n    tag_4:\n      tag_19\n      0x04\n      dup1\n      calldatasize\n      sub\n      dup2\n      add\n      swap1\n      tag_20\n      swap2\n      swap1\n      tag_21\n      jump\t// in\n    tag_20:\n      tag_22\n      jump\t// in\n    tag_19:\n      stop\n        /* \"contracts/Tipping.sol\":1369:1430  function unpause() external onlyOwner {... */\n    tag_5:\n      tag_23\n      tag_24\n      jump\t// in\n    tag_23:\n      stop\n        /* \"@openzeppelin/contracts-upgradeable/utils/PausableUpgradeable.sol\":2692:2837  function paused() public view virtual returns (bool) {... */\n    tag_6:\n      tag_25\n      tag_26\n      jump\t// in\n    tag_25:\n      mload(0x40)\n      tag_27\n      swap2\n      swap1\n      tag_28\n      jump\t// in\n    tag_27:\n      mload(0x40)\n      dup1\n      swap2\n      sub\n      swap1\n      return\n        /* \"@openzeppelin/contracts-upgradeable/access/OwnableUpgradeable.sol\":3155:3256  function renounceOwnership() public virtual onlyOwner {... */\n    tag_7:\n      tag_29\n      tag_30\n      jump\t// in\n    tag_29:\n      stop\n        /* \"contracts/Tipping.sol\":1306:1363  function pause() external onlyOwner {... */\n    tag_8:\n      tag_31\n      tag_32\n      jump\t// in\n    tag_31:\n      stop\n        /* \"contracts/Tipping.sol\":1597:1804  function checkAllowance(... */\n    tag_9:\n      tag_33\n      0x04\n      dup1\n      calldatasize\n      sub\n      dup2\n      add\n      swap1\n      tag_34\n      swap2\n      swap1\n      tag_35\n      jump\t// in\n    tag_34:\n      tag_36\n      jump\t// in\n    tag_33:\n      mload(0x40)\n      tag_37\n      swap2\n      swap1\n      tag_38\n      jump\t// in\n    tag_37:\n      mload(0x40)\n      dup1\n      swap2\n      sub\n      swap1\n      return\n        /* \"@openzeppelin/contracts-upgradeable/access/OwnableUpgradeable.sol\":2441:2585  function owner() public view virtual returns (address) {... */\n    tag_10:\n      tag_39\n      tag_40\n      jump\t// in\n    tag_39:\n      mload(0x40)\n      tag_41\n      swap2\n      swap1\n      tag_42\n      jump\t// in\n    tag_41:\n      mload(0x40)\n      dup1\n      swap2\n      sub\n      swap1\n      return\n        /* \"contracts/Tipping.sol\":1114:1300  function initialize(address owner, uint256 _feesBps) public initializer {... */\n    tag_11:\n      tag_43\n      0x04\n      dup1\n      calldatasize\n      sub\n      dup2\n      add\n      swap1\n      tag_44\n      swap2\n      swap1\n      tag_45\n      jump\t// in\n    tag_44:\n      tag_46\n      jump\t// in\n    tag_43:\n      stop\n        /* \"contracts/Tipping.sol\":697:719  uint256 public feesBps */\n    tag_12:\n      tag_47\n      tag_48\n      jump\t// in\n    tag_47:\n      mload(0x40)\n      tag_49\n      swap2\n      swap1\n      tag_38\n      jump\t// in\n    tag_49:\n      mload(0x40)\n      dup1\n      swap2\n      sub\n      swap1\n      return\n        /* \"@openzeppelin/contracts-upgradeable/access/OwnableUpgradeable.sol\":3405:3620  function transferOwnership(address newOwner) public virtual onlyOwner {... */\n    tag_13:\n      tag_50\n      0x04\n      dup1\n      calldatasize\n      sub\n      dup2\n      add\n      swap1\n      tag_51\n      swap2\n      swap1\n      tag_52\n      jump\t// in\n    tag_51:\n      tag_53\n      jump\t// in\n    tag_50:\n      stop\n        /* \"contracts/Tipping.sol\":1810:2479  function tip(... */\n    tag_18:\n        /* \"@openzeppelin/contracts-upgradeable/utils/PausableUpgradeable.sol\":2316:2335  _requireNotPaused() */\n      tag_55\n        /* \"@openzeppelin/contracts-upgradeable/utils/PausableUpgradeable.sol\":2316:2333  _requireNotPaused */\n      tag_56\n        /* \"@openzeppelin/contracts-upgradeable/utils/PausableUpgradeable.sol\":2316:2335  _requireNotPaused() */\n      jump\t// in\n    tag_55:\n        /* \"@openzeppelin/contracts-upgradeable/utils/ReentrancyGuardUpgradeable.sol\":3251:3272  _nonReentrantBefore() */\n      tag_58\n        /* \"@openzeppelin/contracts-upgradeable/utils/ReentrancyGuardUpgradeable.sol\":3251:3270  _nonReentrantBefore */\n      tag_59\n        /* \"@openzeppelin/contracts-upgradeable/utils/ReentrancyGuardUpgradeable.sol\":3251:3272  _nonReentrantBefore() */\n      jump\t// in\n    tag_58:\n        /* \"contracts/Tipping.sol\":2025:2037  IERC20 token */\n      0x00\n        /* \"contracts/Tipping.sol\":2047:2059  tokenAddress */\n      dup7\n        /* \"contracts/Tipping.sol\":2025:2060  IERC20 token = IERC20(tokenAddress) */\n      swap1\n      pop\n        /* \"contracts/Tipping.sol\":2106:2117  uint256 fee */\n      0x00\n        /* \"contracts/Tipping.sol\":2141:2146  10000 */\n      0x2710\n        /* \"contracts/Tipping.sol\":2130:2137  feesBps */\n      sload(0x00)\n        /* \"contracts/Tipping.sol\":2121:2127  amount */\n      dup8\n        /* \"contracts/Tipping.sol\":2121:2137  amount * feesBps */\n      tag_61\n      swap2\n      swap1\n      tag_62\n      jump\t// in\n    tag_61:\n        /* \"contracts/Tipping.sol\":2120:2146  (amount * feesBps) / 10000 */\n      tag_63\n      swap2\n      swap1\n      tag_64\n      jump\t// in\n    tag_63:\n        /* \"contracts/Tipping.sol\":2106:2146  uint256 fee = (amount * feesBps) / 10000 */\n      swap1\n      pop\n        /* \"contracts/Tipping.sol\":2153:2170  uint256 netAmount */\n      0x00\n        /* \"contracts/Tipping.sol\":2182:2185  fee */\n      dup2\n        /* \"contracts/Tipping.sol\":2173:2179  amount */\n      dup8\n        /* \"contracts/Tipping.sol\":2173:2185  amount - fee */\n      tag_65\n      swap2\n      swap1\n      tag_66\n      jump\t// in\n    tag_65:\n        /* \"contracts/Tipping.sol\":2153:2185  uint256 netAmount = amount - fee */\n      swap1\n      pop\n        /* \"contracts/Tipping.sol\":2194:2242  token.safeTransferFrom(msg.sender, owner(), fee) */\n      tag_67\n        /* \"contracts/Tipping.sol\":2217:2227  msg.sender */\n      caller\n        /* \"contracts/Tipping.sol\":2229:2236  owner() */\n      tag_68\n        /* \"contracts/Tipping.sol\":2229:2234  owner */\n      tag_40\n        /* \"contracts/Tipping.sol\":2229:2236  owner() */\n      jump\t// in\n    tag_68:\n        /* \"contracts/Tipping.sol\":2238:2241  fee */\n      dup5\n        /* \"contracts/Tipping.sol\":2194:2199  token */\n      dup7\n        /* \"contracts/Tipping.sol\":2194:2216  token.safeTransferFrom */\n      0xffffffffffffffffffffffffffffffffffffffff\n      and\n      tag_69\n      swap1\n        /* \"contracts/Tipping.sol\":2194:2242  token.safeTransferFrom(msg.sender, owner(), fee) */\n      swap4\n      swap3\n      swap2\n      swap1\n      0xffffffff\n      and\n      jump\t// in\n    tag_67:\n        /* \"contracts/Tipping.sol\":2249:2305  token.safeTransferFrom(msg.sender, recipient, netAmount) */\n      tag_70\n        /* \"contracts/Tipping.sol\":2272:2282  msg.sender */\n      caller\n        /* \"contracts/Tipping.sol\":2284:2293  recipient */\n      dup10\n        /* \"contracts/Tipping.sol\":2295:2304  netAmount */\n      dup4\n        /* \"contracts/Tipping.sol\":2249:2254  token */\n      dup7\n        /* \"contracts/Tipping.sol\":2249:2271  token.safeTransferFrom */\n      0xffffffffffffffffffffffffffffffffffffffff\n      and\n      tag_69\n      swap1\n        /* \"contracts/Tipping.sol\":2249:2305  token.safeTransferFrom(msg.sender, recipient, netAmount) */\n      swap4\n      swap3\n      swap2\n      swap1\n      0xffffffff\n      and\n      jump\t// in\n    tag_70:\n        /* \"contracts/Tipping.sol\":2377:2390  publicationId */\n      dup4\n        /* \"contracts/Tipping.sol\":2357:2368  toProfileId */\n      dup6\n        /* \"contracts/Tipping.sol\":2335:2348  fromProfileId */\n      dup8\n        /* \"contracts/Tipping.sol\":2319:2473  TipSent(... */\n      0xccf4cbdbebf44b8f817936435dfaa557d772265c6eef9c54c198d3c873624f34\n        /* \"contracts/Tipping.sol\":2399:2411  tokenAddress */\n      dup13\n        /* \"contracts/Tipping.sol\":2420:2430  msg.sender */\n      caller\n        /* \"contracts/Tipping.sol\":2439:2448  recipient */\n      dup14\n        /* \"contracts/Tipping.sol\":2457:2466  netAmount */\n      dup8\n        /* \"contracts/Tipping.sol\":2319:2473  TipSent(... */\n      mload(0x40)\n      tag_71\n      swap5\n      swap4\n      swap3\n      swap2\n      swap1\n      tag_72\n      jump\t// in\n    tag_71:\n      mload(0x40)\n      dup1\n      swap2\n      sub\n      swap1\n      log4\n        /* \"contracts/Tipping.sol\":2018:2479  {... */\n      pop\n      pop\n      pop\n        /* \"@openzeppelin/contracts-upgradeable/utils/ReentrancyGuardUpgradeable.sol\":3293:3313  _nonReentrantAfter() */\n      tag_73\n        /* \"@openzeppelin/contracts-upgradeable/utils/ReentrancyGuardUpgradeable.sol\":3293:3311  _nonReentrantAfter */\n      tag_74\n        /* \"@openzeppelin/contracts-upgradeable/utils/ReentrancyGuardUpgradeable.sol\":3293:3313  _nonReentrantAfter() */\n      jump\t// in\n    tag_73:\n        /* \"contracts/Tipping.sol\":1810:2479  function tip(... */\n      pop\n      pop\n      pop\n      pop\n      pop\n      pop\n      jump\t// out\n        /* \"contracts/Tipping.sol\":1436:1591  function setFees(uint256 _feesBps) external onlyOwner {... */\n    tag_22:\n        /* \"@openzeppelin/contracts-upgradeable/access/OwnableUpgradeable.sol\":2334:2347  _checkOwner() */\n      tag_76\n        /* \"@openzeppelin/contracts-upgradeable/access/OwnableUpgradeable.sol\":2334:2345  _checkOwner */\n      tag_77\n        /* \"@openzeppelin/contracts-upgradeable/access/OwnableUpgradeable.sol\":2334:2347  _checkOwner() */\n      jump\t// in\n    tag_76:\n        /* \"contracts/Tipping.sol\":1512:1517  10000 */\n      0x2710\n        /* \"contracts/Tipping.sol\":1501:1509  _feesBps */\n      dup2\n        /* \"contracts/Tipping.sol\":1501:1517  _feesBps > 10000 */\n      gt\n        /* \"contracts/Tipping.sol\":1497:1559  if (_feesBps > 10000) {... */\n      iszero\n      tag_79\n      jumpi\n        /* \"contracts/Tipping.sol\":1535:1551  FeesBpsTooHigh() */\n      mload(0x40)\n      0xdf44072600000000000000000000000000000000000000000000000000000000\n      dup2\n      mstore\n      0x04\n      add\n      mload(0x40)\n      dup1\n      swap2\n      sub\n      swap1\n      revert\n        /* \"contracts/Tipping.sol\":1497:1559  if (_feesBps > 10000) {... */\n    tag_79:\n        /* \"contracts/Tipping.sol\":1577:1585  _feesBps */\n      dup1\n        /* \"contracts/Tipping.sol\":1567:1574  feesBps */\n      0x00\n        /* \"contracts/Tipping.sol\":1567:1585  feesBps = _feesBps */\n      dup2\n      swap1\n      sstore\n      pop\n        /* \"contracts/Tipping.sol\":1436:1591  function setFees(uint256 _feesBps) external onlyOwner {... */\n      pop\n      jump\t// out\n        /* \"contracts/Tipping.sol\":1369:1430  function unpause() external onlyOwner {... */\n    tag_24:\n        /* \"@openzeppelin/contracts-upgradeable/access/OwnableUpgradeable.sol\":2334:2347  _checkOwner() */\n      tag_81\n        /* \"@openzeppelin/contracts-upgradeable/access/OwnableUpgradeable.sol\":2334:2345  _checkOwner */\n      tag_77\n        /* \"@openzeppelin/contracts-upgradeable/access/OwnableUpgradeable.sol\":2334:2347  _checkOwner() */\n      jump\t// in\n    tag_81:\n        /* \"contracts/Tipping.sol\":1414:1424  _unpause() */\n      tag_83\n        /* \"contracts/Tipping.sol\":1414:1422  _unpause */\n      tag_84\n        /* \"contracts/Tipping.sol\":1414:1424  _unpause() */\n      jump\t// in\n    tag_83:\n        /* \"contracts/Tipping.sol\":1369:1430  function unpause() external onlyOwner {... */\n      jump\t// out\n        /* \"@openzeppelin/contracts-upgradeable/utils/PausableUpgradeable.sol\":2692:2837  function paused() public view virtual returns (bool) {... */\n    tag_26:\n        /* \"@openzeppelin/contracts-upgradeable/utils/PausableUpgradeable.sol\":2739:2743  bool */\n      0x00\n        /* \"@openzeppelin/contracts-upgradeable/utils/PausableUpgradeable.sol\":2755:2780  PausableStorage storage $ */\n      dup1\n        /* \"@openzeppelin/contracts-upgradeable/utils/PausableUpgradeable.sol\":2783:2804  _getPausableStorage() */\n      tag_86\n        /* \"@openzeppelin/contracts-upgradeable/utils/PausableUpgradeable.sol\":2783:2802  _getPausableStorage */\n      tag_87\n        /* \"@openzeppelin/contracts-upgradeable/utils/PausableUpgradeable.sol\":2783:2804  _getPausableStorage() */\n      jump\t// in\n    tag_86:\n        /* \"@openzeppelin/contracts-upgradeable/utils/PausableUpgradeable.sol\":2755:2804  PausableStorage storage $ = _getPausableStorage() */\n      swap1\n      pop\n        /* \"@openzeppelin/contracts-upgradeable/utils/PausableUpgradeable.sol\":2821:2822  $ */\n      dup1\n        /* \"@openzeppelin/contracts-upgradeable/utils/PausableUpgradeable.sol\":2821:2830  $._paused */\n      0x00\n      add\n      0x00\n      swap1\n      sload\n      swap1\n      0x0100\n      exp\n      swap1\n      div\n      0xff\n      and\n        /* \"@openzeppelin/contracts-upgradeable/utils/PausableUpgradeable.sol\":2814:2830  return $._paused */\n      swap2\n      pop\n      pop\n        /* \"@openzeppelin/contracts-upgradeable/utils/PausableUpgradeable.sol\":2692:2837  function paused() public view virtual returns (bool) {... */\n      swap1\n      jump\t// out\n        /* \"@openzeppelin/contracts-upgradeable/access/OwnableUpgradeable.sol\":3155:3256  function renounceOwnership() public virtual onlyOwner {... */\n    tag_30:\n        /* \"@openzeppelin/contracts-upgradeable/access/OwnableUpgradeable.sol\":2334:2347  _checkOwner() */\n      tag_89\n        /* \"@openzeppelin/contracts-upgradeable/access/OwnableUpgradeable.sol\":2334:2345  _checkOwner */\n      tag_77\n        /* \"@openzeppelin/contracts-upgradeable/access/OwnableUpgradeable.sol\":2334:2347  _checkOwner() */\n      jump\t// in\n    tag_89:\n        /* \"@openzeppelin/contracts-upgradeable/access/OwnableUpgradeable.sol\":3219:3249  _transferOwnership(address(0)) */\n      tag_91\n        /* \"@openzeppelin/contracts-upgradeable/access/OwnableUpgradeable.sol\":3246:3247  0 */\n      0x00\n        /* \"@openzeppelin/contracts-upgradeable/access/OwnableUpgradeable.sol\":3219:3237  _transferOwnership */\n      tag_92\n        /* \"@openzeppelin/contracts-upgradeable/access/OwnableUpgradeable.sol\":3219:3249  _transferOwnership(address(0)) */\n      jump\t// in\n    tag_91:\n        /* \"@openzeppelin/contracts-upgradeable/access/OwnableUpgradeable.sol\":3155:3256  function renounceOwnership() public virtual onlyOwner {... */\n      jump\t// out\n        /* \"contracts/Tipping.sol\":1306:1363  function pause() external onlyOwner {... */\n    tag_32:\n        /* \"@openzeppelin/contracts-upgradeable/access/OwnableUpgradeable.sol\":2334:2347  _checkOwner() */\n      tag_94\n        /* \"@openzeppelin/contracts-upgradeable/access/OwnableUpgradeable.sol\":2334:2345  _checkOwner */\n      tag_77\n        /* \"@openzeppelin/contracts-upgradeable/access/OwnableUpgradeable.sol\":2334:2347  _checkOwner() */\n      jump\t// in\n    tag_94:\n        /* \"contracts/Tipping.sol\":1349:1357  _pause() */\n      tag_96\n        /* \"contracts/Tipping.sol\":1349:1355  _pause */\n      tag_97\n        /* \"contracts/Tipping.sol\":1349:1357  _pause() */\n      jump\t// in\n    tag_96:\n        /* \"contracts/Tipping.sol\":1306:1363  function pause() external onlyOwner {... */\n      jump\t// out\n        /* \"contracts/Tipping.sol\":1597:1804  function checkAllowance(... */\n    tag_36:\n        /* \"contracts/Tipping.sol\":1696:1703  uint256 */\n      0x00\n        /* \"contracts/Tipping.sol\":1712:1724  IERC20 token */\n      dup1\n        /* \"contracts/Tipping.sol\":1734:1746  tokenAddress */\n      dup4\n        /* \"contracts/Tipping.sol\":1712:1747  IERC20 token = IERC20(tokenAddress) */\n      swap1\n      pop\n        /* \"contracts/Tipping.sol\":1761:1766  token */\n      dup1\n        /* \"contracts/Tipping.sol\":1761:1776  token.allowance */\n      0xffffffffffffffffffffffffffffffffffffffff\n      and\n      0xdd62ed3e\n        /* \"contracts/Tipping.sol\":1777:1782  owner */\n      dup5\n        /* \"contracts/Tipping.sol\":1792:1796  this */\n      address\n        /* \"contracts/Tipping.sol\":1761:1798  token.allowance(owner, address(this)) */\n      mload(0x40)\n      dup4\n      0xffffffff\n      and\n      0xe0\n      shl\n      dup2\n      mstore\n      0x04\n      add\n      tag_99\n      swap3\n      swap2\n      swap1\n      tag_100\n      jump\t// in\n    tag_99:\n      0x20\n      mload(0x40)\n      dup1\n      dup4\n      sub\n      dup2\n      dup7\n      gas\n      staticcall\n      iszero\n      dup1\n      iszero\n      tag_102\n      jumpi\n      returndatasize\n      0x00\n      dup1\n      returndatacopy\n      revert(0x00, returndatasize)\n    tag_102:\n      pop\n      pop\n      pop\n      pop\n      mload(0x40)\n      returndatasize\n      not(0x1f)\n      0x1f\n      dup3\n      add\n      and\n      dup3\n      add\n      dup1\n      0x40\n      mstore\n      pop\n      dup2\n      add\n      swap1\n      tag_103\n      swap2\n      swap1\n      tag_104\n      jump\t// in\n    tag_103:\n        /* \"contracts/Tipping.sol\":1754:1798  return token.allowance(owner, address(this)) */\n      swap2\n      pop\n      pop\n        /* \"contracts/Tipping.sol\":1597:1804  function checkAllowance(... */\n      swap3\n      swap2\n      pop\n      pop\n      jump\t// out\n        /* \"@openzeppelin/contracts-upgradeable/access/OwnableUpgradeable.sol\":2441:2585  function owner() public view virtual returns (address) {... */\n    tag_40:\n        /* \"@openzeppelin/contracts-upgradeable/access/OwnableUpgradeable.sol\":2487:2494  address */\n      0x00\n        /* \"@openzeppelin/contracts-upgradeable/access/OwnableUpgradeable.sol\":2506:2530  OwnableStorage storage $ */\n      dup1\n        /* \"@openzeppelin/contracts-upgradeable/access/OwnableUpgradeable.sol\":2533:2553  _getOwnableStorage() */\n      tag_106\n        /* \"@openzeppelin/contracts-upgradeable/access/OwnableUpgradeable.sol\":2533:2551  _getOwnableStorage */\n      tag_107\n        /* \"@openzeppelin/contracts-upgradeable/access/OwnableUpgradeable.sol\":2533:2553  _getOwnableStorage() */\n      jump\t// in\n    tag_106:\n        /* \"@openzeppelin/contracts-upgradeable/access/OwnableUpgradeable.sol\":2506:2553  OwnableStorage storage $ = _getOwnableStorage() */\n      swap1\n      pop\n        /* \"@openzeppelin/contracts-upgradeable/access/OwnableUpgradeable.sol\":2570:2571  $ */\n      dup1\n        /* \"@openzeppelin/contracts-upgradeable/access/OwnableUpgradeable.sol\":2570:2578  $._owner */\n      0x00\n      add\n      0x00\n      swap1\n      sload\n      swap1\n      0x0100\n      exp\n      swap1\n      div\n      0xffffffffffffffffffffffffffffffffffffffff\n      and\n        /* \"@openzeppelin/contracts-upgradeable/access/OwnableUpgradeable.sol\":2563:2578  return $._owner */\n      swap2\n      pop\n      pop\n        /* \"@openzeppelin/contracts-upgradeable/access/OwnableUpgradeable.sol\":2441:2585  function owner() public view virtual returns (address) {... */\n      swap1\n      jump\t// out\n        /* \"contracts/Tipping.sol\":1114:1300  function initialize(address owner, uint256 _feesBps) public initializer {... */\n    tag_46:\n        /* \"@openzeppelin/contracts-upgradeable/proxy/utils/Initializable.sol\":4158:4188  InitializableStorage storage $ */\n      0x00\n        /* \"@openzeppelin/contracts-upgradeable/proxy/utils/Initializable.sol\":4191:4217  _getInitializableStorage() */\n      tag_109\n        /* \"@openzeppelin/contracts-upgradeable/proxy/utils/Initializable.sol\":4191:4215  _getInitializableStorage */\n      tag_110\n        /* \"@openzeppelin/contracts-upgradeable/proxy/utils/Initializable.sol\":4191:4217  _getInitializableStorage() */\n      jump\t// in\n    tag_109:\n        /* \"@openzeppelin/contracts-upgradeable/proxy/utils/Initializable.sol\":4158:4217  InitializableStorage storage $ = _getInitializableStorage() */\n      swap1\n      pop\n        /* \"@openzeppelin/contracts-upgradeable/proxy/utils/Initializable.sol\":4279:4298  bool isTopLevelCall */\n      0x00\n        /* \"@openzeppelin/contracts-upgradeable/proxy/utils/Initializable.sol\":4302:4303  $ */\n      dup2\n        /* \"@openzeppelin/contracts-upgradeable/proxy/utils/Initializable.sol\":4302:4317  $._initializing */\n      0x00\n      add\n      0x08\n      swap1\n      sload\n      swap1\n      0x0100\n      exp\n      swap1\n      div\n      0xff\n      and\n        /* \"@openzeppelin/contracts-upgradeable/proxy/utils/Initializable.sol\":4301:4317  !$._initializing */\n      iszero\n        /* \"@openzeppelin/contracts-upgradeable/proxy/utils/Initializable.sol\":4279:4317  bool isTopLevelCall = !$._initializing */\n      swap1\n      pop\n        /* \"@openzeppelin/contracts-upgradeable/proxy/utils/Initializable.sol\":4327:4345  uint64 initialized */\n      0x00\n        /* \"@openzeppelin/contracts-upgradeable/proxy/utils/Initializable.sol\":4348:4349  $ */\n      dup3\n        /* \"@openzeppelin/contracts-upgradeable/proxy/utils/Initializable.sol\":4348:4362  $._initialized */\n      0x00\n      add\n      0x00\n      swap1\n      sload\n      swap1\n      0x0100\n      exp\n      swap1\n      div\n      0xffffffffffffffff\n      and\n        /* \"@openzeppelin/contracts-upgradeable/proxy/utils/Initializable.sol\":4327:4362  uint64 initialized = $._initialized */\n      swap1\n      pop\n        /* \"@openzeppelin/contracts-upgradeable/proxy/utils/Initializable.sol\":4706:4723  bool initialSetup */\n      0x00\n        /* \"@openzeppelin/contracts-upgradeable/proxy/utils/Initializable.sol\":4741:4742  0 */\n      dup1\n        /* \"@openzeppelin/contracts-upgradeable/proxy/utils/Initializable.sol\":4726:4737  initialized */\n      dup3\n        /* \"@openzeppelin/contracts-upgradeable/proxy/utils/Initializable.sol\":4726:4742  initialized == 0 */\n      0xffffffffffffffff\n      and\n      eq\n        /* \"@openzeppelin/contracts-upgradeable/proxy/utils/Initializable.sol\":4726:4760  initialized == 0 && isTopLevelCall */\n      dup1\n      iszero\n      tag_111\n      jumpi\n      pop\n        /* \"@openzeppelin/contracts-upgradeable/proxy/utils/Initializable.sol\":4746:4760  isTopLevelCall */\n      dup3\n        /* \"@openzeppelin/contracts-upgradeable/proxy/utils/Initializable.sol\":4726:4760  initialized == 0 && isTopLevelCall */\n    tag_111:\n        /* \"@openzeppelin/contracts-upgradeable/proxy/utils/Initializable.sol\":4706:4760  bool initialSetup = initialized == 0 && isTopLevelCall */\n      swap1\n      pop\n        /* \"@openzeppelin/contracts-upgradeable/proxy/utils/Initializable.sol\":4770:4787  bool construction */\n      0x00\n        /* \"@openzeppelin/contracts-upgradeable/proxy/utils/Initializable.sol\":4805:4806  1 */\n      0x01\n        /* \"@openzeppelin/contracts-upgradeable/proxy/utils/Initializable.sol\":4790:4801  initialized */\n      dup4\n        /* \"@openzeppelin/contracts-upgradeable/proxy/utils/Initializable.sol\":4790:4806  initialized == 1 */\n      0xffffffffffffffff\n      and\n      eq\n        /* \"@openzeppelin/contracts-upgradeable/proxy/utils/Initializable.sol\":4790:4840  initialized == 1 && address(this).code.length == 0 */\n      dup1\n      iszero\n      tag_112\n      jumpi\n      pop\n        /* \"@openzeppelin/contracts-upgradeable/proxy/utils/Initializable.sol\":4839:4840  0 */\n      0x00\n        /* \"@openzeppelin/contracts-upgradeable/proxy/utils/Initializable.sol\":4818:4822  this */\n      address\n        /* \"@openzeppelin/contracts-upgradeable/proxy/utils/Initializable.sol\":4810:4835  address(this).code.length */\n      0xffffffffffffffffffffffffffffffffffffffff\n      and\n      extcodesize\n        /* \"@openzeppelin/contracts-upgradeable/proxy/utils/Initializable.sol\":4810:4840  address(this).code.length == 0 */\n      eq\n        /* \"@openzeppelin/contracts-upgradeable/proxy/utils/Initializable.sol\":4790:4840  initialized == 1 && address(this).code.length == 0 */\n    tag_112:\n        /* \"@openzeppelin/contracts-upgradeable/proxy/utils/Initializable.sol\":4770:4840  bool construction = initialized == 1 && address(this).code.length == 0 */\n      swap1\n      pop\n        /* \"@openzeppelin/contracts-upgradeable/proxy/utils/Initializable.sol\":4856:4868  initialSetup */\n      dup2\n        /* \"@openzeppelin/contracts-upgradeable/proxy/utils/Initializable.sol\":4855:4868  !initialSetup */\n      iszero\n        /* \"@openzeppelin/contracts-upgradeable/proxy/utils/Initializable.sol\":4855:4885  !initialSetup && !construction */\n      dup1\n      iszero\n      tag_113\n      jumpi\n      pop\n        /* \"@openzeppelin/contracts-upgradeable/proxy/utils/Initializable.sol\":4873:4885  construction */\n      dup1\n        /* \"@openzeppelin/contracts-upgradeable/proxy/utils/Initializable.sol\":4872:4885  !construction */\n      iszero\n        /* \"@openzeppelin/contracts-upgradeable/proxy/utils/Initializable.sol\":4855:4885  !initialSetup && !construction */\n    tag_113:\n        /* \"@openzeppelin/contracts-upgradeable/proxy/utils/Initializable.sol\":4851:4942  if (!initialSetup && !construction) {... */\n      iszero\n      tag_114\n      jumpi\n        /* \"@openzeppelin/contracts-upgradeable/proxy/utils/Initializable.sol\":4908:4931  InvalidInitialization() */\n      mload(0x40)\n      0xf92ee8a900000000000000000000000000000000000000000000000000000000\n      dup2\n      mstore\n      0x04\n      add\n      mload(0x40)\n      dup1\n      swap2\n      sub\n      swap1\n      revert\n        /* \"@openzeppelin/contracts-upgradeable/proxy/utils/Initializable.sol\":4851:4942  if (!initialSetup && !construction) {... */\n    tag_114:\n        /* \"@openzeppelin/contracts-upgradeable/proxy/utils/Initializable.sol\":4968:4969  1 */\n      0x01\n        /* \"@openzeppelin/contracts-upgradeable/proxy/utils/Initializable.sol\":4951:4952  $ */\n      dup6\n        /* \"@openzeppelin/contracts-upgradeable/proxy/utils/Initializable.sol\":4951:4965  $._initialized */\n      0x00\n      add\n      0x00\n        /* \"@openzeppelin/contracts-upgradeable/proxy/utils/Initializable.sol\":4951:4969  $._initialized = 1 */\n      0x0100\n      exp\n      dup2\n      sload\n      dup2\n      0xffffffffffffffff\n      mul\n      not\n      and\n      swap1\n      dup4\n      0xffffffffffffffff\n      and\n      mul\n      or\n      swap1\n      sstore\n      pop\n        /* \"@openzeppelin/contracts-upgradeable/proxy/utils/Initializable.sol\":4983:4997  isTopLevelCall */\n      dup4\n        /* \"@openzeppelin/contracts-upgradeable/proxy/utils/Initializable.sol\":4979:5046  if (isTopLevelCall) {... */\n      iszero\n      tag_115\n      jumpi\n        /* \"@openzeppelin/contracts-upgradeable/proxy/utils/Initializable.sol\":5031:5035  true */\n      0x01\n        /* \"@openzeppelin/contracts-upgradeable/proxy/utils/Initializable.sol\":5013:5014  $ */\n      dup6\n        /* \"@openzeppelin/contracts-upgradeable/proxy/utils/Initializable.sol\":5013:5028  $._initializing */\n      0x00\n      add\n      0x08\n        /* \"@openzeppelin/contracts-upgradeable/proxy/utils/Initializable.sol\":5013:5035  $._initializing = true */\n      0x0100\n      exp\n      dup2\n      sload\n      dup2\n      0xff\n      mul\n      not\n      and\n      swap1\n      dup4\n      iszero\n      iszero\n      mul\n      or\n      swap1\n      sstore\n      pop\n        /* \"@openzeppelin/contracts-upgradeable/proxy/utils/Initializable.sol\":4979:5046  if (isTopLevelCall) {... */\n    tag_115:\n        /* \"contracts/Tipping.sol\":1193:1214  __Ownable_init(owner) */\n      tag_117\n        /* \"contracts/Tipping.sol\":1208:1213  owner */\n      dup8\n        /* \"contracts/Tipping.sol\":1193:1207  __Ownable_init */\n      tag_118\n        /* \"contracts/Tipping.sol\":1193:1214  __Ownable_init(owner) */\n      jump\t// in\n    tag_117:\n        /* \"contracts/Tipping.sol\":1221:1245  __ReentrancyGuard_init() */\n      tag_119\n        /* \"contracts/Tipping.sol\":1221:1243  __ReentrancyGuard_init */\n      tag_120\n        /* \"contracts/Tipping.sol\":1221:1245  __ReentrancyGuard_init() */\n      jump\t// in\n    tag_119:\n        /* \"contracts/Tipping.sol\":1252:1269  __Pausable_init() */\n      tag_121\n        /* \"contracts/Tipping.sol\":1252:1267  __Pausable_init */\n      tag_122\n        /* \"contracts/Tipping.sol\":1252:1269  __Pausable_init() */\n      jump\t// in\n    tag_121:\n        /* \"contracts/Tipping.sol\":1286:1294  _feesBps */\n      dup6\n        /* \"contracts/Tipping.sol\":1276:1283  feesBps */\n      0x00\n        /* \"contracts/Tipping.sol\":1276:1294  feesBps = _feesBps */\n      dup2\n      swap1\n      sstore\n      pop\n        /* \"@openzeppelin/contracts-upgradeable/proxy/utils/Initializable.sol\":5070:5084  isTopLevelCall */\n      dup4\n        /* \"@openzeppelin/contracts-upgradeable/proxy/utils/Initializable.sol\":5066:5167  if (isTopLevelCall) {... */\n      iszero\n      tag_123\n      jumpi\n        /* \"@openzeppelin/contracts-upgradeable/proxy/utils/Initializable.sol\":5118:5123  false */\n      0x00\n        /* \"@openzeppelin/contracts-upgradeable/proxy/utils/Initializable.sol\":5100:5101  $ */\n      dup6\n        /* \"@openzeppelin/contracts-upgradeable/proxy/utils/Initializable.sol\":5100:5115  $._initializing */\n      0x00\n      add\n      0x08\n        /* \"@openzeppelin/contracts-upgradeable/proxy/utils/Initializable.sol\":5100:5123  $._initializing = false */\n      0x0100\n      exp\n      dup2\n      sload\n      dup2\n      0xff\n      mul\n      not\n      and\n      swap1\n      dup4\n      iszero\n      iszero\n      mul\n      or\n      swap1\n      sstore\n      pop\n        /* \"@openzeppelin/contracts-upgradeable/proxy/utils/Initializable.sol\":5142:5156  Initialized(1) */\n      0xc7f505b2f371ae2175ee4913f4499e1f2633a7b5936321eed1cdaeb6115181d2\n        /* \"@openzeppelin/contracts-upgradeable/proxy/utils/Initializable.sol\":5154:5155  1 */\n      0x01\n        /* \"@openzeppelin/contracts-upgradeable/proxy/utils/Initializable.sol\":5142:5156  Initialized(1) */\n      mload(0x40)\n      tag_124\n      swap2\n      swap1\n      tag_125\n      jump\t// in\n    tag_124:\n      mload(0x40)\n      dup1\n      swap2\n      sub\n      swap1\n      log1\n        /* \"@openzeppelin/contracts-upgradeable/proxy/utils/Initializable.sol\":5066:5167  if (isTopLevelCall) {... */\n    tag_123:\n        /* \"@openzeppelin/contracts-upgradeable/proxy/utils/Initializable.sol\":4092:5173  {... */\n      pop\n      pop\n      pop\n      pop\n      pop\n        /* \"contracts/Tipping.sol\":1114:1300  function initialize(address owner, uint256 _feesBps) public initializer {... */\n      pop\n      pop\n      jump\t// out\n        /* \"contracts/Tipping.sol\":697:719  uint256 public feesBps */\n    tag_48:\n      sload(0x00)\n      dup2\n      jump\t// out\n        /* \"@openzeppelin/contracts-upgradeable/access/OwnableUpgradeable.sol\":3405:3620  function transferOwnership(address newOwner) public virtual onlyOwner {... */\n    tag_53:\n        /* \"@openzeppelin/contracts-upgradeable/access/OwnableUpgradeable.sol\":2334:2347  _checkOwner() */\n      tag_127\n        /* \"@openzeppelin/contracts-upgradeable/access/OwnableUpgradeable.sol\":2334:2345  _checkOwner */\n      tag_77\n        /* \"@openzeppelin/contracts-upgradeable/access/OwnableUpgradeable.sol\":2334:2347  _checkOwner() */\n      jump\t// in\n    tag_127:\n        /* \"@openzeppelin/contracts-upgradeable/access/OwnableUpgradeable.sol\":3509:3510  0 */\n      0x00\n        /* \"@openzeppelin/contracts-upgradeable/access/OwnableUpgradeable.sol\":3489:3511  newOwner == address(0) */\n      0xffffffffffffffffffffffffffffffffffffffff\n      and\n        /* \"@openzeppelin/contracts-upgradeable/access/OwnableUpgradeable.sol\":3489:3497  newOwner */\n      dup2\n        /* \"@openzeppelin/contracts-upgradeable/access/OwnableUpgradeable.sol\":3489:3511  newOwner == address(0) */\n      0xffffffffffffffffffffffffffffffffffffffff\n      and\n      sub\n        /* \"@openzeppelin/contracts-upgradeable/access/OwnableUpgradeable.sol\":3485:3576  if (newOwner == address(0)) {... */\n      tag_129\n      jumpi\n        /* \"@openzeppelin/contracts-upgradeable/access/OwnableUpgradeable.sol\":3562:3563  0 */\n      0x00\n        /* \"@openzeppelin/contracts-upgradeable/access/OwnableUpgradeable.sol\":3534:3565  OwnableInvalidOwner(address(0)) */\n      mload(0x40)\n      0x1e4fbdf700000000000000000000000000000000000000000000000000000000\n      dup2\n      mstore\n      0x04\n      add\n      tag_130\n      swap2\n      swap1\n      tag_42\n      jump\t// in\n    tag_130:\n      mload(0x40)\n      dup1\n      swap2\n      sub\n      swap1\n      revert\n        /* \"@openzeppelin/contracts-upgradeable/access/OwnableUpgradeable.sol\":3485:3576  if (newOwner == address(0)) {... */\n    tag_129:\n        /* \"@openzeppelin/contracts-upgradeable/access/OwnableUpgradeable.sol\":3585:3613  _transferOwnership(newOwner) */\n      tag_131\n        /* \"@openzeppelin/contracts-upgradeable/access/OwnableUpgradeable.sol\":3604:3612  newOwner */\n      dup2\n        /* \"@openzeppelin/contracts-upgradeable/access/OwnableUpgradeable.sol\":3585:3603  _transferOwnership */\n      tag_92\n        /* \"@openzeppelin/contracts-upgradeable/access/OwnableUpgradeable.sol\":3585:3613  _transferOwnership(newOwner) */\n      jump\t// in\n    tag_131:\n        /* \"@openzeppelin/contracts-upgradeable/access/OwnableUpgradeable.sol\":3405:3620  function transferOwnership(address newOwner) public virtual onlyOwner {... */\n      pop\n      jump\t// out\n        /* \"@openzeppelin/contracts-upgradeable/utils/PausableUpgradeable.sol\":2905:3033  function _requireNotPaused() internal view virtual {... */\n    tag_56:\n        /* \"@openzeppelin/contracts-upgradeable/utils/PausableUpgradeable.sol\":2970:2978  paused() */\n      tag_133\n        /* \"@openzeppelin/contracts-upgradeable/utils/PausableUpgradeable.sol\":2970:2976  paused */\n      tag_26\n        /* \"@openzeppelin/contracts-upgradeable/utils/PausableUpgradeable.sol\":2970:2978  paused() */\n      jump\t// in\n    tag_133:\n        /* \"@openzeppelin/contracts-upgradeable/utils/PausableUpgradeable.sol\":2966:3027  if (paused()) {... */\n      iszero\n      tag_134\n      jumpi\n        /* \"@openzeppelin/contracts-upgradeable/utils/PausableUpgradeable.sol\":3001:3016  EnforcedPause() */\n      mload(0x40)\n      0xd93c066500000000000000000000000000000000000000000000000000000000\n      dup2\n      mstore\n      0x04\n      add\n      mload(0x40)\n      dup1\n      swap2\n      sub\n      swap1\n      revert\n        /* \"@openzeppelin/contracts-upgradeable/utils/PausableUpgradeable.sol\":2966:3027  if (paused()) {... */\n    tag_134:\n        /* \"@openzeppelin/contracts-upgradeable/utils/PausableUpgradeable.sol\":2905:3033  function _requireNotPaused() internal view virtual {... */\n      jump\t// out\n        /* \"@openzeppelin/contracts-upgradeable/utils/ReentrancyGuardUpgradeable.sol\":3326:3710  function _nonReentrantBefore() private {... */\n    tag_59:\n        /* \"@openzeppelin/contracts-upgradeable/utils/ReentrancyGuardUpgradeable.sol\":3375:3407  ReentrancyGuardStorage storage $ */\n      0x00\n        /* \"@openzeppelin/contracts-upgradeable/utils/ReentrancyGuardUpgradeable.sol\":3410:3438  _getReentrancyGuardStorage() */\n      tag_136\n        /* \"@openzeppelin/contracts-upgradeable/utils/ReentrancyGuardUpgradeable.sol\":3410:3436  _getReentrancyGuardStorage */\n      tag_137\n        /* \"@openzeppelin/contracts-upgradeable/utils/ReentrancyGuardUpgradeable.sol\":3410:3438  _getReentrancyGuardStorage() */\n      jump\t// in\n    tag_136:\n        /* \"@openzeppelin/contracts-upgradeable/utils/ReentrancyGuardUpgradeable.sol\":3375:3438  ReentrancyGuardStorage storage $ = _getReentrancyGuardStorage() */\n      swap1\n      pop\n        /* \"@openzeppelin/contracts-upgradeable/utils/ReentrancyGuardUpgradeable.sol\":1847:1848  2 */\n      0x02\n        /* \"@openzeppelin/contracts-upgradeable/utils/ReentrancyGuardUpgradeable.sol\":3526:3527  $ */\n      dup2\n        /* \"@openzeppelin/contracts-upgradeable/utils/ReentrancyGuardUpgradeable.sol\":3526:3535  $._status */\n      0x00\n      add\n      sload\n        /* \"@openzeppelin/contracts-upgradeable/utils/ReentrancyGuardUpgradeable.sol\":3526:3546  $._status == ENTERED */\n      sub\n        /* \"@openzeppelin/contracts-upgradeable/utils/ReentrancyGuardUpgradeable.sol\":3522:3610  if ($._status == ENTERED) {... */\n      tag_138\n      jumpi\n        /* \"@openzeppelin/contracts-upgradeable/utils/ReentrancyGuardUpgradeable.sol\":3569:3599  ReentrancyGuardReentrantCall() */\n      mload(0x40)\n      0x3ee5aeb500000000000000000000000000000000000000000000000000000000\n      dup2\n      mstore\n      0x04\n      add\n      mload(0x40)\n      dup1\n      swap2\n      sub\n      swap1\n      revert\n        /* \"@openzeppelin/contracts-upgradeable/utils/ReentrancyGuardUpgradeable.sol\":3522:3610  if ($._status == ENTERED) {... */\n    tag_138:\n        /* \"@openzeppelin/contracts-upgradeable/utils/ReentrancyGuardUpgradeable.sol\":1847:1848  2 */\n      0x02\n        /* \"@openzeppelin/contracts-upgradeable/utils/ReentrancyGuardUpgradeable.sol\":3684:3685  $ */\n      dup2\n        /* \"@openzeppelin/contracts-upgradeable/utils/ReentrancyGuardUpgradeable.sol\":3684:3693  $._status */\n      0x00\n      add\n        /* \"@openzeppelin/contracts-upgradeable/utils/ReentrancyGuardUpgradeable.sol\":3684:3703  $._status = ENTERED */\n      dup2\n      swap1\n      sstore\n      pop\n        /* \"@openzeppelin/contracts-upgradeable/utils/ReentrancyGuardUpgradeable.sol\":3365:3710  {... */\n      pop\n        /* \"@openzeppelin/contracts-upgradeable/utils/ReentrancyGuardUpgradeable.sol\":3326:3710  function _nonReentrantBefore() private {... */\n      jump\t// out\n        /* \"@openzeppelin/contracts/token/ERC20/utils/SafeERC20.sol\":1702:1890  function safeTransferFrom(IERC20 token, address from, address to, uint256 value) internal {... */\n    tag_69:\n        /* \"@openzeppelin/contracts/token/ERC20/utils/SafeERC20.sol\":1802:1883  _callOptionalReturn(token, abi.encodeCall(token.transferFrom, (from, to, value))) */\n      tag_140\n        /* \"@openzeppelin/contracts/token/ERC20/utils/SafeERC20.sol\":1822:1827  token */\n      dup5\n        /* \"@openzeppelin/contracts/token/ERC20/utils/SafeERC20.sol\":1844:1849  token */\n      dup6\n        /* \"@openzeppelin/contracts/token/ERC20/utils/SafeERC20.sol\":1844:1862  token.transferFrom */\n      0xffffffffffffffffffffffffffffffffffffffff\n      and\n      0x23b872dd\n        /* \"@openzeppelin/contracts/token/ERC20/utils/SafeERC20.sol\":1865:1869  from */\n      dup7\n        /* \"@openzeppelin/contracts/token/ERC20/utils/SafeERC20.sol\":1871:1873  to */\n      dup7\n        /* \"@openzeppelin/contracts/token/ERC20/utils/SafeERC20.sol\":1875:1880  value */\n      dup7\n        /* \"@openzeppelin/contracts/token/ERC20/utils/SafeERC20.sol\":1829:1882  abi.encodeCall(token.transferFrom, (from, to, value)) */\n      add(0x24, mload(0x40))\n      tag_141\n      swap4\n      swap3\n      swap2\n      swap1\n      tag_142\n      jump\t// in\n    tag_141:\n      mload(0x40)\n      0x20\n      dup2\n      dup4\n      sub\n      sub\n      dup2\n      mstore\n      swap1\n      0x40\n      mstore\n      swap2\n      pop\n      0xe0\n      shl\n      0x20\n      dup3\n      add\n      dup1\n      mload\n      0xffffffffffffffffffffffffffffffffffffffffffffffffffffffff\n      dup4\n      dup2\n      dup4\n      and\n      or\n      dup4\n      mstore\n      pop\n      pop\n      pop\n      pop\n        /* \"@openzeppelin/contracts/token/ERC20/utils/SafeERC20.sol\":1802:1821  _callOptionalReturn */\n      tag_143\n        /* \"@openzeppelin/contracts/token/ERC20/utils/SafeERC20.sol\":1802:1883  _callOptionalReturn(token, abi.encodeCall(token.transferFrom, (from, to, value))) */\n      jump\t// in\n    tag_140:\n        /* \"@openzeppelin/contracts/token/ERC20/utils/SafeERC20.sol\":1702:1890  function safeTransferFrom(IERC20 token, address from, address to, uint256 value) internal {... */\n      pop\n      pop\n      pop\n      pop\n      jump\t// out\n        /* \"@openzeppelin/contracts-upgradeable/utils/ReentrancyGuardUpgradeable.sol\":3716:3999  function _nonReentrantAfter() private {... */\n    tag_74:\n        /* \"@openzeppelin/contracts-upgradeable/utils/ReentrancyGuardUpgradeable.sol\":3764:3796  ReentrancyGuardStorage storage $ */\n      0x00\n        /* \"@openzeppelin/contracts-upgradeable/utils/ReentrancyGuardUpgradeable.sol\":3799:3827  _getReentrancyGuardStorage() */\n      tag_145\n        /* \"@openzeppelin/contracts-upgradeable/utils/ReentrancyGuardUpgradeable.sol\":3799:3825  _getReentrancyGuardStorage */\n      tag_137\n        /* \"@openzeppelin/contracts-upgradeable/utils/ReentrancyGuardUpgradeable.sol\":3799:3827  _getReentrancyGuardStorage() */\n      jump\t// in\n    tag_145:\n        /* \"@openzeppelin/contracts-upgradeable/utils/ReentrancyGuardUpgradeable.sol\":3764:3827  ReentrancyGuardStorage storage $ = _getReentrancyGuardStorage() */\n      swap1\n      pop\n        /* \"@openzeppelin/contracts-upgradeable/utils/ReentrancyGuardUpgradeable.sol\":1805:1806  1 */\n      0x01\n        /* \"@openzeppelin/contracts-upgradeable/utils/ReentrancyGuardUpgradeable.sol\":3969:3970  $ */\n      dup2\n        /* \"@openzeppelin/contracts-upgradeable/utils/ReentrancyGuardUpgradeable.sol\":3969:3978  $._status */\n      0x00\n      add\n        /* \"@openzeppelin/contracts-upgradeable/utils/ReentrancyGuardUpgradeable.sol\":3969:3992  $._status = NOT_ENTERED */\n      dup2\n      swap1\n      sstore\n      pop\n        /* \"@openzeppelin/contracts-upgradeable/utils/ReentrancyGuardUpgradeable.sol\":3754:3999  {... */\n      pop\n        /* \"@openzeppelin/contracts-upgradeable/utils/ReentrancyGuardUpgradeable.sol\":3716:3999  function _nonReentrantAfter() private {... */\n      jump\t// out\n        /* \"@openzeppelin/contracts-upgradeable/access/OwnableUpgradeable.sol\":2658:2820  function _checkOwner() internal view virtual {... */\n    tag_77:\n        /* \"@openzeppelin/contracts-upgradeable/access/OwnableUpgradeable.sol\":2728:2740  _msgSender() */\n      tag_147\n        /* \"@openzeppelin/contracts-upgradeable/access/OwnableUpgradeable.sol\":2728:2738  _msgSender */\n      tag_148\n        /* \"@openzeppelin/contracts-upgradeable/access/OwnableUpgradeable.sol\":2728:2740  _msgSender() */\n      jump\t// in\n    tag_147:\n        /* \"@openzeppelin/contracts-upgradeable/access/OwnableUpgradeable.sol\":2717:2740  owner() != _msgSender() */\n      0xffffffffffffffffffffffffffffffffffffffff\n      and\n        /* \"@openzeppelin/contracts-upgradeable/access/OwnableUpgradeable.sol\":2717:2724  owner() */\n      tag_149\n        /* \"@openzeppelin/contracts-upgradeable/access/OwnableUpgradeable.sol\":2717:2722  owner */\n      tag_40\n        /* \"@openzeppelin/contracts-upgradeable/access/OwnableUpgradeable.sol\":2717:2724  owner() */\n      jump\t// in\n    tag_149:\n        /* \"@openzeppelin/contracts-upgradeable/access/OwnableUpgradeable.sol\":2717:2740  owner() != _msgSender() */\n      0xffffffffffffffffffffffffffffffffffffffff\n      and\n      eq\n        /* \"@openzeppelin/contracts-upgradeable/access/OwnableUpgradeable.sol\":2713:2814  if (owner() != _msgSender()) {... */\n      tag_150\n      jumpi\n        /* \"@openzeppelin/contracts-upgradeable/access/OwnableUpgradeable.sol\":2790:2802  _msgSender() */\n      tag_151\n        /* \"@openzeppelin/contracts-upgradeable/access/OwnableUpgradeable.sol\":2790:2800  _msgSender */\n      tag_148\n        /* \"@openzeppelin/contracts-upgradeable/access/OwnableUpgradeable.sol\":2790:2802  _msgSender() */\n      jump\t// in\n    tag_151:\n        /* \"@openzeppelin/contracts-upgradeable/access/OwnableUpgradeable.sol\":2763:2803  OwnableUnauthorizedAccount(_msgSender()) */\n      mload(0x40)\n      0x118cdaa700000000000000000000000000000000000000000000000000000000\n      dup2\n      mstore\n      0x04\n      add\n      tag_152\n      swap2\n      swap1\n      tag_42\n      jump\t// in\n    tag_152:\n      mload(0x40)\n      dup1\n      swap2\n      sub\n      swap1\n      revert\n        /* \"@openzeppelin/contracts-upgradeable/access/OwnableUpgradeable.sol\":2713:2814  if (owner() != _msgSender()) {... */\n    tag_150:\n        /* \"@openzeppelin/contracts-upgradeable/access/OwnableUpgradeable.sol\":2658:2820  function _checkOwner() internal view virtual {... */\n      jump\t// out\n        /* \"@openzeppelin/contracts-upgradeable/utils/PausableUpgradeable.sol\":3674:3852  function _unpause() internal virtual whenPaused {... */\n    tag_84:\n        /* \"@openzeppelin/contracts-upgradeable/utils/PausableUpgradeable.sol\":2563:2579  _requirePaused() */\n      tag_154\n        /* \"@openzeppelin/contracts-upgradeable/utils/PausableUpgradeable.sol\":2563:2577  _requirePaused */\n      tag_155\n        /* \"@openzeppelin/contracts-upgradeable/utils/PausableUpgradeable.sol\":2563:2579  _requirePaused() */\n      jump\t// in\n    tag_154:\n        /* \"@openzeppelin/contracts-upgradeable/utils/PausableUpgradeable.sol\":3732:3757  PausableStorage storage $ */\n      0x00\n        /* \"@openzeppelin/contracts-upgradeable/utils/PausableUpgradeable.sol\":3760:3781  _getPausableStorage() */\n      tag_157\n        /* \"@openzeppelin/contracts-upgradeable/utils/PausableUpgradeable.sol\":3760:3779  _getPausableStorage */\n      tag_87\n        /* \"@openzeppelin/contracts-upgradeable/utils/PausableUpgradeable.sol\":3760:3781  _getPausableStorage() */\n      jump\t// in\n    tag_157:\n        /* \"@openzeppelin/contracts-upgradeable/utils/PausableUpgradeable.sol\":3732:3781  PausableStorage storage $ = _getPausableStorage() */\n      swap1\n      pop\n        /* \"@openzeppelin/contracts-upgradeable/utils/PausableUpgradeable.sol\":3803:3808  false */\n      0x00\n        /* \"@openzeppelin/contracts-upgradeable/utils/PausableUpgradeable.sol\":3791:3792  $ */\n      dup2\n        /* \"@openzeppelin/contracts-upgradeable/utils/PausableUpgradeable.sol\":3791:3800  $._paused */\n      0x00\n      add\n      0x00\n        /* \"@openzeppelin/contracts-upgradeable/utils/PausableUpgradeable.sol\":3791:3808  $._paused = false */\n      0x0100\n      exp\n      dup2\n      sload\n      dup2\n      0xff\n      mul\n      not\n      and\n      swap1\n      dup4\n      iszero\n      iszero\n      mul\n      or\n      swap1\n      sstore\n      pop\n        /* \"@openzeppelin/contracts-upgradeable/utils/PausableUpgradeable.sol\":3823:3845  Unpaused(_msgSender()) */\n      0x5db9ee0a495bf2e6ff9c91a7834c1ba4fdd244a5e8aa4e537bd38aeae4b073aa\n        /* \"@openzeppelin/contracts-upgradeable/utils/PausableUpgradeable.sol\":3832:3844  _msgSender() */\n      tag_158\n        /* \"@openzeppelin/contracts-upgradeable/utils/PausableUpgradeable.sol\":3832:3842  _msgSender */\n      tag_148\n        /* \"@openzeppelin/contracts-upgradeable/utils/PausableUpgradeable.sol\":3832:3844  _msgSender() */\n      jump\t// in\n    tag_158:\n        /* \"@openzeppelin/contracts-upgradeable/utils/PausableUpgradeable.sol\":3823:3845  Unpaused(_msgSender()) */\n      mload(0x40)\n      tag_159\n      swap2\n      swap1\n      tag_42\n      jump\t// in\n    tag_159:\n      mload(0x40)\n      dup1\n      swap2\n      sub\n      swap1\n      log1\n        /* \"@openzeppelin/contracts-upgradeable/utils/PausableUpgradeable.sol\":3722:3852  {... */\n      pop\n        /* \"@openzeppelin/contracts-upgradeable/utils/PausableUpgradeable.sol\":3674:3852  function _unpause() internal virtual whenPaused {... */\n      jump\t// out\n        /* \"@openzeppelin/contracts-upgradeable/utils/PausableUpgradeable.sol\":1147:1309  function _getPausableStorage() private pure returns (PausableStorage storage $) {... */\n    tag_87:\n        /* \"@openzeppelin/contracts-upgradeable/utils/PausableUpgradeable.sol\":1200:1225  PausableStorage storage $ */\n      0x00\n        /* \"@openzeppelin/contracts-upgradeable/utils/PausableUpgradeable.sol\":1270:1293  PausableStorageLocation */\n      0xcd5ed15c6e187e77e9aee88184c21f4f2182ab5827cb3b7e07fbedcd63f03300\n        /* \"@openzeppelin/contracts-upgradeable/utils/PausableUpgradeable.sol\":1260:1293  $.slot := PausableStorageLocation */\n      swap1\n      pop\n        /* \"@openzeppelin/contracts-upgradeable/utils/PausableUpgradeable.sol\":1147:1309  function _getPausableStorage() private pure returns (PausableStorage storage $) {... */\n      swap1\n      jump\t// out\n        /* \"@openzeppelin/contracts-upgradeable/access/OwnableUpgradeable.sol\":3774:4022  function _transferOwnership(address newOwner) internal virtual {... */\n    tag_92:\n        /* \"@openzeppelin/contracts-upgradeable/access/OwnableUpgradeable.sol\":3847:3871  OwnableStorage storage $ */\n      0x00\n        /* \"@openzeppelin/contracts-upgradeable/access/OwnableUpgradeable.sol\":3874:3894  _getOwnableStorage() */\n      tag_162\n        /* \"@openzeppelin/contracts-upgradeable/access/OwnableUpgradeable.sol\":3874:3892  _getOwnableStorage */\n      tag_107\n        /* \"@openzeppelin/contracts-upgradeable/access/OwnableUpgradeable.sol\":3874:3894  _getOwnableStorage() */\n      jump\t// in\n    tag_162:\n        /* \"@openzeppelin/contracts-upgradeable/access/OwnableUpgradeable.sol\":3847:3894  OwnableStorage storage $ = _getOwnableStorage() */\n      swap1\n      pop\n        /* \"@openzeppelin/contracts-upgradeable/access/OwnableUpgradeable.sol\":3904:3920  address oldOwner */\n      0x00\n        /* \"@openzeppelin/contracts-upgradeable/access/OwnableUpgradeable.sol\":3923:3924  $ */\n      dup2\n        /* \"@openzeppelin/contracts-upgradeable/access/OwnableUpgradeable.sol\":3923:3931  $._owner */\n      0x00\n      add\n      0x00\n      swap1\n      sload\n      swap1\n      0x0100\n      exp\n      swap1\n      div\n      0xffffffffffffffffffffffffffffffffffffffff\n      and\n        /* \"@openzeppelin/contracts-upgradeable/access/OwnableUpgradeable.sol\":3904:3931  address oldOwner = $._owner */\n      swap1\n      pop\n        /* \"@openzeppelin/contracts-upgradeable/access/OwnableUpgradeable.sol\":3952:3960  newOwner */\n      dup3\n        /* \"@openzeppelin/contracts-upgradeable/access/OwnableUpgradeable.sol\":3941:3942  $ */\n      dup3\n        /* \"@openzeppelin/contracts-upgradeable/access/OwnableUpgradeable.sol\":3941:3949  $._owner */\n      0x00\n      add\n      0x00\n        /* \"@openzeppelin/contracts-upgradeable/access/OwnableUpgradeable.sol\":3941:3960  $._owner = newOwner */\n      0x0100\n      exp\n      dup2\n      sload\n      dup2\n      0xffffffffffffffffffffffffffffffffffffffff\n      mul\n      not\n      and\n      swap1\n      dup4\n      0xffffffffffffffffffffffffffffffffffffffff\n      and\n      mul\n      or\n      swap1\n      sstore\n      pop\n        /* \"@openzeppelin/contracts-upgradeable/access/OwnableUpgradeable.sol\":4006:4014  newOwner */\n      dup3\n        /* \"@openzeppelin/contracts-upgradeable/access/OwnableUpgradeable.sol\":3975:4015  OwnershipTransferred(oldOwner, newOwner) */\n      0xffffffffffffffffffffffffffffffffffffffff\n      and\n        /* \"@openzeppelin/contracts-upgradeable/access/OwnableUpgradeable.sol\":3996:4004  oldOwner */\n      dup2\n        /* \"@openzeppelin/contracts-upgradeable/access/OwnableUpgradeable.sol\":3975:4015  OwnershipTransferred(oldOwner, newOwner) */\n      0xffffffffffffffffffffffffffffffffffffffff\n      and\n      0x8be0079c531659141344cd1fd0a4f28419497f9722a3daafe3b4186f6b6457e0\n      mload(0x40)\n      mload(0x40)\n      dup1\n      swap2\n      sub\n      swap1\n      log3\n        /* \"@openzeppelin/contracts-upgradeable/access/OwnableUpgradeable.sol\":3837:4022  {... */\n      pop\n      pop\n        /* \"@openzeppelin/contracts-upgradeable/access/OwnableUpgradeable.sol\":3774:4022  function _transferOwnership(address newOwner) internal virtual {... */\n      pop\n      jump\t// out\n        /* \"@openzeppelin/contracts-upgradeable/utils/PausableUpgradeable.sol\":3366:3542  function _pause() internal virtual whenNotPaused {... */\n    tag_97:\n        /* \"@openzeppelin/contracts-upgradeable/utils/PausableUpgradeable.sol\":2316:2335  _requireNotPaused() */\n      tag_164\n        /* \"@openzeppelin/contracts-upgradeable/utils/PausableUpgradeable.sol\":2316:2333  _requireNotPaused */\n      tag_56\n        /* \"@openzeppelin/contracts-upgradeable/utils/PausableUpgradeable.sol\":2316:2335  _requireNotPaused() */\n      jump\t// in\n    tag_164:\n        /* \"@openzeppelin/contracts-upgradeable/utils/PausableUpgradeable.sol\":3425:3450  PausableStorage storage $ */\n      0x00\n        /* \"@openzeppelin/contracts-upgradeable/utils/PausableUpgradeable.sol\":3453:3474  _getPausableStorage() */\n      tag_166\n        /* \"@openzeppelin/contracts-upgradeable/utils/PausableUpgradeable.sol\":3453:3472  _getPausableStorage */\n      tag_87\n        /* \"@openzeppelin/contracts-upgradeable/utils/PausableUpgradeable.sol\":3453:3474  _getPausableStorage() */\n      jump\t// in\n    tag_166:\n        /* \"@openzeppelin/contracts-upgradeable/utils/PausableUpgradeable.sol\":3425:3474  PausableStorage storage $ = _getPausableStorage() */\n      swap1\n      pop\n        /* \"@openzeppelin/contracts-upgradeable/utils/PausableUpgradeable.sol\":3496:3500  true */\n      0x01\n        /* \"@openzeppelin/contracts-upgradeable/utils/PausableUpgradeable.sol\":3484:3485  $ */\n      dup2\n        /* \"@openzeppelin/contracts-upgradeable/utils/PausableUpgradeable.sol\":3484:3493  $._paused */\n      0x00\n      add\n      0x00\n        /* \"@openzeppelin/contracts-upgradeable/utils/PausableUpgradeable.sol\":3484:3500  $._paused = true */\n      0x0100\n      exp\n      dup2\n      sload\n      dup2\n      0xff\n      mul\n      not\n      and\n      swap1\n      dup4\n      iszero\n      iszero\n      mul\n      or\n      swap1\n      sstore\n      pop\n        /* \"@openzeppelin/contracts-upgradeable/utils/PausableUpgradeable.sol\":3515:3535  Paused(_msgSender()) */\n      0x62e78cea01bee320cd4e420270b5ea74000d11b0c9f74754ebdbfc544b05a258\n        /* \"@openzeppelin/contracts-upgradeable/utils/PausableUpgradeable.sol\":3522:3534  _msgSender() */\n      tag_167\n        /* \"@openzeppelin/contracts-upgradeable/utils/PausableUpgradeable.sol\":3522:3532  _msgSender */\n      tag_148\n        /* \"@openzeppelin/contracts-upgradeable/utils/PausableUpgradeable.sol\":3522:3534  _msgSender() */\n      jump\t// in\n    tag_167:\n        /* \"@openzeppelin/contracts-upgradeable/utils/PausableUpgradeable.sol\":3515:3535  Paused(_msgSender()) */\n      mload(0x40)\n      tag_168\n      swap2\n      swap1\n      tag_42\n      jump\t// in\n    tag_168:\n      mload(0x40)\n      dup1\n      swap2\n      sub\n      swap1\n      log1\n        /* \"@openzeppelin/contracts-upgradeable/utils/PausableUpgradeable.sol\":3415:3542  {... */\n      pop\n        /* \"@openzeppelin/contracts-upgradeable/utils/PausableUpgradeable.sol\":3366:3542  function _pause() internal virtual whenNotPaused {... */\n      jump\t// out\n        /* \"@openzeppelin/contracts-upgradeable/access/OwnableUpgradeable.sol\":1192:1351  function _getOwnableStorage() private pure returns (OwnableStorage storage $) {... */\n    tag_107:\n        /* \"@openzeppelin/contracts-upgradeable/access/OwnableUpgradeable.sol\":1244:1268  OwnableStorage storage $ */\n      0x00\n        /* \"@openzeppelin/contracts-upgradeable/access/OwnableUpgradeable.sol\":1313:1335  OwnableStorageLocation */\n      0x9016d09d72d40fdae2fd8ceac6b6234c7706214fd39c1cd1e609a0528c199300\n        /* \"@openzeppelin/contracts-upgradeable/access/OwnableUpgradeable.sol\":1303:1335  $.slot := OwnableStorageLocation */\n      swap1\n      pop\n        /* \"@openzeppelin/contracts-upgradeable/access/OwnableUpgradeable.sol\":1192:1351  function _getOwnableStorage() private pure returns (OwnableStorage storage $) {... */\n      swap1\n      jump\t// out\n        /* \"@openzeppelin/contracts-upgradeable/proxy/utils/Initializable.sol\":8737:8907  function _getInitializableStorage() private pure returns (InitializableStorage storage $) {... */\n    tag_110:\n        /* \"@openzeppelin/contracts-upgradeable/proxy/utils/Initializable.sol\":8795:8825  InitializableStorage storage $ */\n      0x00\n        /* \"@openzeppelin/contracts-upgradeable/proxy/utils/Initializable.sol\":8870:8891  INITIALIZABLE_STORAGE */\n      0xf0c57e16840df040f15088dc2f81fe391c3923bec73e23a9662efc9c229c6a00\n        /* \"@openzeppelin/contracts-upgradeable/proxy/utils/Initializable.sol\":8860:8891  $.slot := INITIALIZABLE_STORAGE */\n      swap1\n      pop\n        /* \"@openzeppelin/contracts-upgradeable/proxy/utils/Initializable.sol\":8737:8907  function _getInitializableStorage() private pure returns (InitializableStorage storage $) {... */\n      swap1\n      jump\t// out\n        /* \"@openzeppelin/contracts-upgradeable/access/OwnableUpgradeable.sol\":1847:1974  function __Ownable_init(address initialOwner) internal onlyInitializing {... */\n    tag_118:\n        /* \"@openzeppelin/contracts-upgradeable/proxy/utils/Initializable.sol\":6931:6951  _checkInitializing() */\n      tag_172\n        /* \"@openzeppelin/contracts-upgradeable/proxy/utils/Initializable.sol\":6931:6949  _checkInitializing */\n      tag_173\n        /* \"@openzeppelin/contracts-upgradeable/proxy/utils/Initializable.sol\":6931:6951  _checkInitializing() */\n      jump\t// in\n    tag_172:\n        /* \"@openzeppelin/contracts-upgradeable/access/OwnableUpgradeable.sol\":1929:1967  __Ownable_init_unchained(initialOwner) */\n      tag_175\n        /* \"@openzeppelin/contracts-upgradeable/access/OwnableUpgradeable.sol\":1954:1966  initialOwner */\n      dup2\n        /* \"@openzeppelin/contracts-upgradeable/access/OwnableUpgradeable.sol\":1929:1953  __Ownable_init_unchained */\n      tag_176\n        /* \"@openzeppelin/contracts-upgradeable/access/OwnableUpgradeable.sol\":1929:1967  __Ownable_init_unchained(initialOwner) */\n      jump\t// in\n    tag_175:\n        /* \"@openzeppelin/contracts-upgradeable/access/OwnableUpgradeable.sol\":1847:1974  function __Ownable_init(address initialOwner) internal onlyInitializing {... */\n      pop\n      jump\t// out\n        /* \"@openzeppelin/contracts-upgradeable/utils/ReentrancyGuardUpgradeable.sol\":2540:2651  function __ReentrancyGuard_init() internal onlyInitializing {... */\n    tag_120:\n        /* \"@openzeppelin/contracts-upgradeable/proxy/utils/Initializable.sol\":6931:6951  _checkInitializing() */\n      tag_178\n        /* \"@openzeppelin/contracts-upgradeable/proxy/utils/Initializable.sol\":6931:6949  _checkInitializing */\n      tag_173\n        /* \"@openzeppelin/contracts-upgradeable/proxy/utils/Initializable.sol\":6931:6951  _checkInitializing() */\n      jump\t// in\n    tag_178:\n        /* \"@openzeppelin/contracts-upgradeable/utils/ReentrancyGuardUpgradeable.sol\":2610:2644  __ReentrancyGuard_init_unchained() */\n      tag_180\n        /* \"@openzeppelin/contracts-upgradeable/utils/ReentrancyGuardUpgradeable.sol\":2610:2642  __ReentrancyGuard_init_unchained */\n      tag_181\n        /* \"@openzeppelin/contracts-upgradeable/utils/ReentrancyGuardUpgradeable.sol\":2610:2644  __ReentrancyGuard_init_unchained() */\n      jump\t// in\n    tag_180:\n        /* \"@openzeppelin/contracts-upgradeable/utils/ReentrancyGuardUpgradeable.sol\":2540:2651  function __ReentrancyGuard_init() internal onlyInitializing {... */\n      jump\t// out\n        /* \"@openzeppelin/contracts-upgradeable/utils/PausableUpgradeable.sol\":1836:1933  function __Pausable_init() internal onlyInitializing {... */\n    tag_122:\n        /* \"@openzeppelin/contracts-upgradeable/proxy/utils/Initializable.sol\":6931:6951  _checkInitializing() */\n      tag_183\n        /* \"@openzeppelin/contracts-upgradeable/proxy/utils/Initializable.sol\":6931:6949  _checkInitializing */\n      tag_173\n        /* \"@openzeppelin/contracts-upgradeable/proxy/utils/Initializable.sol\":6931:6951  _checkInitializing() */\n      jump\t// in\n    tag_183:\n        /* \"@openzeppelin/contracts-upgradeable/utils/PausableUpgradeable.sol\":1899:1926  __Pausable_init_unchained() */\n      tag_185\n        /* \"@openzeppelin/contracts-upgradeable/utils/PausableUpgradeable.sol\":1899:1924  __Pausable_init_unchained */\n      tag_186\n        /* \"@openzeppelin/contracts-upgradeable/utils/PausableUpgradeable.sol\":1899:1926  __Pausable_init_unchained() */\n      jump\t// in\n    tag_185:\n        /* \"@openzeppelin/contracts-upgradeable/utils/PausableUpgradeable.sol\":1836:1933  function __Pausable_init() internal onlyInitializing {... */\n      jump\t// out\n        /* \"@openzeppelin/contracts-upgradeable/utils/ReentrancyGuardUpgradeable.sol\":2251:2434  function _getReentrancyGuardStorage() private pure returns (ReentrancyGuardStorage storage $) {... */\n    tag_137:\n        /* \"@openzeppelin/contracts-upgradeable/utils/ReentrancyGuardUpgradeable.sol\":2311:2343  ReentrancyGuardStorage storage $ */\n      0x00\n        /* \"@openzeppelin/contracts-upgradeable/utils/ReentrancyGuardUpgradeable.sol\":2388:2418  ReentrancyGuardStorageLocation */\n      0x9b779b17422d0df92223018b32b4d1fa46e071723d6817e2486d003becc55f00\n        /* \"@openzeppelin/contracts-upgradeable/utils/ReentrancyGuardUpgradeable.sol\":2378:2418  $.slot := ReentrancyGuardStorageLocation */\n      swap1\n      pop\n        /* \"@openzeppelin/contracts-upgradeable/utils/ReentrancyGuardUpgradeable.sol\":2251:2434  function _getReentrancyGuardStorage() private pure returns (ReentrancyGuardStorage storage $) {... */\n      swap1\n      jump\t// out\n        /* \"@openzeppelin/contracts/token/ERC20/utils/SafeERC20.sol\":4059:4688  function _callOptionalReturn(IERC20 token, bytes memory data) private {... */\n    tag_143:\n        /* \"@openzeppelin/contracts/token/ERC20/utils/SafeERC20.sol\":4478:4501  bytes memory returndata */\n      0x00\n        /* \"@openzeppelin/contracts/token/ERC20/utils/SafeERC20.sol\":4504:4537  address(token).functionCall(data) */\n      tag_189\n        /* \"@openzeppelin/contracts/token/ERC20/utils/SafeERC20.sol\":4532:4536  data */\n      dup3\n        /* \"@openzeppelin/contracts/token/ERC20/utils/SafeERC20.sol\":4512:4517  token */\n      dup5\n        /* \"@openzeppelin/contracts/token/ERC20/utils/SafeERC20.sol\":4504:4531  address(token).functionCall */\n      0xffffffffffffffffffffffffffffffffffffffff\n      and\n      tag_190\n      swap1\n        /* \"@openzeppelin/contracts/token/ERC20/utils/SafeERC20.sol\":4504:4537  address(token).functionCall(data) */\n      swap2\n      swap1\n      0xffffffff\n      and\n      jump\t// in\n    tag_189:\n        /* \"@openzeppelin/contracts/token/ERC20/utils/SafeERC20.sol\":4478:4537  bytes memory returndata = address(token).functionCall(data) */\n      swap1\n      pop\n        /* \"@openzeppelin/contracts/token/ERC20/utils/SafeERC20.sol\":4572:4573  0 */\n      0x00\n        /* \"@openzeppelin/contracts/token/ERC20/utils/SafeERC20.sol\":4551:4561  returndata */\n      dup2\n        /* \"@openzeppelin/contracts/token/ERC20/utils/SafeERC20.sol\":4551:4568  returndata.length */\n      mload\n        /* \"@openzeppelin/contracts/token/ERC20/utils/SafeERC20.sol\":4551:4573  returndata.length != 0 */\n      eq\n      iszero\n        /* \"@openzeppelin/contracts/token/ERC20/utils/SafeERC20.sol\":4551:4608  returndata.length != 0 && !abi.decode(returndata, (bool)) */\n      dup1\n      iszero\n      tag_191\n      jumpi\n      pop\n        /* \"@openzeppelin/contracts/token/ERC20/utils/SafeERC20.sol\":4589:4599  returndata */\n      dup1\n        /* \"@openzeppelin/contracts/token/ERC20/utils/SafeERC20.sol\":4578:4608  abi.decode(returndata, (bool)) */\n      dup1\n      0x20\n      add\n      swap1\n      mload\n      dup2\n      add\n      swap1\n      tag_192\n      swap2\n      swap1\n      tag_193\n      jump\t// in\n    tag_192:\n        /* \"@openzeppelin/contracts/token/ERC20/utils/SafeERC20.sol\":4577:4608  !abi.decode(returndata, (bool)) */\n      iszero\n        /* \"@openzeppelin/contracts/token/ERC20/utils/SafeERC20.sol\":4551:4608  returndata.length != 0 && !abi.decode(returndata, (bool)) */\n    tag_191:\n        /* \"@openzeppelin/contracts/token/ERC20/utils/SafeERC20.sol\":4547:4682  if (returndata.length != 0 && !abi.decode(returndata, (bool))) {... */\n      iszero\n      tag_194\n      jumpi\n        /* \"@openzeppelin/contracts/token/ERC20/utils/SafeERC20.sol\":4664:4669  token */\n      dup3\n        /* \"@openzeppelin/contracts/token/ERC20/utils/SafeERC20.sol\":4631:4671  SafeERC20FailedOperation(address(token)) */\n      mload(0x40)\n      0x5274afe700000000000000000000000000000000000000000000000000000000\n      dup2\n      mstore\n      0x04\n      add\n      tag_195\n      swap2\n      swap1\n      tag_42\n      jump\t// in\n    tag_195:\n      mload(0x40)\n      dup1\n      swap2\n      sub\n      swap1\n      revert\n        /* \"@openzeppelin/contracts/token/ERC20/utils/SafeERC20.sol\":4547:4682  if (returndata.length != 0 && !abi.decode(returndata, (bool))) {... */\n    tag_194:\n        /* \"@openzeppelin/contracts/token/ERC20/utils/SafeERC20.sol\":4129:4688  {... */\n      pop\n        /* \"@openzeppelin/contracts/token/ERC20/utils/SafeERC20.sol\":4059:4688  function _callOptionalReturn(IERC20 token, bytes memory data) private {... */\n      pop\n      pop\n      jump\t// out\n        /* \"@openzeppelin/contracts-upgradeable/utils/ContextUpgradeable.sol\":887:983  function _msgSender() internal view virtual returns (address) {... */\n    tag_148:\n        /* \"@openzeppelin/contracts-upgradeable/utils/ContextUpgradeable.sol\":940:947  address */\n      0x00\n        /* \"@openzeppelin/contracts-upgradeable/utils/ContextUpgradeable.sol\":966:976  msg.sender */\n      caller\n        /* \"@openzeppelin/contracts-upgradeable/utils/ContextUpgradeable.sol\":959:976  return msg.sender */\n      swap1\n      pop\n        /* \"@openzeppelin/contracts-upgradeable/utils/ContextUpgradeable.sol\":887:983  function _msgSender() internal view virtual returns (address) {... */\n      swap1\n      jump\t// out\n        /* \"@openzeppelin/contracts-upgradeable/utils/PausableUpgradeable.sol\":3105:3231  function _requirePaused() internal view virtual {... */\n    tag_155:\n        /* \"@openzeppelin/contracts-upgradeable/utils/PausableUpgradeable.sol\":3168:3176  paused() */\n      tag_198\n        /* \"@openzeppelin/contracts-upgradeable/utils/PausableUpgradeable.sol\":3168:3174  paused */\n      tag_26\n        /* \"@openzeppelin/contracts-upgradeable/utils/PausableUpgradeable.sol\":3168:3176  paused() */\n      jump\t// in\n    tag_198:\n        /* \"@openzeppelin/contracts-upgradeable/utils/PausableUpgradeable.sol\":3163:3225  if (!paused()) {... */\n      tag_199\n      jumpi\n        /* \"@openzeppelin/contracts-upgradeable/utils/PausableUpgradeable.sol\":3199:3214  ExpectedPause() */\n      mload(0x40)\n      0x8dfc202b00000000000000000000000000000000000000000000000000000000\n      dup2\n      mstore\n      0x04\n      add\n      mload(0x40)\n      dup1\n      swap2\n      sub\n      swap1\n      revert\n        /* \"@openzeppelin/contracts-upgradeable/utils/PausableUpgradeable.sol\":3163:3225  if (!paused()) {... */\n    tag_199:\n        /* \"@openzeppelin/contracts-upgradeable/utils/PausableUpgradeable.sol\":3105:3231  function _requirePaused() internal view virtual {... */\n      jump\t// out\n        /* \"@openzeppelin/contracts-upgradeable/proxy/utils/Initializable.sol\":7084:7225  function _checkInitializing() internal view virtual {... */\n    tag_173:\n        /* \"@openzeppelin/contracts-upgradeable/proxy/utils/Initializable.sol\":7151:7168  _isInitializing() */\n      tag_201\n        /* \"@openzeppelin/contracts-upgradeable/proxy/utils/Initializable.sol\":7151:7166  _isInitializing */\n      tag_202\n        /* \"@openzeppelin/contracts-upgradeable/proxy/utils/Initializable.sol\":7151:7168  _isInitializing() */\n      jump\t// in\n    tag_201:\n        /* \"@openzeppelin/contracts-upgradeable/proxy/utils/Initializable.sol\":7146:7219  if (!_isInitializing()) {... */\n      tag_203\n      jumpi\n        /* \"@openzeppelin/contracts-upgradeable/proxy/utils/Initializable.sol\":7191:7208  NotInitializing() */\n      mload(0x40)\n      0xd7e6bcf800000000000000000000000000000000000000000000000000000000\n      dup2\n      mstore\n      0x04\n      add\n      mload(0x40)\n      dup1\n      swap2\n      sub\n      swap1\n      revert\n        /* \"@openzeppelin/contracts-upgradeable/proxy/utils/Initializable.sol\":7146:7219  if (!_isInitializing()) {... */\n    tag_203:\n        /* \"@openzeppelin/contracts-upgradeable/proxy/utils/Initializable.sol\":7084:7225  function _checkInitializing() internal view virtual {... */\n      jump\t// out\n        /* \"@openzeppelin/contracts-upgradeable/access/OwnableUpgradeable.sol\":1980:2215  function __Ownable_init_unchained(address initialOwner) internal onlyInitializing {... */\n    tag_176:\n        /* \"@openzeppelin/contracts-upgradeable/proxy/utils/Initializable.sol\":6931:6951  _checkInitializing() */\n      tag_205\n        /* \"@openzeppelin/contracts-upgradeable/proxy/utils/Initializable.sol\":6931:6949  _checkInitializing */\n      tag_173\n        /* \"@openzeppelin/contracts-upgradeable/proxy/utils/Initializable.sol\":6931:6951  _checkInitializing() */\n      jump\t// in\n    tag_205:\n        /* \"@openzeppelin/contracts-upgradeable/access/OwnableUpgradeable.sol\":2100:2101  0 */\n      0x00\n        /* \"@openzeppelin/contracts-upgradeable/access/OwnableUpgradeable.sol\":2076:2102  initialOwner == address(0) */\n      0xffffffffffffffffffffffffffffffffffffffff\n      and\n        /* \"@openzeppelin/contracts-upgradeable/access/OwnableUpgradeable.sol\":2076:2088  initialOwner */\n      dup2\n        /* \"@openzeppelin/contracts-upgradeable/access/OwnableUpgradeable.sol\":2076:2102  initialOwner == address(0) */\n      0xffffffffffffffffffffffffffffffffffffffff\n      and\n      sub\n        /* \"@openzeppelin/contracts-upgradeable/access/OwnableUpgradeable.sol\":2072:2167  if (initialOwner == address(0)) {... */\n      tag_207\n      jumpi\n        /* \"@openzeppelin/contracts-upgradeable/access/OwnableUpgradeable.sol\":2153:2154  0 */\n      0x00\n        /* \"@openzeppelin/contracts-upgradeable/access/OwnableUpgradeable.sol\":2125:2156  OwnableInvalidOwner(address(0)) */\n      mload(0x40)\n      0x1e4fbdf700000000000000000000000000000000000000000000000000000000\n      dup2\n      mstore\n      0x04\n      add\n      tag_208\n      swap2\n      swap1\n      tag_42\n      jump\t// in\n    tag_208:\n      mload(0x40)\n      dup1\n      swap2\n      sub\n      swap1\n      revert\n        /* \"@openzeppelin/contracts-upgradeable/access/OwnableUpgradeable.sol\":2072:2167  if (initialOwner == address(0)) {... */\n    tag_207:\n        /* \"@openzeppelin/contracts-upgradeable/access/OwnableUpgradeable.sol\":2176:2208  _transferOwnership(initialOwner) */\n      tag_209\n        /* \"@openzeppelin/contracts-upgradeable/access/OwnableUpgradeable.sol\":2195:2207  initialOwner */\n      dup2\n        /* \"@openzeppelin/contracts-upgradeable/access/OwnableUpgradeable.sol\":2176:2194  _transferOwnership */\n      tag_92\n        /* \"@openzeppelin/contracts-upgradeable/access/OwnableUpgradeable.sol\":2176:2208  _transferOwnership(initialOwner) */\n      jump\t// in\n    tag_209:\n        /* \"@openzeppelin/contracts-upgradeable/access/OwnableUpgradeable.sol\":1980:2215  function __Ownable_init_unchained(address initialOwner) internal onlyInitializing {... */\n      pop\n      jump\t// out\n        /* \"@openzeppelin/contracts-upgradeable/utils/ReentrancyGuardUpgradeable.sol\":2657:2840  function __ReentrancyGuard_init_unchained() internal onlyInitializing {... */\n    tag_181:\n        /* \"@openzeppelin/contracts-upgradeable/proxy/utils/Initializable.sol\":6931:6951  _checkInitializing() */\n      tag_211\n        /* \"@openzeppelin/contracts-upgradeable/proxy/utils/Initializable.sol\":6931:6949  _checkInitializing */\n      tag_173\n        /* \"@openzeppelin/contracts-upgradeable/proxy/utils/Initializable.sol\":6931:6951  _checkInitializing() */\n      jump\t// in\n    tag_211:\n        /* \"@openzeppelin/contracts-upgradeable/utils/ReentrancyGuardUpgradeable.sol\":2737:2769  ReentrancyGuardStorage storage $ */\n      0x00\n        /* \"@openzeppelin/contracts-upgradeable/utils/ReentrancyGuardUpgradeable.sol\":2772:2800  _getReentrancyGuardStorage() */\n      tag_213\n        /* \"@openzeppelin/contracts-upgradeable/utils/ReentrancyGuardUpgradeable.sol\":2772:2798  _getReentrancyGuardStorage */\n      tag_137\n        /* \"@openzeppelin/contracts-upgradeable/utils/ReentrancyGuardUpgradeable.sol\":2772:2800  _getReentrancyGuardStorage() */\n      jump\t// in\n    tag_213:\n        /* \"@openzeppelin/contracts-upgradeable/utils/ReentrancyGuardUpgradeable.sol\":2737:2800  ReentrancyGuardStorage storage $ = _getReentrancyGuardStorage() */\n      swap1\n      pop\n        /* \"@openzeppelin/contracts-upgradeable/utils/ReentrancyGuardUpgradeable.sol\":1805:1806  1 */\n      0x01\n        /* \"@openzeppelin/contracts-upgradeable/utils/ReentrancyGuardUpgradeable.sol\":2810:2811  $ */\n      dup2\n        /* \"@openzeppelin/contracts-upgradeable/utils/ReentrancyGuardUpgradeable.sol\":2810:2819  $._status */\n      0x00\n      add\n        /* \"@openzeppelin/contracts-upgradeable/utils/ReentrancyGuardUpgradeable.sol\":2810:2833  $._status = NOT_ENTERED */\n      dup2\n      swap1\n      sstore\n      pop\n        /* \"@openzeppelin/contracts-upgradeable/utils/ReentrancyGuardUpgradeable.sol\":2727:2840  {... */\n      pop\n        /* \"@openzeppelin/contracts-upgradeable/utils/ReentrancyGuardUpgradeable.sol\":2657:2840  function __ReentrancyGuard_init_unchained() internal onlyInitializing {... */\n      jump\t// out\n        /* \"@openzeppelin/contracts-upgradeable/utils/PausableUpgradeable.sol\":1939:2095  function __Pausable_init_unchained() internal onlyInitializing {... */\n    tag_186:\n        /* \"@openzeppelin/contracts-upgradeable/proxy/utils/Initializable.sol\":6931:6951  _checkInitializing() */\n      tag_215\n        /* \"@openzeppelin/contracts-upgradeable/proxy/utils/Initializable.sol\":6931:6949  _checkInitializing */\n      tag_173\n        /* \"@openzeppelin/contracts-upgradeable/proxy/utils/Initializable.sol\":6931:6951  _checkInitializing() */\n      jump\t// in\n    tag_215:\n        /* \"@openzeppelin/contracts-upgradeable/utils/PausableUpgradeable.sol\":2012:2037  PausableStorage storage $ */\n      0x00\n        /* \"@openzeppelin/contracts-upgradeable/utils/PausableUpgradeable.sol\":2040:2061  _getPausableStorage() */\n      tag_217\n        /* \"@openzeppelin/contracts-upgradeable/utils/PausableUpgradeable.sol\":2040:2059  _getPausableStorage */\n      tag_87\n        /* \"@openzeppelin/contracts-upgradeable/utils/PausableUpgradeable.sol\":2040:2061  _getPausableStorage() */\n      jump\t// in\n    tag_217:\n        /* \"@openzeppelin/contracts-upgradeable/utils/PausableUpgradeable.sol\":2012:2061  PausableStorage storage $ = _getPausableStorage() */\n      swap1\n      pop\n        /* \"@openzeppelin/contracts-upgradeable/utils/PausableUpgradeable.sol\":2083:2088  false */\n      0x00\n        /* \"@openzeppelin/contracts-upgradeable/utils/PausableUpgradeable.sol\":2071:2072  $ */\n      dup2\n        /* \"@openzeppelin/contracts-upgradeable/utils/PausableUpgradeable.sol\":2071:2080  $._paused */\n      0x00\n      add\n      0x00\n        /* \"@openzeppelin/contracts-upgradeable/utils/PausableUpgradeable.sol\":2071:2088  $._paused = false */\n      0x0100\n      exp\n      dup2\n      sload\n      dup2\n      0xff\n      mul\n      not\n      and\n      swap1\n      dup4\n      iszero\n      iszero\n      mul\n      or\n      swap1\n      sstore\n      pop\n        /* \"@openzeppelin/contracts-upgradeable/utils/PausableUpgradeable.sol\":2002:2095  {... */\n      pop\n        /* \"@openzeppelin/contracts-upgradeable/utils/PausableUpgradeable.sol\":1939:2095  function __Pausable_init_unchained() internal onlyInitializing {... */\n      jump\t// out\n        /* \"@openzeppelin/contracts/utils/Address.sol\":2705:2856  function functionCall(address target, bytes memory data) internal returns (bytes memory) {... */\n    tag_190:\n        /* \"@openzeppelin/contracts/utils/Address.sol\":2780:2792  bytes memory */\n      0x60\n        /* \"@openzeppelin/contracts/utils/Address.sol\":2811:2849  functionCallWithValue(target, data, 0) */\n      tag_219\n        /* \"@openzeppelin/contracts/utils/Address.sol\":2833:2839  target */\n      dup4\n        /* \"@openzeppelin/contracts/utils/Address.sol\":2841:2845  data */\n      dup4\n        /* \"@openzeppelin/contracts/utils/Address.sol\":2847:2848  0 */\n      0x00\n        /* \"@openzeppelin/contracts/utils/Address.sol\":2811:2832  functionCallWithValue */\n      tag_220\n        /* \"@openzeppelin/contracts/utils/Address.sol\":2811:2849  functionCallWithValue(target, data, 0) */\n      jump\t// in\n    tag_219:\n        /* \"@openzeppelin/contracts/utils/Address.sol\":2804:2849  return functionCallWithValue(target, data, 0) */\n      swap1\n      pop\n        /* \"@openzeppelin/contracts/utils/Address.sol\":2705:2856  function functionCall(address target, bytes memory data) internal returns (bytes memory) {... */\n      swap3\n      swap2\n      pop\n      pop\n      jump\t// out\n        /* \"@openzeppelin/contracts-upgradeable/proxy/utils/Initializable.sol\":8487:8607  function _isInitializing() internal view returns (bool) {... */\n    tag_202:\n        /* \"@openzeppelin/contracts-upgradeable/proxy/utils/Initializable.sol\":8537:8541  bool */\n      0x00\n        /* \"@openzeppelin/contracts-upgradeable/proxy/utils/Initializable.sol\":8560:8586  _getInitializableStorage() */\n      tag_222\n        /* \"@openzeppelin/contracts-upgradeable/proxy/utils/Initializable.sol\":8560:8584  _getInitializableStorage */\n      tag_110\n        /* \"@openzeppelin/contracts-upgradeable/proxy/utils/Initializable.sol\":8560:8586  _getInitializableStorage() */\n      jump\t// in\n    tag_222:\n        /* \"@openzeppelin/contracts-upgradeable/proxy/utils/Initializable.sol\":8560:8600  _getInitializableStorage()._initializing */\n      0x00\n      add\n      0x08\n      swap1\n      sload\n      swap1\n      0x0100\n      exp\n      swap1\n      div\n      0xff\n      and\n        /* \"@openzeppelin/contracts-upgradeable/proxy/utils/Initializable.sol\":8553:8600  return _getInitializableStorage()._initializing */\n      swap1\n      pop\n        /* \"@openzeppelin/contracts-upgradeable/proxy/utils/Initializable.sol\":8487:8607  function _isInitializing() internal view returns (bool) {... */\n      swap1\n      jump\t// out\n        /* \"@openzeppelin/contracts/utils/Address.sol\":3180:3572  function functionCallWithValue(address target, bytes memory data, uint256 value) internal returns (bytes memory) {... */\n    tag_220:\n        /* \"@openzeppelin/contracts/utils/Address.sol\":3279:3291  bytes memory */\n      0x60\n        /* \"@openzeppelin/contracts/utils/Address.sol\":3331:3336  value */\n      dup2\n        /* \"@openzeppelin/contracts/utils/Address.sol\":3307:3328  address(this).balance */\n      selfbalance\n        /* \"@openzeppelin/contracts/utils/Address.sol\":3307:3336  address(this).balance < value */\n      lt\n        /* \"@openzeppelin/contracts/utils/Address.sol\":3303:3411  if (address(this).balance < value) {... */\n      iszero\n      tag_224\n      jumpi\n        /* \"@openzeppelin/contracts/utils/Address.sol\":3394:3398  this */\n      address\n        /* \"@openzeppelin/contracts/utils/Address.sol\":3359:3400  AddressInsufficientBalance(address(this)) */\n      mload(0x40)\n      0xcd78605900000000000000000000000000000000000000000000000000000000\n      dup2\n      mstore\n      0x04\n      add\n      tag_225\n      swap2\n      swap1\n      tag_42\n      jump\t// in\n    tag_225:\n      mload(0x40)\n      dup1\n      swap2\n      sub\n      swap1\n      revert\n        /* \"@openzeppelin/contracts/utils/Address.sol\":3303:3411  if (address(this).balance < value) {... */\n    tag_224:\n        /* \"@openzeppelin/contracts/utils/Address.sol\":3421:3433  bool success */\n      0x00\n        /* \"@openzeppelin/contracts/utils/Address.sol\":3435:3458  bytes memory returndata */\n      dup1\n        /* \"@openzeppelin/contracts/utils/Address.sol\":3462:3468  target */\n      dup6\n        /* \"@openzeppelin/contracts/utils/Address.sol\":3462:3473  target.call */\n      0xffffffffffffffffffffffffffffffffffffffff\n      and\n        /* \"@openzeppelin/contracts/utils/Address.sol\":3481:3486  value */\n      dup5\n        /* \"@openzeppelin/contracts/utils/Address.sol\":3488:3492  data */\n      dup7\n        /* \"@openzeppelin/contracts/utils/Address.sol\":3462:3493  target.call{value: value}(data) */\n      mload(0x40)\n      tag_226\n      swap2\n      swap1\n      tag_227\n      jump\t// in\n    tag_226:\n      0x00\n      mload(0x40)\n      dup1\n      dup4\n      sub\n      dup2\n      dup6\n      dup8\n      gas\n      call\n      swap3\n      pop\n      pop\n      pop\n      returndatasize\n      dup1\n      0x00\n      dup2\n      eq\n      tag_230\n      jumpi\n      mload(0x40)\n      swap2\n      pop\n      and(add(returndatasize, 0x3f), not(0x1f))\n      dup3\n      add\n      0x40\n      mstore\n      returndatasize\n      dup3\n      mstore\n      returndatasize\n      0x00\n      0x20\n      dup5\n      add\n      returndatacopy\n      jump(tag_229)\n    tag_230:\n      0x60\n      swap2\n      pop\n    tag_229:\n      pop\n        /* \"@openzeppelin/contracts/utils/Address.sol\":3420:3493  (bool success, bytes memory returndata) = target.call{value: value}(data) */\n      swap2\n      pop\n      swap2\n      pop\n        /* \"@openzeppelin/contracts/utils/Address.sol\":3510:3565  verifyCallResultFromTarget(target, success, returndata) */\n      tag_231\n        /* \"@openzeppelin/contracts/utils/Address.sol\":3537:3543  target */\n      dup7\n        /* \"@openzeppelin/contracts/utils/Address.sol\":3545:3552  success */\n      dup4\n        /* \"@openzeppelin/contracts/utils/Address.sol\":3554:3564  returndata */\n      dup4\n        /* \"@openzeppelin/contracts/utils/Address.sol\":3510:3536  verifyCallResultFromTarget */\n      tag_232\n        /* \"@openzeppelin/contracts/utils/Address.sol\":3510:3565  verifyCallResultFromTarget(target, success, returndata) */\n      jump\t// in\n    tag_231:\n        /* \"@openzeppelin/contracts/utils/Address.sol\":3503:3565  return verifyCallResultFromTarget(target, success, returndata) */\n      swap3\n      pop\n      pop\n      pop\n        /* \"@openzeppelin/contracts/utils/Address.sol\":3180:3572  function functionCallWithValue(address target, bytes memory data, uint256 value) internal returns (bytes memory) {... */\n      swap4\n      swap3\n      pop\n      pop\n      pop\n      jump\t// out\n        /* \"@openzeppelin/contracts/utils/Address.sol\":4625:5207  function verifyCallResultFromTarget(... */\n    tag_232:\n        /* \"@openzeppelin/contracts/utils/Address.sol\":4769:4781  bytes memory */\n      0x60\n        /* \"@openzeppelin/contracts/utils/Address.sol\":4798:4805  success */\n      dup3\n        /* \"@openzeppelin/contracts/utils/Address.sol\":4793:5201  if (!success) {... */\n      tag_234\n      jumpi\n        /* \"@openzeppelin/contracts/utils/Address.sol\":4821:4840  _revert(returndata) */\n      tag_235\n        /* \"@openzeppelin/contracts/utils/Address.sol\":4829:4839  returndata */\n      dup3\n        /* \"@openzeppelin/contracts/utils/Address.sol\":4821:4828  _revert */\n      tag_236\n        /* \"@openzeppelin/contracts/utils/Address.sol\":4821:4840  _revert(returndata) */\n      jump\t// in\n    tag_235:\n        /* \"@openzeppelin/contracts/utils/Address.sol\":4793:5201  if (!success) {... */\n      jump(tag_237)\n    tag_234:\n        /* \"@openzeppelin/contracts/utils/Address.sol\":5066:5067  0 */\n      0x00\n        /* \"@openzeppelin/contracts/utils/Address.sol\":5045:5055  returndata */\n      dup3\n        /* \"@openzeppelin/contracts/utils/Address.sol\":5045:5062  returndata.length */\n      mload\n        /* \"@openzeppelin/contracts/utils/Address.sol\":5045:5067  returndata.length == 0 */\n      eq\n        /* \"@openzeppelin/contracts/utils/Address.sol\":5045:5094  returndata.length == 0 && target.code.length == 0 */\n      dup1\n      iszero\n      tag_238\n      jumpi\n      pop\n        /* \"@openzeppelin/contracts/utils/Address.sol\":5093:5094  0 */\n      0x00\n        /* \"@openzeppelin/contracts/utils/Address.sol\":5071:5077  target */\n      dup5\n        /* \"@openzeppelin/contracts/utils/Address.sol\":5071:5089  target.code.length */\n      0xffffffffffffffffffffffffffffffffffffffff\n      and\n      extcodesize\n        /* \"@openzeppelin/contracts/utils/Address.sol\":5071:5094  target.code.length == 0 */\n      eq\n        /* \"@openzeppelin/contracts/utils/Address.sol\":5045:5094  returndata.length == 0 && target.code.length == 0 */\n    tag_238:\n        /* \"@openzeppelin/contracts/utils/Address.sol\":5041:5160  if (returndata.length == 0 && target.code.length == 0) {... */\n      iszero\n      tag_239\n      jumpi\n        /* \"@openzeppelin/contracts/utils/Address.sol\":5138:5144  target */\n      dup4\n        /* \"@openzeppelin/contracts/utils/Address.sol\":5121:5145  AddressEmptyCode(target) */\n      mload(0x40)\n      0x9996b31500000000000000000000000000000000000000000000000000000000\n      dup2\n      mstore\n      0x04\n      add\n      tag_240\n      swap2\n      swap1\n      tag_42\n      jump\t// in\n    tag_240:\n      mload(0x40)\n      dup1\n      swap2\n      sub\n      swap1\n      revert\n        /* \"@openzeppelin/contracts/utils/Address.sol\":5041:5160  if (returndata.length == 0 && target.code.length == 0) {... */\n    tag_239:\n        /* \"@openzeppelin/contracts/utils/Address.sol\":5180:5190  returndata */\n      dup2\n        /* \"@openzeppelin/contracts/utils/Address.sol\":5173:5190  return returndata */\n      swap1\n      pop\n      jump(tag_233)\n        /* \"@openzeppelin/contracts/utils/Address.sol\":4793:5201  if (!success) {... */\n    tag_237:\n        /* \"@openzeppelin/contracts/utils/Address.sol\":4625:5207  function verifyCallResultFromTarget(... */\n    tag_233:\n      swap4\n      swap3\n      pop\n      pop\n      pop\n      jump\t// out\n        /* \"@openzeppelin/contracts/utils/Address.sol\":5743:6259  function _revert(bytes memory returndata) private pure {... */\n    tag_236:\n        /* \"@openzeppelin/contracts/utils/Address.sol\":5894:5895  0 */\n      0x00\n        /* \"@openzeppelin/contracts/utils/Address.sol\":5874:5884  returndata */\n      dup2\n        /* \"@openzeppelin/contracts/utils/Address.sol\":5874:5891  returndata.length */\n      mload\n        /* \"@openzeppelin/contracts/utils/Address.sol\":5874:5895  returndata.length > 0 */\n      gt\n        /* \"@openzeppelin/contracts/utils/Address.sol\":5870:6253  if (returndata.length > 0) {... */\n      iszero\n      tag_242\n      jumpi\n        /* \"@openzeppelin/contracts/utils/Address.sol\":6102:6112  returndata */\n      dup1\n        /* \"@openzeppelin/contracts/utils/Address.sol\":6096:6113  mload(returndata) */\n      mload\n        /* \"@openzeppelin/contracts/utils/Address.sol\":6158:6173  returndata_size */\n      dup1\n        /* \"@openzeppelin/contracts/utils/Address.sol\":6145:6155  returndata */\n      dup3\n        /* \"@openzeppelin/contracts/utils/Address.sol\":6141:6143  32 */\n      0x20\n        /* \"@openzeppelin/contracts/utils/Address.sol\":6137:6156  add(32, returndata) */\n      add\n        /* \"@openzeppelin/contracts/utils/Address.sol\":6130:6174  revert(add(32, returndata), returndata_size) */\n      revert\n        /* \"@openzeppelin/contracts/utils/Address.sol\":5870:6253  if (returndata.length > 0) {... */\n    tag_242:\n        /* \"@openzeppelin/contracts/utils/Address.sol\":6225:6242  FailedInnerCall() */\n      mload(0x40)\n      0x1425ea4200000000000000000000000000000000000000000000000000000000\n      dup2\n      mstore\n      0x04\n      add\n      mload(0x40)\n      dup1\n      swap2\n      sub\n      swap1\n      revert\n        /* \"#utility.yul\":88:205   */\n    tag_245:\n        /* \"#utility.yul\":197:198   */\n      0x00\n        /* \"#utility.yul\":194:195   */\n      dup1\n        /* \"#utility.yul\":187:199   */\n      revert\n        /* \"#utility.yul\":334:460   */\n    tag_247:\n        /* \"#utility.yul\":371:378   */\n      0x00\n        /* \"#utility.yul\":411:453   */\n      0xffffffffffffffffffffffffffffffffffffffff\n        /* \"#utility.yul\":404:409   */\n      dup3\n        /* \"#utility.yul\":400:454   */\n      and\n        /* \"#utility.yul\":389:454   */\n      swap1\n      pop\n        /* \"#utility.yul\":334:460   */\n      swap2\n      swap1\n      pop\n      jump\t// out\n        /* \"#utility.yul\":466:562   */\n    tag_248:\n        /* \"#utility.yul\":503:510   */\n      0x00\n        /* \"#utility.yul\":532:556   */\n      tag_278\n        /* \"#utility.yul\":550:555   */\n      dup3\n        /* \"#utility.yul\":532:556   */\n      tag_247\n      jump\t// in\n    tag_278:\n        /* \"#utility.yul\":521:556   */\n      swap1\n      pop\n        /* \"#utility.yul\":466:562   */\n      swap2\n      swap1\n      pop\n      jump\t// out\n        /* \"#utility.yul\":568:690   */\n    tag_249:\n        /* \"#utility.yul\":641:665   */\n      tag_280\n        /* \"#utility.yul\":659:664   */\n      dup2\n        /* \"#utility.yul\":641:665   */\n      tag_248\n      jump\t// in\n    tag_280:\n        /* \"#utility.yul\":634:639   */\n      dup2\n        /* \"#utility.yul\":631:666   */\n      eq\n        /* \"#utility.yul\":621:684   */\n      tag_281\n      jumpi\n        /* \"#utility.yul\":680:681   */\n      0x00\n        /* \"#utility.yul\":677:678   */\n      dup1\n        /* \"#utility.yul\":670:682   */\n      revert\n        /* \"#utility.yul\":621:684   */\n    tag_281:\n        /* \"#utility.yul\":568:690   */\n      pop\n      jump\t// out\n        /* \"#utility.yul\":696:835   */\n    tag_250:\n        /* \"#utility.yul\":742:747   */\n      0x00\n        /* \"#utility.yul\":780:786   */\n      dup2\n        /* \"#utility.yul\":767:787   */\n      calldataload\n        /* \"#utility.yul\":758:787   */\n      swap1\n      pop\n        /* \"#utility.yul\":796:829   */\n      tag_283\n        /* \"#utility.yul\":823:828   */\n      dup2\n        /* \"#utility.yul\":796:829   */\n      tag_249\n      jump\t// in\n    tag_283:\n        /* \"#utility.yul\":696:835   */\n      swap3\n      swap2\n      pop\n      pop\n      jump\t// out\n        /* \"#utility.yul\":841:918   */\n    tag_251:\n        /* \"#utility.yul\":878:885   */\n      0x00\n        /* \"#utility.yul\":907:912   */\n      dup2\n        /* \"#utility.yul\":896:912   */\n      swap1\n      pop\n        /* \"#utility.yul\":841:918   */\n      swap2\n      swap1\n      pop\n      jump\t// out\n        /* \"#utility.yul\":924:1046   */\n    tag_252:\n        /* \"#utility.yul\":997:1021   */\n      tag_286\n        /* \"#utility.yul\":1015:1020   */\n      dup2\n        /* \"#utility.yul\":997:1021   */\n      tag_251\n      jump\t// in\n    tag_286:\n        /* \"#utility.yul\":990:995   */\n      dup2\n        /* \"#utility.yul\":987:1022   */\n      eq\n        /* \"#utility.yul\":977:1040   */\n      tag_287\n      jumpi\n        /* \"#utility.yul\":1036:1037   */\n      0x00\n        /* \"#utility.yul\":1033:1034   */\n      dup1\n        /* \"#utility.yul\":1026:1038   */\n      revert\n        /* \"#utility.yul\":977:1040   */\n    tag_287:\n        /* \"#utility.yul\":924:1046   */\n      pop\n      jump\t// out\n        /* \"#utility.yul\":1052:1191   */\n    tag_253:\n        /* \"#utility.yul\":1098:1103   */\n      0x00\n        /* \"#utility.yul\":1136:1142   */\n      dup2\n        /* \"#utility.yul\":1123:1143   */\n      calldataload\n        /* \"#utility.yul\":1114:1143   */\n      swap1\n      pop\n        /* \"#utility.yul\":1152:1185   */\n      tag_289\n        /* \"#utility.yul\":1179:1184   */\n      dup2\n        /* \"#utility.yul\":1152:1185   */\n      tag_252\n      jump\t// in\n    tag_289:\n        /* \"#utility.yul\":1052:1191   */\n      swap3\n      swap2\n      pop\n      pop\n      jump\t// out\n        /* \"#utility.yul\":1197:2254   */\n    tag_17:\n        /* \"#utility.yul\":1301:1307   */\n      0x00\n        /* \"#utility.yul\":1309:1315   */\n      dup1\n        /* \"#utility.yul\":1317:1323   */\n      0x00\n        /* \"#utility.yul\":1325:1331   */\n      dup1\n        /* \"#utility.yul\":1333:1339   */\n      0x00\n        /* \"#utility.yul\":1341:1347   */\n      dup1\n        /* \"#utility.yul\":1390:1393   */\n      0xc0\n        /* \"#utility.yul\":1378:1387   */\n      dup8\n        /* \"#utility.yul\":1369:1376   */\n      dup10\n        /* \"#utility.yul\":1365:1388   */\n      sub\n        /* \"#utility.yul\":1361:1394   */\n      slt\n        /* \"#utility.yul\":1358:1478   */\n      iszero\n      tag_291\n      jumpi\n        /* \"#utility.yul\":1397:1476   */\n      tag_292\n      tag_245\n      jump\t// in\n    tag_292:\n        /* \"#utility.yul\":1358:1478   */\n    tag_291:\n        /* \"#utility.yul\":1517:1518   */\n      0x00\n        /* \"#utility.yul\":1542:1595   */\n      tag_293\n        /* \"#utility.yul\":1587:1594   */\n      dup10\n        /* \"#utility.yul\":1578:1584   */\n      dup3\n        /* \"#utility.yul\":1567:1576   */\n      dup11\n        /* \"#utility.yul\":1563:1585   */\n      add\n        /* \"#utility.yul\":1542:1595   */\n      tag_250\n      jump\t// in\n    tag_293:\n        /* \"#utility.yul\":1532:1595   */\n      swap7\n      pop\n        /* \"#utility.yul\":1488:1605   */\n      pop\n        /* \"#utility.yul\":1644:1646   */\n      0x20\n        /* \"#utility.yul\":1670:1723   */\n      tag_294\n        /* \"#utility.yul\":1715:1722   */\n      dup10\n        /* \"#utility.yul\":1706:1712   */\n      dup3\n        /* \"#utility.yul\":1695:1704   */\n      dup11\n        /* \"#utility.yul\":1691:1713   */\n      add\n        /* \"#utility.yul\":1670:1723   */\n      tag_250\n      jump\t// in\n    tag_294:\n        /* \"#utility.yul\":1660:1723   */\n      swap6\n      pop\n        /* \"#utility.yul\":1615:1733   */\n      pop\n        /* \"#utility.yul\":1772:1774   */\n      0x40\n        /* \"#utility.yul\":1798:1851   */\n      tag_295\n        /* \"#utility.yul\":1843:1850   */\n      dup10\n        /* \"#utility.yul\":1834:1840   */\n      dup3\n        /* \"#utility.yul\":1823:1832   */\n      dup11\n        /* \"#utility.yul\":1819:1841   */\n      add\n        /* \"#utility.yul\":1798:1851   */\n      tag_253\n      jump\t// in\n    tag_295:\n        /* \"#utility.yul\":1788:1851   */\n      swap5\n      pop\n        /* \"#utility.yul\":1743:1861   */\n      pop\n        /* \"#utility.yul\":1900:1902   */\n      0x60\n        /* \"#utility.yul\":1926:1979   */\n      tag_296\n        /* \"#utility.yul\":1971:1978   */\n      dup10\n        /* \"#utility.yul\":1962:1968   */\n      dup3\n        /* \"#utility.yul\":1951:1960   */\n      dup11\n        /* \"#utility.yul\":1947:1969   */\n      add\n        /* \"#utility.yul\":1926:1979   */\n      tag_253\n      jump\t// in\n    tag_296:\n        /* \"#utility.yul\":1916:1979   */\n      swap4\n      pop\n        /* \"#utility.yul\":1871:1989   */\n      pop\n        /* \"#utility.yul\":2028:2031   */\n      0x80\n        /* \"#utility.yul\":2055:2108   */\n      tag_297\n        /* \"#utility.yul\":2100:2107   */\n      dup10\n        /* \"#utility.yul\":2091:2097   */\n      dup3\n        /* \"#utility.yul\":2080:2089   */\n      dup11\n        /* \"#utility.yul\":2076:2098   */\n      add\n        /* \"#utility.yul\":2055:2108   */\n      tag_253\n      jump\t// in\n    tag_297:\n        /* \"#utility.yul\":2045:2108   */\n      swap3\n      pop\n        /* \"#utility.yul\":1999:2118   */\n      pop\n        /* \"#utility.yul\":2157:2160   */\n      0xa0\n        /* \"#utility.yul\":2184:2237   */\n      tag_298\n        /* \"#utility.yul\":2229:2236   */\n      dup10\n        /* \"#utility.yul\":2220:2226   */\n      dup3\n        /* \"#utility.yul\":2209:2218   */\n      dup11\n        /* \"#utility.yul\":2205:2227   */\n      add\n        /* \"#utility.yul\":2184:2237   */\n      tag_253\n      jump\t// in\n    tag_298:\n        /* \"#utility.yul\":2174:2237   */\n      swap2\n      pop\n        /* \"#utility.yul\":2128:2247   */\n      pop\n        /* \"#utility.yul\":1197:2254   */\n      swap3\n      swap6\n      pop\n      swap3\n      swap6\n      pop\n      swap3\n      swap6\n      jump\t// out\n        /* \"#utility.yul\":2260:2589   */\n    tag_21:\n        /* \"#utility.yul\":2319:2325   */\n      0x00\n        /* \"#utility.yul\":2368:2370   */\n      0x20\n        /* \"#utility.yul\":2356:2365   */\n      dup3\n        /* \"#utility.yul\":2347:2354   */\n      dup5\n        /* \"#utility.yul\":2343:2366   */\n      sub\n        /* \"#utility.yul\":2339:2371   */\n      slt\n        /* \"#utility.yul\":2336:2455   */\n      iszero\n      tag_300\n      jumpi\n        /* \"#utility.yul\":2374:2453   */\n      tag_301\n      tag_245\n      jump\t// in\n    tag_301:\n        /* \"#utility.yul\":2336:2455   */\n    tag_300:\n        /* \"#utility.yul\":2494:2495   */\n      0x00\n        /* \"#utility.yul\":2519:2572   */\n      tag_302\n        /* \"#utility.yul\":2564:2571   */\n      dup5\n        /* \"#utility.yul\":2555:2561   */\n      dup3\n        /* \"#utility.yul\":2544:2553   */\n      dup6\n        /* \"#utility.yul\":2540:2562   */\n      add\n        /* \"#utility.yul\":2519:2572   */\n      tag_253\n      jump\t// in\n    tag_302:\n        /* \"#utility.yul\":2509:2572   */\n      swap2\n      pop\n        /* \"#utility.yul\":2465:2582   */\n      pop\n        /* \"#utility.yul\":2260:2589   */\n      swap3\n      swap2\n      pop\n      pop\n      jump\t// out\n        /* \"#utility.yul\":2595:2685   */\n    tag_254:\n        /* \"#utility.yul\":2629:2636   */\n      0x00\n        /* \"#utility.yul\":2672:2677   */\n      dup2\n        /* \"#utility.yul\":2665:2678   */\n      iszero\n        /* \"#utility.yul\":2658:2679   */\n      iszero\n        /* \"#utility.yul\":2647:2679   */\n      swap1\n      pop\n        /* \"#utility.yul\":2595:2685   */\n      swap2\n      swap1\n      pop\n      jump\t// out\n        /* \"#utility.yul\":2691:2800   */\n    tag_255:\n        /* \"#utility.yul\":2772:2793   */\n      tag_305\n        /* \"#utility.yul\":2787:2792   */\n      dup2\n        /* \"#utility.yul\":2772:2793   */\n      tag_254\n      jump\t// in\n    tag_305:\n        /* \"#utility.yul\":2767:2770   */\n      dup3\n        /* \"#utility.yul\":2760:2794   */\n      mstore\n        /* \"#utility.yul\":2691:2800   */\n      pop\n      pop\n      jump\t// out\n        /* \"#utility.yul\":2806:3016   */\n    tag_28:\n        /* \"#utility.yul\":2893:2897   */\n      0x00\n        /* \"#utility.yul\":2931:2933   */\n      0x20\n        /* \"#utility.yul\":2920:2929   */\n      dup3\n        /* \"#utility.yul\":2916:2934   */\n      add\n        /* \"#utility.yul\":2908:2934   */\n      swap1\n      pop\n        /* \"#utility.yul\":2944:3009   */\n      tag_307\n        /* \"#utility.yul\":3006:3007   */\n      0x00\n        /* \"#utility.yul\":2995:3004   */\n      dup4\n        /* \"#utility.yul\":2991:3008   */\n      add\n        /* \"#utility.yul\":2982:2988   */\n      dup5\n        /* \"#utility.yul\":2944:3009   */\n      tag_255\n      jump\t// in\n    tag_307:\n        /* \"#utility.yul\":2806:3016   */\n      swap3\n      swap2\n      pop\n      pop\n      jump\t// out\n        /* \"#utility.yul\":3022:3496   */\n    tag_35:\n        /* \"#utility.yul\":3090:3096   */\n      0x00\n        /* \"#utility.yul\":3098:3104   */\n      dup1\n        /* \"#utility.yul\":3147:3149   */\n      0x40\n        /* \"#utility.yul\":3135:3144   */\n      dup4\n        /* \"#utility.yul\":3126:3133   */\n      dup6\n        /* \"#utility.yul\":3122:3145   */\n      sub\n        /* \"#utility.yul\":3118:3150   */\n      slt\n        /* \"#utility.yul\":3115:3234   */\n      iszero\n      tag_309\n      jumpi\n        /* \"#utility.yul\":3153:3232   */\n      tag_310\n      tag_245\n      jump\t// in\n    tag_310:\n        /* \"#utility.yul\":3115:3234   */\n    tag_309:\n        /* \"#utility.yul\":3273:3274   */\n      0x00\n        /* \"#utility.yul\":3298:3351   */\n      tag_311\n        /* \"#utility.yul\":3343:3350   */\n      dup6\n        /* \"#utility.yul\":3334:3340   */\n      dup3\n        /* \"#utility.yul\":3323:3332   */\n      dup7\n        /* \"#utility.yul\":3319:3341   */\n      add\n        /* \"#utility.yul\":3298:3351   */\n      tag_250\n      jump\t// in\n    tag_311:\n        /* \"#utility.yul\":3288:3351   */\n      swap3\n      pop\n        /* \"#utility.yul\":3244:3361   */\n      pop\n        /* \"#utility.yul\":3400:3402   */\n      0x20\n        /* \"#utility.yul\":3426:3479   */\n      tag_312\n        /* \"#utility.yul\":3471:3478   */\n      dup6\n        /* \"#utility.yul\":3462:3468   */\n      dup3\n        /* \"#utility.yul\":3451:3460   */\n      dup7\n        /* \"#utility.yul\":3447:3469   */\n      add\n        /* \"#utility.yul\":3426:3479   */\n      tag_250\n      jump\t// in\n    tag_312:\n        /* \"#utility.yul\":3416:3479   */\n      swap2\n      pop\n        /* \"#utility.yul\":3371:3489   */\n      pop\n        /* \"#utility.yul\":3022:3496   */\n      swap3\n      pop\n      swap3\n      swap1\n      pop\n      jump\t// out\n        /* \"#utility.yul\":3502:3620   */\n    tag_256:\n        /* \"#utility.yul\":3589:3613   */\n      tag_314\n        /* \"#utility.yul\":3607:3612   */\n      dup2\n        /* \"#utility.yul\":3589:3613   */\n      tag_251\n      jump\t// in\n    tag_314:\n        /* \"#utility.yul\":3584:3587   */\n      dup3\n        /* \"#utility.yul\":3577:3614   */\n      mstore\n        /* \"#utility.yul\":3502:3620   */\n      pop\n      pop\n      jump\t// out\n        /* \"#utility.yul\":3626:3848   */\n    tag_38:\n        /* \"#utility.yul\":3719:3723   */\n      0x00\n        /* \"#utility.yul\":3757:3759   */\n      0x20\n        /* \"#utility.yul\":3746:3755   */\n      dup3\n        /* \"#utility.yul\":3742:3760   */\n      add\n        /* \"#utility.yul\":3734:3760   */\n      swap1\n      pop\n        /* \"#utility.yul\":3770:3841   */\n      tag_316\n        /* \"#utility.yul\":3838:3839   */\n      0x00\n        /* \"#utility.yul\":3827:3836   */\n      dup4\n        /* \"#utility.yul\":3823:3840   */\n      add\n        /* \"#utility.yul\":3814:3820   */\n      dup5\n        /* \"#utility.yul\":3770:3841   */\n      tag_256\n      jump\t// in\n    tag_316:\n        /* \"#utility.yul\":3626:3848   */\n      swap3\n      swap2\n      pop\n      pop\n      jump\t// out\n        /* \"#utility.yul\":3854:3972   */\n    tag_257:\n        /* \"#utility.yul\":3941:3965   */\n      tag_318\n        /* \"#utility.yul\":3959:3964   */\n      dup2\n        /* \"#utility.yul\":3941:3965   */\n      tag_248\n      jump\t// in\n    tag_318:\n        /* \"#utility.yul\":3936:3939   */\n      dup3\n        /* \"#utility.yul\":3929:3966   */\n      mstore\n        /* \"#utility.yul\":3854:3972   */\n      pop\n      pop\n      jump\t// out\n        /* \"#utility.yul\":3978:4200   */\n    tag_42:\n        /* \"#utility.yul\":4071:4075   */\n      0x00\n        /* \"#utility.yul\":4109:4111   */\n      0x20\n        /* \"#utility.yul\":4098:4107   */\n      dup3\n        /* \"#utility.yul\":4094:4112   */\n      add\n        /* \"#utility.yul\":4086:4112   */\n      swap1\n      pop\n        /* \"#utility.yul\":4122:4193   */\n      tag_320\n        /* \"#utility.yul\":4190:4191   */\n      0x00\n        /* \"#utility.yul\":4179:4188   */\n      dup4\n        /* \"#utility.yul\":4175:4192   */\n      add\n        /* \"#utility.yul\":4166:4172   */\n      dup5\n        /* \"#utility.yul\":4122:4193   */\n      tag_257\n      jump\t// in\n    tag_320:\n        /* \"#utility.yul\":3978:4200   */\n      swap3\n      swap2\n      pop\n      pop\n      jump\t// out\n        /* \"#utility.yul\":4206:4680   */\n    tag_45:\n        /* \"#utility.yul\":4274:4280   */\n      0x00\n        /* \"#utility.yul\":4282:4288   */\n      dup1\n        /* \"#utility.yul\":4331:4333   */\n      0x40\n        /* \"#utility.yul\":4319:4328   */\n      dup4\n        /* \"#utility.yul\":4310:4317   */\n      dup6\n        /* \"#utility.yul\":4306:4329   */\n      sub\n        /* \"#utility.yul\":4302:4334   */\n      slt\n        /* \"#utility.yul\":4299:4418   */\n      iszero\n      tag_322\n      jumpi\n        /* \"#utility.yul\":4337:4416   */\n      tag_323\n      tag_245\n      jump\t// in\n    tag_323:\n        /* \"#utility.yul\":4299:4418   */\n    tag_322:\n        /* \"#utility.yul\":4457:4458   */\n      0x00\n        /* \"#utility.yul\":4482:4535   */\n      tag_324\n        /* \"#utility.yul\":4527:4534   */\n      dup6\n        /* \"#utility.yul\":4518:4524   */\n      dup3\n        /* \"#utility.yul\":4507:4516   */\n      dup7\n        /* \"#utility.yul\":4503:4525   */\n      add\n        /* \"#utility.yul\":4482:4535   */\n      tag_250\n      jump\t// in\n    tag_324:\n        /* \"#utility.yul\":4472:4535   */\n      swap3\n      pop\n        /* \"#utility.yul\":4428:4545   */\n      pop\n        /* \"#utility.yul\":4584:4586   */\n      0x20\n        /* \"#utility.yul\":4610:4663   */\n      tag_325\n        /* \"#utility.yul\":4655:4662   */\n      dup6\n        /* \"#utility.yul\":4646:4652   */\n      dup3\n        /* \"#utility.yul\":4635:4644   */\n      dup7\n        /* \"#utility.yul\":4631:4653   */\n      add\n        /* \"#utility.yul\":4610:4663   */\n      tag_253\n      jump\t// in\n    tag_325:\n        /* \"#utility.yul\":4600:4663   */\n      swap2\n      pop\n        /* \"#utility.yul\":4555:4673   */\n      pop\n        /* \"#utility.yul\":4206:4680   */\n      swap3\n      pop\n      swap3\n      swap1\n      pop\n      jump\t// out\n        /* \"#utility.yul\":4686:5015   */\n    tag_52:\n        /* \"#utility.yul\":4745:4751   */\n      0x00\n        /* \"#utility.yul\":4794:4796   */\n      0x20\n        /* \"#utility.yul\":4782:4791   */\n      dup3\n        /* \"#utility.yul\":4773:4780   */\n      dup5\n        /* \"#utility.yul\":4769:4792   */\n      sub\n        /* \"#utility.yul\":4765:4797   */\n      slt\n        /* \"#utility.yul\":4762:4881   */\n      iszero\n      tag_327\n      jumpi\n        /* \"#utility.yul\":4800:4879   */\n      tag_328\n      tag_245\n      jump\t// in\n    tag_328:\n        /* \"#utility.yul\":4762:4881   */\n    tag_327:\n        /* \"#utility.yul\":4920:4921   */\n      0x00\n        /* \"#utility.yul\":4945:4998   */\n      tag_329\n        /* \"#utility.yul\":4990:4997   */\n      dup5\n        /* \"#utility.yul\":4981:4987   */\n      dup3\n        /* \"#utility.yul\":4970:4979   */\n      dup6\n        /* \"#utility.yul\":4966:4988   */\n      add\n        /* \"#utility.yul\":4945:4998   */\n      tag_250\n      jump\t// in\n    tag_329:\n        /* \"#utility.yul\":4935:4998   */\n      swap2\n      pop\n        /* \"#utility.yul\":4891:5008   */\n      pop\n        /* \"#utility.yul\":4686:5015   */\n      swap3\n      swap2\n      pop\n      pop\n      jump\t// out\n        /* \"#utility.yul\":5021:5201   */\n    tag_258:\n        /* \"#utility.yul\":5069:5146   */\n      0x4e487b7100000000000000000000000000000000000000000000000000000000\n        /* \"#utility.yul\":5066:5067   */\n      0x00\n        /* \"#utility.yul\":5059:5147   */\n      mstore\n        /* \"#utility.yul\":5166:5170   */\n      0x11\n        /* \"#utility.yul\":5163:5164   */\n      0x04\n        /* \"#utility.yul\":5156:5171   */\n      mstore\n        /* \"#utility.yul\":5190:5194   */\n      0x24\n        /* \"#utility.yul\":5187:5188   */\n      0x00\n        /* \"#utility.yul\":5180:5195   */\n      revert\n        /* \"#utility.yul\":5207:5617   */\n    tag_62:\n        /* \"#utility.yul\":5247:5254   */\n      0x00\n        /* \"#utility.yul\":5270:5290   */\n      tag_332\n        /* \"#utility.yul\":5288:5289   */\n      dup3\n        /* \"#utility.yul\":5270:5290   */\n      tag_251\n      jump\t// in\n    tag_332:\n        /* \"#utility.yul\":5265:5290   */\n      swap2\n      pop\n        /* \"#utility.yul\":5304:5324   */\n      tag_333\n        /* \"#utility.yul\":5322:5323   */\n      dup4\n        /* \"#utility.yul\":5304:5324   */\n      tag_251\n      jump\t// in\n    tag_333:\n        /* \"#utility.yul\":5299:5324   */\n      swap3\n      pop\n        /* \"#utility.yul\":5359:5360   */\n      dup3\n        /* \"#utility.yul\":5356:5357   */\n      dup3\n        /* \"#utility.yul\":5352:5361   */\n      mul\n        /* \"#utility.yul\":5381:5411   */\n      tag_334\n        /* \"#utility.yul\":5399:5410   */\n      dup2\n        /* \"#utility.yul\":5381:5411   */\n      tag_251\n      jump\t// in\n    tag_334:\n        /* \"#utility.yul\":5370:5411   */\n      swap2\n      pop\n        /* \"#utility.yul\":5560:5561   */\n      dup3\n        /* \"#utility.yul\":5551:5558   */\n      dup3\n        /* \"#utility.yul\":5547:5562   */\n      div\n        /* \"#utility.yul\":5544:5545   */\n      dup5\n        /* \"#utility.yul\":5541:5563   */\n      eq\n        /* \"#utility.yul\":5521:5522   */\n      dup4\n        /* \"#utility.yul\":5514:5523   */\n      iszero\n        /* \"#utility.yul\":5494:5577   */\n      or\n        /* \"#utility.yul\":5471:5610   */\n      tag_335\n      jumpi\n        /* \"#utility.yul\":5590:5608   */\n      tag_336\n      tag_258\n      jump\t// in\n    tag_336:\n        /* \"#utility.yul\":5471:5610   */\n    tag_335:\n        /* \"#utility.yul\":5255:5617   */\n      pop\n        /* \"#utility.yul\":5207:5617   */\n      swap3\n      swap2\n      pop\n      pop\n      jump\t// out\n        /* \"#utility.yul\":5623:5803   */\n    tag_259:\n        /* \"#utility.yul\":5671:5748   */\n      0x4e487b7100000000000000000000000000000000000000000000000000000000\n        /* \"#utility.yul\":5668:5669   */\n      0x00\n        /* \"#utility.yul\":5661:5749   */\n      mstore\n        /* \"#utility.yul\":5768:5772   */\n      0x12\n        /* \"#utility.yul\":5765:5766   */\n      0x04\n        /* \"#utility.yul\":5758:5773   */\n      mstore\n        /* \"#utility.yul\":5792:5796   */\n      0x24\n        /* \"#utility.yul\":5789:5790   */\n      0x00\n        /* \"#utility.yul\":5782:5797   */\n      revert\n        /* \"#utility.yul\":5809:5994   */\n    tag_64:\n        /* \"#utility.yul\":5849:5850   */\n      0x00\n        /* \"#utility.yul\":5866:5886   */\n      tag_339\n        /* \"#utility.yul\":5884:5885   */\n      dup3\n        /* \"#utility.yul\":5866:5886   */\n      tag_251\n      jump\t// in\n    tag_339:\n        /* \"#utility.yul\":5861:5886   */\n      swap2\n      pop\n        /* \"#utility.yul\":5900:5920   */\n      tag_340\n        /* \"#utility.yul\":5918:5919   */\n      dup4\n        /* \"#utility.yul\":5900:5920   */\n      tag_251\n      jump\t// in\n    tag_340:\n        /* \"#utility.yul\":5895:5920   */\n      swap3\n      pop\n        /* \"#utility.yul\":5939:5940   */\n      dup3\n        /* \"#utility.yul\":5929:5964   */\n      tag_341\n      jumpi\n        /* \"#utility.yul\":5944:5962   */\n      tag_342\n      tag_259\n      jump\t// in\n    tag_342:\n        /* \"#utility.yul\":5929:5964   */\n    tag_341:\n        /* \"#utility.yul\":5986:5987   */\n      dup3\n        /* \"#utility.yul\":5983:5984   */\n      dup3\n        /* \"#utility.yul\":5979:5988   */\n      div\n        /* \"#utility.yul\":5974:5988   */\n      swap1\n      pop\n        /* \"#utility.yul\":5809:5994   */\n      swap3\n      swap2\n      pop\n      pop\n      jump\t// out\n        /* \"#utility.yul\":6000:6194   */\n    tag_66:\n        /* \"#utility.yul\":6040:6044   */\n      0x00\n        /* \"#utility.yul\":6060:6080   */\n      tag_344\n        /* \"#utility.yul\":6078:6079   */\n      dup3\n        /* \"#utility.yul\":6060:6080   */\n      tag_251\n      jump\t// in\n    tag_344:\n        /* \"#utility.yul\":6055:6080   */\n      swap2\n      pop\n        /* \"#utility.yul\":6094:6114   */\n      tag_345\n        /* \"#utility.yul\":6112:6113   */\n      dup4\n        /* \"#utility.yul\":6094:6114   */\n      tag_251\n      jump\t// in\n    tag_345:\n        /* \"#utility.yul\":6089:6114   */\n      swap3\n      pop\n        /* \"#utility.yul\":6138:6139   */\n      dup3\n        /* \"#utility.yul\":6135:6136   */\n      dup3\n        /* \"#utility.yul\":6131:6140   */\n      sub\n        /* \"#utility.yul\":6123:6140   */\n      swap1\n      pop\n        /* \"#utility.yul\":6162:6163   */\n      dup2\n        /* \"#utility.yul\":6156:6160   */\n      dup2\n        /* \"#utility.yul\":6153:6164   */\n      gt\n        /* \"#utility.yul\":6150:6187   */\n      iszero\n      tag_346\n      jumpi\n        /* \"#utility.yul\":6167:6185   */\n      tag_347\n      tag_258\n      jump\t// in\n    tag_347:\n        /* \"#utility.yul\":6150:6187   */\n    tag_346:\n        /* \"#utility.yul\":6000:6194   */\n      swap3\n      swap2\n      pop\n      pop\n      jump\t// out\n        /* \"#utility.yul\":6200:6753   */\n    tag_72:\n        /* \"#utility.yul\":6377:6381   */\n      0x00\n        /* \"#utility.yul\":6415:6418   */\n      0x80\n        /* \"#utility.yul\":6404:6413   */\n      dup3\n        /* \"#utility.yul\":6400:6419   */\n      add\n        /* \"#utility.yul\":6392:6419   */\n      swap1\n      pop\n        /* \"#utility.yul\":6429:6500   */\n      tag_349\n        /* \"#utility.yul\":6497:6498   */\n      0x00\n        /* \"#utility.yul\":6486:6495   */\n      dup4\n        /* \"#utility.yul\":6482:6499   */\n      add\n        /* \"#utility.yul\":6473:6479   */\n      dup8\n        /* \"#utility.yul\":6429:6500   */\n      tag_257\n      jump\t// in\n    tag_349:\n        /* \"#utility.yul\":6510:6582   */\n      tag_350\n        /* \"#utility.yul\":6578:6580   */\n      0x20\n        /* \"#utility.yul\":6567:6576   */\n      dup4\n        /* \"#utility.yul\":6563:6581   */\n      add\n        /* \"#utility.yul\":6554:6560   */\n      dup7\n        /* \"#utility.yul\":6510:6582   */\n      tag_257\n      jump\t// in\n    tag_350:\n        /* \"#utility.yul\":6592:6664   */\n      tag_351\n        /* \"#utility.yul\":6660:6662   */\n      0x40\n        /* \"#utility.yul\":6649:6658   */\n      dup4\n        /* \"#utility.yul\":6645:6663   */\n      add\n        /* \"#utility.yul\":6636:6642   */\n      dup6\n        /* \"#utility.yul\":6592:6664   */\n      tag_257\n      jump\t// in\n    tag_351:\n        /* \"#utility.yul\":6674:6746   */\n      tag_352\n        /* \"#utility.yul\":6742:6744   */\n      0x60\n        /* \"#utility.yul\":6731:6740   */\n      dup4\n        /* \"#utility.yul\":6727:6745   */\n      add\n        /* \"#utility.yul\":6718:6724   */\n      dup5\n        /* \"#utility.yul\":6674:6746   */\n      tag_256\n      jump\t// in\n    tag_352:\n        /* \"#utility.yul\":6200:6753   */\n      swap6\n      swap5\n      pop\n      pop\n      pop\n      pop\n      pop\n      jump\t// out\n        /* \"#utility.yul\":6759:7091   */\n    tag_100:\n        /* \"#utility.yul\":6880:6884   */\n      0x00\n        /* \"#utility.yul\":6918:6920   */\n      0x40\n        /* \"#utility.yul\":6907:6916   */\n      dup3\n        /* \"#utility.yul\":6903:6921   */\n      add\n        /* \"#utility.yul\":6895:6921   */\n      swap1\n      pop\n        /* \"#utility.yul\":6931:7002   */\n      tag_354\n        /* \"#utility.yul\":6999:7000   */\n      0x00\n        /* \"#utility.yul\":6988:6997   */\n      dup4\n        /* \"#utility.yul\":6984:7001   */\n      add\n        /* \"#utility.yul\":6975:6981   */\n      dup6\n        /* \"#utility.yul\":6931:7002   */\n      tag_257\n      jump\t// in\n    tag_354:\n        /* \"#utility.yul\":7012:7084   */\n      tag_355\n        /* \"#utility.yul\":7080:7082   */\n      0x20\n        /* \"#utility.yul\":7069:7078   */\n      dup4\n        /* \"#utility.yul\":7065:7083   */\n      add\n        /* \"#utility.yul\":7056:7062   */\n      dup5\n        /* \"#utility.yul\":7012:7084   */\n      tag_257\n      jump\t// in\n    tag_355:\n        /* \"#utility.yul\":6759:7091   */\n      swap4\n      swap3\n      pop\n      pop\n      pop\n      jump\t// out\n        /* \"#utility.yul\":7097:7240   */\n    tag_260:\n        /* \"#utility.yul\":7154:7159   */\n      0x00\n        /* \"#utility.yul\":7185:7191   */\n      dup2\n        /* \"#utility.yul\":7179:7192   */\n      mload\n        /* \"#utility.yul\":7170:7192   */\n      swap1\n      pop\n        /* \"#utility.yul\":7201:7234   */\n      tag_357\n        /* \"#utility.yul\":7228:7233   */\n      dup2\n        /* \"#utility.yul\":7201:7234   */\n      tag_252\n      jump\t// in\n    tag_357:\n        /* \"#utility.yul\":7097:7240   */\n      swap3\n      swap2\n      pop\n      pop\n      jump\t// out\n        /* \"#utility.yul\":7246:7597   */\n    tag_104:\n        /* \"#utility.yul\":7316:7322   */\n      0x00\n        /* \"#utility.yul\":7365:7367   */\n      0x20\n        /* \"#utility.yul\":7353:7362   */\n      dup3\n        /* \"#utility.yul\":7344:7351   */\n      dup5\n        /* \"#utility.yul\":7340:7363   */\n      sub\n        /* \"#utility.yul\":7336:7368   */\n      slt\n        /* \"#utility.yul\":7333:7452   */\n      iszero\n      tag_359\n      jumpi\n        /* \"#utility.yul\":7371:7450   */\n      tag_360\n      tag_245\n      jump\t// in\n    tag_360:\n        /* \"#utility.yul\":7333:7452   */\n    tag_359:\n        /* \"#utility.yul\":7491:7492   */\n      0x00\n        /* \"#utility.yul\":7516:7580   */\n      tag_361\n        /* \"#utility.yul\":7572:7579   */\n      dup5\n        /* \"#utility.yul\":7563:7569   */\n      dup3\n        /* \"#utility.yul\":7552:7561   */\n      dup6\n        /* \"#utility.yul\":7548:7570   */\n      add\n        /* \"#utility.yul\":7516:7580   */\n      tag_260\n      jump\t// in\n    tag_361:\n        /* \"#utility.yul\":7506:7580   */\n      swap2\n      pop\n        /* \"#utility.yul\":7462:7590   */\n      pop\n        /* \"#utility.yul\":7246:7597   */\n      swap3\n      swap2\n      pop\n      pop\n      jump\t// out\n        /* \"#utility.yul\":7603:7688   */\n    tag_261:\n        /* \"#utility.yul\":7648:7655   */\n      0x00\n        /* \"#utility.yul\":7677:7682   */\n      dup2\n        /* \"#utility.yul\":7666:7682   */\n      swap1\n      pop\n        /* \"#utility.yul\":7603:7688   */\n      swap2\n      swap1\n      pop\n      jump\t// out\n        /* \"#utility.yul\":7694:7795   */\n    tag_262:\n        /* \"#utility.yul\":7730:7737   */\n      0x00\n        /* \"#utility.yul\":7770:7788   */\n      0xffffffffffffffff\n        /* \"#utility.yul\":7763:7768   */\n      dup3\n        /* \"#utility.yul\":7759:7789   */\n      and\n        /* \"#utility.yul\":7748:7789   */\n      swap1\n      pop\n        /* \"#utility.yul\":7694:7795   */\n      swap2\n      swap1\n      pop\n      jump\t// out\n        /* \"#utility.yul\":7801:7861   */\n    tag_263:\n        /* \"#utility.yul\":7829:7832   */\n      0x00\n        /* \"#utility.yul\":7850:7855   */\n      dup2\n        /* \"#utility.yul\":7843:7855   */\n      swap1\n      pop\n        /* \"#utility.yul\":7801:7861   */\n      swap2\n      swap1\n      pop\n      jump\t// out\n        /* \"#utility.yul\":7867:8023   */\n    tag_264:\n        /* \"#utility.yul\":7924:7933   */\n      0x00\n        /* \"#utility.yul\":7957:8017   */\n      tag_366\n        /* \"#utility.yul\":7974:8016   */\n      tag_367\n        /* \"#utility.yul\":7983:8015   */\n      tag_368\n        /* \"#utility.yul\":8009:8014   */\n      dup5\n        /* \"#utility.yul\":7983:8015   */\n      tag_261\n      jump\t// in\n    tag_368:\n        /* \"#utility.yul\":7974:8016   */\n      tag_263\n      jump\t// in\n    tag_367:\n        /* \"#utility.yul\":7957:8017   */\n      tag_262\n      jump\t// in\n    tag_366:\n        /* \"#utility.yul\":7944:8017   */\n      swap1\n      pop\n        /* \"#utility.yul\":7867:8023   */\n      swap2\n      swap1\n      pop\n      jump\t// out\n        /* \"#utility.yul\":8029:8174   */\n    tag_265:\n        /* \"#utility.yul\":8123:8167   */\n      tag_370\n        /* \"#utility.yul\":8161:8166   */\n      dup2\n        /* \"#utility.yul\":8123:8167   */\n      tag_264\n      jump\t// in\n    tag_370:\n        /* \"#utility.yul\":8118:8121   */\n      dup3\n        /* \"#utility.yul\":8111:8168   */\n      mstore\n        /* \"#utility.yul\":8029:8174   */\n      pop\n      pop\n      jump\t// out\n        /* \"#utility.yul\":8180:8416   */\n    tag_125:\n        /* \"#utility.yul\":8280:8284   */\n      0x00\n        /* \"#utility.yul\":8318:8320   */\n      0x20\n        /* \"#utility.yul\":8307:8316   */\n      dup3\n        /* \"#utility.yul\":8303:8321   */\n      add\n        /* \"#utility.yul\":8295:8321   */\n      swap1\n      pop\n        /* \"#utility.yul\":8331:8409   */\n      tag_372\n        /* \"#utility.yul\":8406:8407   */\n      0x00\n        /* \"#utility.yul\":8395:8404   */\n      dup4\n        /* \"#utility.yul\":8391:8408   */\n      add\n        /* \"#utility.yul\":8382:8388   */\n      dup5\n        /* \"#utility.yul\":8331:8409   */\n      tag_265\n      jump\t// in\n    tag_372:\n        /* \"#utility.yul\":8180:8416   */\n      swap3\n      swap2\n      pop\n      pop\n      jump\t// out\n        /* \"#utility.yul\":8422:8864   */\n    tag_142:\n        /* \"#utility.yul\":8571:8575   */\n      0x00\n        /* \"#utility.yul\":8609:8611   */\n      0x60\n        /* \"#utility.yul\":8598:8607   */\n      dup3\n        /* \"#utility.yul\":8594:8612   */\n      add\n        /* \"#utility.yul\":8586:8612   */\n      swap1\n      pop\n        /* \"#utility.yul\":8622:8693   */\n      tag_374\n        /* \"#utility.yul\":8690:8691   */\n      0x00\n        /* \"#utility.yul\":8679:8688   */\n      dup4\n        /* \"#utility.yul\":8675:8692   */\n      add\n        /* \"#utility.yul\":8666:8672   */\n      dup7\n        /* \"#utility.yul\":8622:8693   */\n      tag_257\n      jump\t// in\n    tag_374:\n        /* \"#utility.yul\":8703:8775   */\n      tag_375\n        /* \"#utility.yul\":8771:8773   */\n      0x20\n        /* \"#utility.yul\":8760:8769   */\n      dup4\n        /* \"#utility.yul\":8756:8774   */\n      add\n        /* \"#utility.yul\":8747:8753   */\n      dup6\n        /* \"#utility.yul\":8703:8775   */\n      tag_257\n      jump\t// in\n    tag_375:\n        /* \"#utility.yul\":8785:8857   */\n      tag_376\n        /* \"#utility.yul\":8853:8855   */\n      0x40\n        /* \"#utility.yul\":8842:8851   */\n      dup4\n        /* \"#utility.yul\":8838:8856   */\n      add\n        /* \"#utility.yul\":8829:8835   */\n      dup5\n        /* \"#utility.yul\":8785:8857   */\n      tag_256\n      jump\t// in\n    tag_376:\n        /* \"#utility.yul\":8422:8864   */\n      swap5\n      swap4\n      pop\n      pop\n      pop\n      pop\n      jump\t// out\n        /* \"#utility.yul\":8870:8986   */\n    tag_266:\n        /* \"#utility.yul\":8940:8961   */\n      tag_378\n        /* \"#utility.yul\":8955:8960   */\n      dup2\n        /* \"#utility.yul\":8940:8961   */\n      tag_254\n      jump\t// in\n    tag_378:\n        /* \"#utility.yul\":8933:8938   */\n      dup2\n        /* \"#utility.yul\":8930:8962   */\n      eq\n        /* \"#utility.yul\":8920:8980   */\n      tag_379\n      jumpi\n        /* \"#utility.yul\":8976:8977   */\n      0x00\n        /* \"#utility.yul\":8973:8974   */\n      dup1\n        /* \"#utility.yul\":8966:8978   */\n      revert\n        /* \"#utility.yul\":8920:8980   */\n    tag_379:\n        /* \"#utility.yul\":8870:8986   */\n      pop\n      jump\t// out\n        /* \"#utility.yul\":8992:9129   */\n    tag_267:\n        /* \"#utility.yul\":9046:9051   */\n      0x00\n        /* \"#utility.yul\":9077:9083   */\n      dup2\n        /* \"#utility.yul\":9071:9084   */\n      mload\n        /* \"#utility.yul\":9062:9084   */\n      swap1\n      pop\n        /* \"#utility.yul\":9093:9123   */\n      tag_381\n        /* \"#utility.yul\":9117:9122   */\n      dup2\n        /* \"#utility.yul\":9093:9123   */\n      tag_266\n      jump\t// in\n    tag_381:\n        /* \"#utility.yul\":8992:9129   */\n      swap3\n      swap2\n      pop\n      pop\n      jump\t// out\n        /* \"#utility.yul\":9135:9480   */\n    tag_193:\n        /* \"#utility.yul\":9202:9208   */\n      0x00\n        /* \"#utility.yul\":9251:9253   */\n      0x20\n        /* \"#utility.yul\":9239:9248   */\n      dup3\n        /* \"#utility.yul\":9230:9237   */\n      dup5\n        /* \"#utility.yul\":9226:9249   */\n      sub\n        /* \"#utility.yul\":9222:9254   */\n      slt\n        /* \"#utility.yul\":9219:9338   */\n      iszero\n      tag_383\n      jumpi\n        /* \"#utility.yul\":9257:9336   */\n      tag_384\n      tag_245\n      jump\t// in\n    tag_384:\n        /* \"#utility.yul\":9219:9338   */\n    tag_383:\n        /* \"#utility.yul\":9377:9378   */\n      0x00\n        /* \"#utility.yul\":9402:9463   */\n      tag_385\n        /* \"#utility.yul\":9455:9462   */\n      dup5\n        /* \"#utility.yul\":9446:9452   */\n      dup3\n        /* \"#utility.yul\":9435:9444   */\n      dup6\n        /* \"#utility.yul\":9431:9453   */\n      add\n        /* \"#utility.yul\":9402:9463   */\n      tag_267\n      jump\t// in\n    tag_385:\n        /* \"#utility.yul\":9392:9463   */\n      swap2\n      pop\n        /* \"#utility.yul\":9348:9473   */\n      pop\n        /* \"#utility.yul\":9135:9480   */\n      swap3\n      swap2\n      pop\n      pop\n      jump\t// out\n        /* \"#utility.yul\":9486:9584   */\n    tag_268:\n        /* \"#utility.yul\":9537:9543   */\n      0x00\n        /* \"#utility.yul\":9571:9576   */\n      dup2\n        /* \"#utility.yul\":9565:9577   */\n      mload\n        /* \"#utility.yul\":9555:9577   */\n      swap1\n      pop\n        /* \"#utility.yul\":9486:9584   */\n      swap2\n      swap1\n      pop\n      jump\t// out\n        /* \"#utility.yul\":9590:9737   */\n    tag_269:\n        /* \"#utility.yul\":9691:9702   */\n      0x00\n        /* \"#utility.yul\":9728:9731   */\n      dup2\n        /* \"#utility.yul\":9713:9731   */\n      swap1\n      pop\n        /* \"#utility.yul\":9590:9737   */\n      swap3\n      swap2\n      pop\n      pop\n      jump\t// out\n        /* \"#utility.yul\":9743:9882   */\n    tag_270:\n        /* \"#utility.yul\":9832:9838   */\n      dup3\n        /* \"#utility.yul\":9827:9830   */\n      dup2\n        /* \"#utility.yul\":9822:9825   */\n      dup4\n        /* \"#utility.yul\":9816:9839   */\n      mcopy\n        /* \"#utility.yul\":9873:9874   */\n      0x00\n        /* \"#utility.yul\":9864:9870   */\n      dup4\n        /* \"#utility.yul\":9859:9862   */\n      dup4\n        /* \"#utility.yul\":9855:9871   */\n      add\n        /* \"#utility.yul\":9848:9875   */\n      mstore\n        /* \"#utility.yul\":9743:9882   */\n      pop\n      pop\n      pop\n      jump\t// out\n        /* \"#utility.yul\":9888:10274   */\n    tag_271:\n        /* \"#utility.yul\":9992:9995   */\n      0x00\n        /* \"#utility.yul\":10020:10058   */\n      tag_390\n        /* \"#utility.yul\":10052:10057   */\n      dup3\n        /* \"#utility.yul\":10020:10058   */\n      tag_268\n      jump\t// in\n    tag_390:\n        /* \"#utility.yul\":10074:10162   */\n      tag_391\n        /* \"#utility.yul\":10155:10161   */\n      dup2\n        /* \"#utility.yul\":10150:10153   */\n      dup6\n        /* \"#utility.yul\":10074:10162   */\n      tag_269\n      jump\t// in\n    tag_391:\n        /* \"#utility.yul\":10067:10162   */\n      swap4\n      pop\n        /* \"#utility.yul\":10171:10236   */\n      tag_392\n        /* \"#utility.yul\":10229:10235   */\n      dup2\n        /* \"#utility.yul\":10224:10227   */\n      dup6\n        /* \"#utility.yul\":10217:10221   */\n      0x20\n        /* \"#utility.yul\":10210:10215   */\n      dup7\n        /* \"#utility.yul\":10206:10222   */\n      add\n        /* \"#utility.yul\":10171:10236   */\n      tag_270\n      jump\t// in\n    tag_392:\n        /* \"#utility.yul\":10261:10267   */\n      dup1\n        /* \"#utility.yul\":10256:10259   */\n      dup5\n        /* \"#utility.yul\":10252:10268   */\n      add\n        /* \"#utility.yul\":10245:10268   */\n      swap2\n      pop\n        /* \"#utility.yul\":9996:10274   */\n      pop\n        /* \"#utility.yul\":9888:10274   */\n      swap3\n      swap2\n      pop\n      pop\n      jump\t// out\n        /* \"#utility.yul\":10280:10551   */\n    tag_227:\n        /* \"#utility.yul\":10410:10413   */\n      0x00\n        /* \"#utility.yul\":10432:10525   */\n      tag_394\n        /* \"#utility.yul\":10521:10524   */\n      dup3\n        /* \"#utility.yul\":10512:10518   */\n      dup5\n        /* \"#utility.yul\":10432:10525   */\n      tag_271\n      jump\t// in\n    tag_394:\n        /* \"#utility.yul\":10425:10525   */\n      swap2\n      pop\n        /* \"#utility.yul\":10542:10545   */\n      dup2\n        /* \"#utility.yul\":10535:10545   */\n      swap1\n      pop\n        /* \"#utility.yul\":10280:10551   */\n      swap3\n      swap2\n      pop\n      pop\n      jump\t// out\n\n    auxdata: 0xa26469706673582212201621e9e04d8bf44612fafd88ef1273b990481d7da920dab94704a9de72bcabc964736f6c634300081a0033\n}\n",
				"bytecode": {
					"linkReferences": {},
					"object": "6080604052348015600e575f80fd5b506113da8061001c5f395ff3fe608060405234801561000f575f80fd5b50600436106100a7575f3560e01c80638456cb591161006f5780638456cb59146101155780638b099b231461011f5780638da5cb5b1461014f578063cd6dc6871461016d578063ce2c2df114610189578063f2fde38b146101a7576100a7565b80630de5e0e7146100ab5780633d18678e146100c75780633f4ba83a146100e35780635c975abb146100ed578063715018a61461010b575b5f80fd5b6100c560048036038101906100c09190610ebf565b6101c3565b005b6100e160048036038101906100dc9190610f48565b6102b7565b005b6100eb610304565b005b6100f5610316565b6040516101029190610f8d565b60405180910390f35b610113610338565b005b61011d61034b565b005b61013960048036038101906101349190610fa6565b61035d565b6040516101469190610ff3565b60405180910390f35b6101576103e5565b604051610164919061101b565b60405180910390f35b61018760048036038101906101829190611034565b61041a565b005b6101916105b2565b60405161019e9190610ff3565b60405180910390f35b6101c160048036038101906101bc9190611072565b6105b7565b005b6101cb61063b565b6101d361067c565b5f8690505f6127105f54876101e891906110ca565b6101f29190611138565b90505f81876102019190611168565b90506102373361020f6103e5565b848673ffffffffffffffffffffffffffffffffffffffff166106d0909392919063ffffffff16565b6102643389838673ffffffffffffffffffffffffffffffffffffffff166106d0909392919063ffffffff16565b8385877fccf4cbdbebf44b8f817936435dfaa557d772265c6eef9c54c198d3c873624f348c338d8760405161029c949392919061119b565b60405180910390a45050506102af610752565b505050505050565b6102bf610769565b6127108111156102fb576040517fdf44072600000000000000000000000000000000000000000000000000000000815260040160405180910390fd5b805f8190555050565b61030c610769565b6103146107f0565b565b5f8061032061085e565b9050805f015f9054906101000a900460ff1691505090565b610340610769565b6103495f610885565b565b610353610769565b61035b610956565b565b5f808390508073ffffffffffffffffffffffffffffffffffffffff1663dd62ed3e84306040518363ffffffff1660e01b815260040161039d9291906111de565b602060405180830381865afa1580156103b8573d5f803e3d5ffd5b505050506040513d601f19601f820116820180604052508101906103dc9190611219565b91505092915050565b5f806103ef6109c5565b9050805f015f9054906101000a900473ffffffffffffffffffffffffffffffffffffffff1691505090565b5f6104236109ec565b90505f815f0160089054906101000a900460ff161590505f825f015f9054906101000a900467ffffffffffffffff1690505f808267ffffffffffffffff1614801561046b5750825b90505f60018367ffffffffffffffff1614801561049e57505f3073ffffffffffffffffffffffffffffffffffffffff163b145b9050811580156104ac575080155b156104e3576040517ff92ee8a900000000000000000000000000000000000000000000000000000000815260040160405180910390fd5b6001855f015f6101000a81548167ffffffffffffffff021916908367ffffffffffffffff1602179055508315610530576001855f0160086101000a81548160ff0219169083151502179055505b61053987610a13565b610541610a27565b610549610a39565b855f8190555083156105a9575f855f0160086101000a81548160ff0219169083151502179055507fc7f505b2f371ae2175ee4913f4499e1f2633a7b5936321eed1cdaeb6115181d260016040516105a09190611299565b60405180910390a15b50505050505050565b5f5481565b6105bf610769565b5f73ffffffffffffffffffffffffffffffffffffffff168173ffffffffffffffffffffffffffffffffffffffff160361062f575f6040517f1e4fbdf7000000000000000000000000000000000000000000000000000000008152600401610626919061101b565b60405180910390fd5b61063881610885565b50565b610643610316565b1561067a576040517fd93c066500000000000000000000000000000000000000000000000000000000815260040160405180910390fd5b565b5f610685610a4b565b90506002815f0154036106c4576040517f3ee5aeb500000000000000000000000000000000000000000000000000000000815260040160405180910390fd5b6002815f018190555050565b61074c848573ffffffffffffffffffffffffffffffffffffffff166323b872dd868686604051602401610705939291906112b2565b604051602081830303815290604052915060e01b6020820180517bffffffffffffffffffffffffffffffffffffffffffffffffffffffff8381831617835250505050610a72565b50505050565b5f61075b610a4b565b90506001815f018190555050565b610771610b07565b73ffffffffffffffffffffffffffffffffffffffff1661078f6103e5565b73ffffffffffffffffffffffffffffffffffffffff16146107ee576107b2610b07565b6040517f118cdaa70000000000000000000000000000000000000000000000000000000081526004016107e5919061101b565b60405180910390fd5b565b6107f8610b0e565b5f61080161085e565b90505f815f015f6101000a81548160ff0219169083151502179055507f5db9ee0a495bf2e6ff9c91a7834c1ba4fdd244a5e8aa4e537bd38aeae4b073aa610846610b07565b604051610853919061101b565b60405180910390a150565b5f7fcd5ed15c6e187e77e9aee88184c21f4f2182ab5827cb3b7e07fbedcd63f03300905090565b5f61088e6109c5565b90505f815f015f9054906101000a900473ffffffffffffffffffffffffffffffffffffffff16905082825f015f6101000a81548173ffffffffffffffffffffffffffffffffffffffff021916908373ffffffffffffffffffffffffffffffffffffffff1602179055508273ffffffffffffffffffffffffffffffffffffffff168173ffffffffffffffffffffffffffffffffffffffff167f8be0079c531659141344cd1fd0a4f28419497f9722a3daafe3b4186f6b6457e060405160405180910390a3505050565b61095e61063b565b5f61096761085e565b90506001815f015f6101000a81548160ff0219169083151502179055507f62e78cea01bee320cd4e420270b5ea74000d11b0c9f74754ebdbfc544b05a2586109ad610b07565b6040516109ba919061101b565b60405180910390a150565b5f7f9016d09d72d40fdae2fd8ceac6b6234c7706214fd39c1cd1e609a0528c199300905090565b5f7ff0c57e16840df040f15088dc2f81fe391c3923bec73e23a9662efc9c229c6a00905090565b610a1b610b4e565b610a2481610b8e565b50565b610a2f610b4e565b610a37610c12565b565b610a41610b4e565b610a49610c31565b565b5f7f9b779b17422d0df92223018b32b4d1fa46e071723d6817e2486d003becc55f00905090565b5f610a9c828473ffffffffffffffffffffffffffffffffffffffff16610c6190919063ffffffff16565b90505f815114158015610ac0575080806020019051810190610abe9190611311565b155b15610b0257826040517f5274afe7000000000000000000000000000000000000000000000000000000008152600401610af9919061101b565b60405180910390fd5b505050565b5f33905090565b610b16610316565b610b4c576040517f8dfc202b00000000000000000000000000000000000000000000000000000000815260040160405180910390fd5b565b610b56610c76565b610b8c576040517fd7e6bcf800000000000000000000000000000000000000000000000000000000815260040160405180910390fd5b565b610b96610b4e565b5f73ffffffffffffffffffffffffffffffffffffffff168173ffffffffffffffffffffffffffffffffffffffff1603610c06575f6040517f1e4fbdf7000000000000000000000000000000000000000000000000000000008152600401610bfd919061101b565b60405180910390fd5b610c0f81610885565b50565b610c1a610b4e565b5f610c23610a4b565b90506001815f018190555050565b610c39610b4e565b5f610c4261085e565b90505f815f015f6101000a81548160ff02191690831515021790555050565b6060610c6e83835f610c94565b905092915050565b5f610c7f6109ec565b5f0160089054906101000a900460ff16905090565b606081471015610cdb57306040517fcd786059000000000000000000000000000000000000000000000000000000008152600401610cd2919061101b565b60405180910390fd5b5f808573ffffffffffffffffffffffffffffffffffffffff168486604051610d03919061138e565b5f6040518083038185875af1925050503d805f8114610d3d576040519150601f19603f3d011682016040523d82523d5f602084013e610d42565b606091505b5091509150610d52868383610d5d565b925050509392505050565b606082610d7257610d6d82610dea565b610de2565b5f8251148015610d9857505f8473ffffffffffffffffffffffffffffffffffffffff163b145b15610dda57836040517f9996b315000000000000000000000000000000000000000000000000000000008152600401610dd1919061101b565b60405180910390fd5b819050610de3565b5b9392505050565b5f81511115610dfc5780518082602001fd5b6040517f1425ea4200000000000000000000000000000000000000000000000000000000815260040160405180910390fd5b5f80fd5b5f73ffffffffffffffffffffffffffffffffffffffff82169050919050565b5f610e5b82610e32565b9050919050565b610e6b81610e51565b8114610e75575f80fd5b50565b5f81359050610e8681610e62565b92915050565b5f819050919050565b610e9e81610e8c565b8114610ea8575f80fd5b50565b5f81359050610eb981610e95565b92915050565b5f805f805f8060c08789031215610ed957610ed8610e2e565b5b5f610ee689828a01610e78565b9650506020610ef789828a01610e78565b9550506040610f0889828a01610eab565b9450506060610f1989828a01610eab565b9350506080610f2a89828a01610eab565b92505060a0610f3b89828a01610eab565b9150509295509295509295565b5f60208284031215610f5d57610f5c610e2e565b5b5f610f6a84828501610eab565b91505092915050565b5f8115159050919050565b610f8781610f73565b82525050565b5f602082019050610fa05f830184610f7e565b92915050565b5f8060408385031215610fbc57610fbb610e2e565b5b5f610fc985828601610e78565b9250506020610fda85828601610e78565b9150509250929050565b610fed81610e8c565b82525050565b5f6020820190506110065f830184610fe4565b92915050565b61101581610e51565b82525050565b5f60208201905061102e5f83018461100c565b92915050565b5f806040838503121561104a57611049610e2e565b5b5f61105785828601610e78565b925050602061106885828601610eab565b9150509250929050565b5f6020828403121561108757611086610e2e565b5b5f61109484828501610e78565b91505092915050565b7f4e487b71000000000000000000000000000000000000000000000000000000005f52601160045260245ffd5b5f6110d482610e8c565b91506110df83610e8c565b92508282026110ed81610e8c565b915082820484148315176111045761110361109d565b5b5092915050565b7f4e487b71000000000000000000000000000000000000000000000000000000005f52601260045260245ffd5b5f61114282610e8c565b915061114d83610e8c565b92508261115d5761115c61110b565b5b828204905092915050565b5f61117282610e8c565b915061117d83610e8c565b92508282039050818111156111955761119461109d565b5b92915050565b5f6080820190506111ae5f83018761100c565b6111bb602083018661100c565b6111c8604083018561100c565b6111d56060830184610fe4565b95945050505050565b5f6040820190506111f15f83018561100c565b6111fe602083018461100c565b9392505050565b5f8151905061121381610e95565b92915050565b5f6020828403121561122e5761122d610e2e565b5b5f61123b84828501611205565b91505092915050565b5f819050919050565b5f67ffffffffffffffff82169050919050565b5f819050919050565b5f61128361127e61127984611244565b611260565b61124d565b9050919050565b61129381611269565b82525050565b5f6020820190506112ac5f83018461128a565b92915050565b5f6060820190506112c55f83018661100c565b6112d2602083018561100c565b6112df6040830184610fe4565b949350505050565b6112f081610f73565b81146112fa575f80fd5b50565b5f8151905061130b816112e7565b92915050565b5f6020828403121561132657611325610e2e565b5b5f611333848285016112fd565b91505092915050565b5f81519050919050565b5f81905092915050565b8281835e5f83830152505050565b5f6113688261133c565b6113728185611346565b9350611382818560208601611350565b80840191505092915050565b5f611399828461135e565b91508190509291505056fea26469706673582212201621e9e04d8bf44612fafd88ef1273b990481d7da920dab94704a9de72bcabc964736f6c634300081a0033",
					"opcodes": "PUSH1 0x80 PUSH1 0x40 MSTORE CALLVALUE DUP1 ISZERO PUSH1 0xE JUMPI PUSH0 DUP1 REVERT JUMPDEST POP PUSH2 0x13DA DUP1 PUSH2 0x1C PUSH0 CODECOPY PUSH0 RETURN INVALID PUSH1 0x80 PUSH1 0x40 MSTORE CALLVALUE DUP1 ISZERO PUSH2 0xF JUMPI PUSH0 DUP1 REVERT JUMPDEST POP PUSH1 0x4 CALLDATASIZE LT PUSH2 0xA7 JUMPI PUSH0 CALLDATALOAD PUSH1 0xE0 SHR DUP1 PUSH4 0x8456CB59 GT PUSH2 0x6F JUMPI DUP1 PUSH4 0x8456CB59 EQ PUSH2 0x115 JUMPI DUP1 PUSH4 0x8B099B23 EQ PUSH2 0x11F JUMPI DUP1 PUSH4 0x8DA5CB5B EQ PUSH2 0x14F JUMPI DUP1 PUSH4 0xCD6DC687 EQ PUSH2 0x16D JUMPI DUP1 PUSH4 0xCE2C2DF1 EQ PUSH2 0x189 JUMPI DUP1 PUSH4 0xF2FDE38B EQ PUSH2 0x1A7 JUMPI PUSH2 0xA7 JUMP JUMPDEST DUP1 PUSH4 0xDE5E0E7 EQ PUSH2 0xAB JUMPI DUP1 PUSH4 0x3D18678E EQ PUSH2 0xC7 JUMPI DUP1 PUSH4 0x3F4BA83A EQ PUSH2 0xE3 JUMPI DUP1 PUSH4 0x5C975ABB EQ PUSH2 0xED JUMPI DUP1 PUSH4 0x715018A6 EQ PUSH2 0x10B JUMPI JUMPDEST PUSH0 DUP1 REVERT JUMPDEST PUSH2 0xC5 PUSH1 0x4 DUP1 CALLDATASIZE SUB DUP2 ADD SWAP1 PUSH2 0xC0 SWAP2 SWAP1 PUSH2 0xEBF JUMP JUMPDEST PUSH2 0x1C3 JUMP JUMPDEST STOP JUMPDEST PUSH2 0xE1 PUSH1 0x4 DUP1 CALLDATASIZE SUB DUP2 ADD SWAP1 PUSH2 0xDC SWAP2 SWAP1 PUSH2 0xF48 JUMP JUMPDEST PUSH2 0x2B7 JUMP JUMPDEST STOP JUMPDEST PUSH2 0xEB PUSH2 0x304 JUMP JUMPDEST STOP JUMPDEST PUSH2 0xF5 PUSH2 0x316 JUMP JUMPDEST PUSH1 0x40 MLOAD PUSH2 0x102 SWAP2 SWAP1 PUSH2 0xF8D JUMP JUMPDEST PUSH1 0x40 MLOAD DUP1 SWAP2 SUB SWAP1 RETURN JUMPDEST PUSH2 0x113 PUSH2 0x338 JUMP JUMPDEST STOP JUMPDEST PUSH2 0x11D PUSH2 0x34B JUMP JUMPDEST STOP JUMPDEST PUSH2 0x139 PUSH1 0x4 DUP1 CALLDATASIZE SUB DUP2 ADD SWAP1 PUSH2 0x134 SWAP2 SWAP1 PUSH2 0xFA6 JUMP JUMPDEST PUSH2 0x35D JUMP JUMPDEST PUSH1 0x40 MLOAD PUSH2 0x146 SWAP2 SWAP1 PUSH2 0xFF3 JUMP JUMPDEST PUSH1 0x40 MLOAD DUP1 SWAP2 SUB SWAP1 RETURN JUMPDEST PUSH2 0x157 PUSH2 0x3E5 JUMP JUMPDEST PUSH1 0x40 MLOAD PUSH2 0x164 SWAP2 SWAP1 PUSH2 0x101B JUMP JUMPDEST PUSH1 0x40 MLOAD DUP1 SWAP2 SUB SWAP1 RETURN JUMPDEST PUSH2 0x187 PUSH1 0x4 DUP1 CALLDATASIZE SUB DUP2 ADD SWAP1 PUSH2 0x182 SWAP2 SWAP1 PUSH2 0x1034 JUMP JUMPDEST PUSH2 0x41A JUMP JUMPDEST STOP JUMPDEST PUSH2 0x191 PUSH2 0x5B2 JUMP JUMPDEST PUSH1 0x40 MLOAD PUSH2 0x19E SWAP2 SWAP1 PUSH2 0xFF3 JUMP JUMPDEST PUSH1 0x40 MLOAD DUP1 SWAP2 SUB SWAP1 RETURN JUMPDEST PUSH2 0x1C1 PUSH1 0x4 DUP1 CALLDATASIZE SUB DUP2 ADD SWAP1 PUSH2 0x1BC SWAP2 SWAP1 PUSH2 0x1072 JUMP JUMPDEST PUSH2 0x5B7 JUMP JUMPDEST STOP JUMPDEST PUSH2 0x1CB PUSH2 0x63B JUMP JUMPDEST PUSH2 0x1D3 PUSH2 0x67C JUMP JUMPDEST PUSH0 DUP7 SWAP1 POP PUSH0 PUSH2 0x2710 PUSH0 SLOAD DUP8 PUSH2 0x1E8 SWAP2 SWAP1 PUSH2 0x10CA JUMP JUMPDEST PUSH2 0x1F2 SWAP2 SWAP1 PUSH2 0x1138 JUMP JUMPDEST SWAP1 POP PUSH0 DUP2 DUP8 PUSH2 0x201 SWAP2 SWAP1 PUSH2 0x1168 JUMP JUMPDEST SWAP1 POP PUSH2 0x237 CALLER PUSH2 0x20F PUSH2 0x3E5 JUMP JUMPDEST DUP5 DUP7 PUSH20 0xFFFFFFFFFFFFFFFFFFFFFFFFFFFFFFFFFFFFFFFF AND PUSH2 0x6D0 SWAP1 SWAP4 SWAP3 SWAP2 SWAP1 PUSH4 0xFFFFFFFF AND JUMP JUMPDEST PUSH2 0x264 CALLER DUP10 DUP4 DUP7 PUSH20 0xFFFFFFFFFFFFFFFFFFFFFFFFFFFFFFFFFFFFFFFF AND PUSH2 0x6D0 SWAP1 SWAP4 SWAP3 SWAP2 SWAP1 PUSH4 0xFFFFFFFF AND JUMP JUMPDEST DUP4 DUP6 DUP8 PUSH32 0xCCF4CBDBEBF44B8F817936435DFAA557D772265C6EEF9C54C198D3C873624F34 DUP13 CALLER DUP14 DUP8 PUSH1 0x40 MLOAD PUSH2 0x29C SWAP5 SWAP4 SWAP3 SWAP2 SWAP1 PUSH2 0x119B JUMP JUMPDEST PUSH1 0x40 MLOAD DUP1 SWAP2 SUB SWAP1 LOG4 POP POP POP PUSH2 0x2AF PUSH2 0x752 JUMP JUMPDEST POP POP POP POP POP POP JUMP JUMPDEST PUSH2 0x2BF PUSH2 0x769 JUMP JUMPDEST PUSH2 0x2710 DUP2 GT ISZERO PUSH2 0x2FB JUMPI PUSH1 0x40 MLOAD PUSH32 0xDF44072600000000000000000000000000000000000000000000000000000000 DUP2 MSTORE PUSH1 0x4 ADD PUSH1 0x40 MLOAD DUP1 SWAP2 SUB SWAP1 REVERT JUMPDEST DUP1 PUSH0 DUP2 SWAP1 SSTORE POP POP JUMP JUMPDEST PUSH2 0x30C PUSH2 0x769 JUMP JUMPDEST PUSH2 0x314 PUSH2 0x7F0 JUMP JUMPDEST JUMP JUMPDEST PUSH0 DUP1 PUSH2 0x320 PUSH2 0x85E JUMP JUMPDEST SWAP1 POP DUP1 PUSH0 ADD PUSH0 SWAP1 SLOAD SWAP1 PUSH2 0x100 EXP SWAP1 DIV PUSH1 0xFF AND SWAP2 POP POP SWAP1 JUMP JUMPDEST PUSH2 0x340 PUSH2 0x769 JUMP JUMPDEST PUSH2 0x349 PUSH0 PUSH2 0x885 JUMP JUMPDEST JUMP JUMPDEST PUSH2 0x353 PUSH2 0x769 JUMP JUMPDEST PUSH2 0x35B PUSH2 0x956 JUMP JUMPDEST JUMP JUMPDEST PUSH0 DUP1 DUP4 SWAP1 POP DUP1 PUSH20 0xFFFFFFFFFFFFFFFFFFFFFFFFFFFFFFFFFFFFFFFF AND PUSH4 0xDD62ED3E DUP5 ADDRESS PUSH1 0x40 MLOAD DUP4 PUSH4 0xFFFFFFFF AND PUSH1 0xE0 SHL DUP2 MSTORE PUSH1 0x4 ADD PUSH2 0x39D SWAP3 SWAP2 SWAP1 PUSH2 0x11DE JUMP JUMPDEST PUSH1 0x20 PUSH1 0x40 MLOAD DUP1 DUP4 SUB DUP2 DUP7 GAS STATICCALL ISZERO DUP1 ISZERO PUSH2 0x3B8 JUMPI RETURNDATASIZE PUSH0 DUP1 RETURNDATACOPY RETURNDATASIZE PUSH0 REVERT JUMPDEST POP POP POP POP PUSH1 0x40 MLOAD RETURNDATASIZE PUSH1 0x1F NOT PUSH1 0x1F DUP3 ADD AND DUP3 ADD DUP1 PUSH1 0x40 MSTORE POP DUP2 ADD SWAP1 PUSH2 0x3DC SWAP2 SWAP1 PUSH2 0x1219 JUMP JUMPDEST SWAP2 POP POP SWAP3 SWAP2 POP POP JUMP JUMPDEST PUSH0 DUP1 PUSH2 0x3EF PUSH2 0x9C5 JUMP JUMPDEST SWAP1 POP DUP1 PUSH0 ADD PUSH0 SWAP1 SLOAD SWAP1 PUSH2 0x100 EXP SWAP1 DIV PUSH20 0xFFFFFFFFFFFFFFFFFFFFFFFFFFFFFFFFFFFFFFFF AND SWAP2 POP POP SWAP1 JUMP JUMPDEST PUSH0 PUSH2 0x423 PUSH2 0x9EC JUMP JUMPDEST SWAP1 POP PUSH0 DUP2 PUSH0 ADD PUSH1 0x8 SWAP1 SLOAD SWAP1 PUSH2 0x100 EXP SWAP1 DIV PUSH1 0xFF AND ISZERO SWAP1 POP PUSH0 DUP3 PUSH0 ADD PUSH0 SWAP1 SLOAD SWAP1 PUSH2 0x100 EXP SWAP1 DIV PUSH8 0xFFFFFFFFFFFFFFFF AND SWAP1 POP PUSH0 DUP1 DUP3 PUSH8 0xFFFFFFFFFFFFFFFF AND EQ DUP1 ISZERO PUSH2 0x46B JUMPI POP DUP3 JUMPDEST SWAP1 POP PUSH0 PUSH1 0x1 DUP4 PUSH8 0xFFFFFFFFFFFFFFFF AND EQ DUP1 ISZERO PUSH2 0x49E JUMPI POP PUSH0 ADDRESS PUSH20 0xFFFFFFFFFFFFFFFFFFFFFFFFFFFFFFFFFFFFFFFF AND EXTCODESIZE EQ JUMPDEST SWAP1 POP DUP2 ISZERO DUP1 ISZERO PUSH2 0x4AC JUMPI POP DUP1 ISZERO JUMPDEST ISZERO PUSH2 0x4E3 JUMPI PUSH1 0x40 MLOAD PUSH32 0xF92EE8A900000000000000000000000000000000000000000000000000000000 DUP2 MSTORE PUSH1 0x4 ADD PUSH1 0x40 MLOAD DUP1 SWAP2 SUB SWAP1 REVERT JUMPDEST PUSH1 0x1 DUP6 PUSH0 ADD PUSH0 PUSH2 0x100 EXP DUP2 SLOAD DUP2 PUSH8 0xFFFFFFFFFFFFFFFF MUL NOT AND SWAP1 DUP4 PUSH8 0xFFFFFFFFFFFFFFFF AND MUL OR SWAP1 SSTORE POP DUP4 ISZERO PUSH2 0x530 JUMPI PUSH1 0x1 DUP6 PUSH0 ADD PUSH1 0x8 PUSH2 0x100 EXP DUP2 SLOAD DUP2 PUSH1 0xFF MUL NOT AND SWAP1 DUP4 ISZERO ISZERO MUL OR SWAP1 SSTORE POP JUMPDEST PUSH2 0x539 DUP8 PUSH2 0xA13 JUMP JUMPDEST PUSH2 0x541 PUSH2 0xA27 JUMP JUMPDEST PUSH2 0x549 PUSH2 0xA39 JUMP JUMPDEST DUP6 PUSH0 DUP2 SWAP1 SSTORE POP DUP4 ISZERO PUSH2 0x5A9 JUMPI PUSH0 DUP6 PUSH0 ADD PUSH1 0x8 PUSH2 0x100 EXP DUP2 SLOAD DUP2 PUSH1 0xFF MUL NOT AND SWAP1 DUP4 ISZERO ISZERO MUL OR SWAP1 SSTORE POP PUSH32 0xC7F505B2F371AE2175EE4913F4499E1F2633A7B5936321EED1CDAEB6115181D2 PUSH1 0x1 PUSH1 0x40 MLOAD PUSH2 0x5A0 SWAP2 SWAP1 PUSH2 0x1299 JUMP JUMPDEST PUSH1 0x40 MLOAD DUP1 SWAP2 SUB SWAP1 LOG1 JUMPDEST POP POP POP POP POP POP POP JUMP JUMPDEST PUSH0 SLOAD DUP2 JUMP JUMPDEST PUSH2 0x5BF PUSH2 0x769 JUMP JUMPDEST PUSH0 PUSH20 0xFFFFFFFFFFFFFFFFFFFFFFFFFFFFFFFFFFFFFFFF AND DUP2 PUSH20 0xFFFFFFFFFFFFFFFFFFFFFFFFFFFFFFFFFFFFFFFF AND SUB PUSH2 0x62F JUMPI PUSH0 PUSH1 0x40 MLOAD PUSH32 0x1E4FBDF700000000000000000000000000000000000000000000000000000000 DUP2 MSTORE PUSH1 0x4 ADD PUSH2 0x626 SWAP2 SWAP1 PUSH2 0x101B JUMP JUMPDEST PUSH1 0x40 MLOAD DUP1 SWAP2 SUB SWAP1 REVERT JUMPDEST PUSH2 0x638 DUP2 PUSH2 0x885 JUMP JUMPDEST POP JUMP JUMPDEST PUSH2 0x643 PUSH2 0x316 JUMP JUMPDEST ISZERO PUSH2 0x67A JUMPI PUSH1 0x40 MLOAD PUSH32 0xD93C066500000000000000000000000000000000000000000000000000000000 DUP2 MSTORE PUSH1 0x4 ADD PUSH1 0x40 MLOAD DUP1 SWAP2 SUB SWAP1 REVERT JUMPDEST JUMP JUMPDEST PUSH0 PUSH2 0x685 PUSH2 0xA4B JUMP JUMPDEST SWAP1 POP PUSH1 0x2 DUP2 PUSH0 ADD SLOAD SUB PUSH2 0x6C4 JUMPI PUSH1 0x40 MLOAD PUSH32 0x3EE5AEB500000000000000000000000000000000000000000000000000000000 DUP2 MSTORE PUSH1 0x4 ADD PUSH1 0x40 MLOAD DUP1 SWAP2 SUB SWAP1 REVERT JUMPDEST PUSH1 0x2 DUP2 PUSH0 ADD DUP2 SWAP1 SSTORE POP POP JUMP JUMPDEST PUSH2 0x74C DUP5 DUP6 PUSH20 0xFFFFFFFFFFFFFFFFFFFFFFFFFFFFFFFFFFFFFFFF AND PUSH4 0x23B872DD DUP7 DUP7 DUP7 PUSH1 0x40 MLOAD PUSH1 0x24 ADD PUSH2 0x705 SWAP4 SWAP3 SWAP2 SWAP1 PUSH2 0x12B2 JUMP JUMPDEST PUSH1 0x40 MLOAD PUSH1 0x20 DUP2 DUP4 SUB SUB DUP2 MSTORE SWAP1 PUSH1 0x40 MSTORE SWAP2 POP PUSH1 0xE0 SHL PUSH1 0x20 DUP3 ADD DUP1 MLOAD PUSH28 0xFFFFFFFFFFFFFFFFFFFFFFFFFFFFFFFFFFFFFFFFFFFFFFFFFFFFFFFF DUP4 DUP2 DUP4 AND OR DUP4 MSTORE POP POP POP POP PUSH2 0xA72 JUMP JUMPDEST POP POP POP POP JUMP JUMPDEST PUSH0 PUSH2 0x75B PUSH2 0xA4B JUMP JUMPDEST SWAP1 POP PUSH1 0x1 DUP2 PUSH0 ADD DUP2 SWAP1 SSTORE POP POP JUMP JUMPDEST PUSH2 0x771 PUSH2 0xB07 JUMP JUMPDEST PUSH20 0xFFFFFFFFFFFFFFFFFFFFFFFFFFFFFFFFFFFFFFFF AND PUSH2 0x78F PUSH2 0x3E5 JUMP JUMPDEST PUSH20 0xFFFFFFFFFFFFFFFFFFFFFFFFFFFFFFFFFFFFFFFF AND EQ PUSH2 0x7EE JUMPI PUSH2 0x7B2 PUSH2 0xB07 JUMP JUMPDEST PUSH1 0x40 MLOAD PUSH32 0x118CDAA700000000000000000000000000000000000000000000000000000000 DUP2 MSTORE PUSH1 0x4 ADD PUSH2 0x7E5 SWAP2 SWAP1 PUSH2 0x101B JUMP JUMPDEST PUSH1 0x40 MLOAD DUP1 SWAP2 SUB SWAP1 REVERT JUMPDEST JUMP JUMPDEST PUSH2 0x7F8 PUSH2 0xB0E JUMP JUMPDEST PUSH0 PUSH2 0x801 PUSH2 0x85E JUMP JUMPDEST SWAP1 POP PUSH0 DUP2 PUSH0 ADD PUSH0 PUSH2 0x100 EXP DUP2 SLOAD DUP2 PUSH1 0xFF MUL NOT AND SWAP1 DUP4 ISZERO ISZERO MUL OR SWAP1 SSTORE POP PUSH32 0x5DB9EE0A495BF2E6FF9C91A7834C1BA4FDD244A5E8AA4E537BD38AEAE4B073AA PUSH2 0x846 PUSH2 0xB07 JUMP JUMPDEST PUSH1 0x40 MLOAD PUSH2 0x853 SWAP2 SWAP1 PUSH2 0x101B JUMP JUMPDEST PUSH1 0x40 MLOAD DUP1 SWAP2 SUB SWAP1 LOG1 POP JUMP JUMPDEST PUSH0 PUSH32 0xCD5ED15C6E187E77E9AEE88184C21F4F2182AB5827CB3B7E07FBEDCD63F03300 SWAP1 POP SWAP1 JUMP JUMPDEST PUSH0 PUSH2 0x88E PUSH2 0x9C5 JUMP JUMPDEST SWAP1 POP PUSH0 DUP2 PUSH0 ADD PUSH0 SWAP1 SLOAD SWAP1 PUSH2 0x100 EXP SWAP1 DIV PUSH20 0xFFFFFFFFFFFFFFFFFFFFFFFFFFFFFFFFFFFFFFFF AND SWAP1 POP DUP3 DUP3 PUSH0 ADD PUSH0 PUSH2 0x100 EXP DUP2 SLOAD DUP2 PUSH20 0xFFFFFFFFFFFFFFFFFFFFFFFFFFFFFFFFFFFFFFFF MUL NOT AND SWAP1 DUP4 PUSH20 0xFFFFFFFFFFFFFFFFFFFFFFFFFFFFFFFFFFFFFFFF AND MUL OR SWAP1 SSTORE POP DUP3 PUSH20 0xFFFFFFFFFFFFFFFFFFFFFFFFFFFFFFFFFFFFFFFF AND DUP2 PUSH20 0xFFFFFFFFFFFFFFFFFFFFFFFFFFFFFFFFFFFFFFFF AND PUSH32 0x8BE0079C531659141344CD1FD0A4F28419497F9722A3DAAFE3B4186F6B6457E0 PUSH1 0x40 MLOAD PUSH1 0x40 MLOAD DUP1 SWAP2 SUB SWAP1 LOG3 POP POP POP JUMP JUMPDEST PUSH2 0x95E PUSH2 0x63B JUMP JUMPDEST PUSH0 PUSH2 0x967 PUSH2 0x85E JUMP JUMPDEST SWAP1 POP PUSH1 0x1 DUP2 PUSH0 ADD PUSH0 PUSH2 0x100 EXP DUP2 SLOAD DUP2 PUSH1 0xFF MUL NOT AND SWAP1 DUP4 ISZERO ISZERO MUL OR SWAP1 SSTORE POP PUSH32 0x62E78CEA01BEE320CD4E420270B5EA74000D11B0C9F74754EBDBFC544B05A258 PUSH2 0x9AD PUSH2 0xB07 JUMP JUMPDEST PUSH1 0x40 MLOAD PUSH2 0x9BA SWAP2 SWAP1 PUSH2 0x101B JUMP JUMPDEST PUSH1 0x40 MLOAD DUP1 SWAP2 SUB SWAP1 LOG1 POP JUMP JUMPDEST PUSH0 PUSH32 0x9016D09D72D40FDAE2FD8CEAC6B6234C7706214FD39C1CD1E609A0528C199300 SWAP1 POP SWAP1 JUMP JUMPDEST PUSH0 PUSH32 0xF0C57E16840DF040F15088DC2F81FE391C3923BEC73E23A9662EFC9C229C6A00 SWAP1 POP SWAP1 JUMP JUMPDEST PUSH2 0xA1B PUSH2 0xB4E JUMP JUMPDEST PUSH2 0xA24 DUP2 PUSH2 0xB8E JUMP JUMPDEST POP JUMP JUMPDEST PUSH2 0xA2F PUSH2 0xB4E JUMP JUMPDEST PUSH2 0xA37 PUSH2 0xC12 JUMP JUMPDEST JUMP JUMPDEST PUSH2 0xA41 PUSH2 0xB4E JUMP JUMPDEST PUSH2 0xA49 PUSH2 0xC31 JUMP JUMPDEST JUMP JUMPDEST PUSH0 PUSH32 0x9B779B17422D0DF92223018B32B4D1FA46E071723D6817E2486D003BECC55F00 SWAP1 POP SWAP1 JUMP JUMPDEST PUSH0 PUSH2 0xA9C DUP3 DUP5 PUSH20 0xFFFFFFFFFFFFFFFFFFFFFFFFFFFFFFFFFFFFFFFF AND PUSH2 0xC61 SWAP1 SWAP2 SWAP1 PUSH4 0xFFFFFFFF AND JUMP JUMPDEST SWAP1 POP PUSH0 DUP2 MLOAD EQ ISZERO DUP1 ISZERO PUSH2 0xAC0 JUMPI POP DUP1 DUP1 PUSH1 0x20 ADD SWAP1 MLOAD DUP2 ADD SWAP1 PUSH2 0xABE SWAP2 SWAP1 PUSH2 0x1311 JUMP JUMPDEST ISZERO JUMPDEST ISZERO PUSH2 0xB02 JUMPI DUP3 PUSH1 0x40 MLOAD PUSH32 0x5274AFE700000000000000000000000000000000000000000000000000000000 DUP2 MSTORE PUSH1 0x4 ADD PUSH2 0xAF9 SWAP2 SWAP1 PUSH2 0x101B JUMP JUMPDEST PUSH1 0x40 MLOAD DUP1 SWAP2 SUB SWAP1 REVERT JUMPDEST POP POP POP JUMP JUMPDEST PUSH0 CALLER SWAP1 POP SWAP1 JUMP JUMPDEST PUSH2 0xB16 PUSH2 0x316 JUMP JUMPDEST PUSH2 0xB4C JUMPI PUSH1 0x40 MLOAD PUSH32 0x8DFC202B00000000000000000000000000000000000000000000000000000000 DUP2 MSTORE PUSH1 0x4 ADD PUSH1 0x40 MLOAD DUP1 SWAP2 SUB SWAP1 REVERT JUMPDEST JUMP JUMPDEST PUSH2 0xB56 PUSH2 0xC76 JUMP JUMPDEST PUSH2 0xB8C JUMPI PUSH1 0x40 MLOAD PUSH32 0xD7E6BCF800000000000000000000000000000000000000000000000000000000 DUP2 MSTORE PUSH1 0x4 ADD PUSH1 0x40 MLOAD DUP1 SWAP2 SUB SWAP1 REVERT JUMPDEST JUMP JUMPDEST PUSH2 0xB96 PUSH2 0xB4E JUMP JUMPDEST PUSH0 PUSH20 0xFFFFFFFFFFFFFFFFFFFFFFFFFFFFFFFFFFFFFFFF AND DUP2 PUSH20 0xFFFFFFFFFFFFFFFFFFFFFFFFFFFFFFFFFFFFFFFF AND SUB PUSH2 0xC06 JUMPI PUSH0 PUSH1 0x40 MLOAD PUSH32 0x1E4FBDF700000000000000000000000000000000000000000000000000000000 DUP2 MSTORE PUSH1 0x4 ADD PUSH2 0xBFD SWAP2 SWAP1 PUSH2 0x101B JUMP JUMPDEST PUSH1 0x40 MLOAD DUP1 SWAP2 SUB SWAP1 REVERT JUMPDEST PUSH2 0xC0F DUP2 PUSH2 0x885 JUMP JUMPDEST POP JUMP JUMPDEST PUSH2 0xC1A PUSH2 0xB4E JUMP JUMPDEST PUSH0 PUSH2 0xC23 PUSH2 0xA4B JUMP JUMPDEST SWAP1 POP PUSH1 0x1 DUP2 PUSH0 ADD DUP2 SWAP1 SSTORE POP POP JUMP JUMPDEST PUSH2 0xC39 PUSH2 0xB4E JUMP JUMPDEST PUSH0 PUSH2 0xC42 PUSH2 0x85E JUMP JUMPDEST SWAP1 POP PUSH0 DUP2 PUSH0 ADD PUSH0 PUSH2 0x100 EXP DUP2 SLOAD DUP2 PUSH1 0xFF MUL NOT AND SWAP1 DUP4 ISZERO ISZERO MUL OR SWAP1 SSTORE POP POP JUMP JUMPDEST PUSH1 0x60 PUSH2 0xC6E DUP4 DUP4 PUSH0 PUSH2 0xC94 JUMP JUMPDEST SWAP1 POP SWAP3 SWAP2 POP POP JUMP JUMPDEST PUSH0 PUSH2 0xC7F PUSH2 0x9EC JUMP JUMPDEST PUSH0 ADD PUSH1 0x8 SWAP1 SLOAD SWAP1 PUSH2 0x100 EXP SWAP1 DIV PUSH1 0xFF AND SWAP1 POP SWAP1 JUMP JUMPDEST PUSH1 0x60 DUP2 SELFBALANCE LT ISZERO PUSH2 0xCDB JUMPI ADDRESS PUSH1 0x40 MLOAD PUSH32 0xCD78605900000000000000000000000000000000000000000000000000000000 DUP2 MSTORE PUSH1 0x4 ADD PUSH2 0xCD2 SWAP2 SWAP1 PUSH2 0x101B JUMP JUMPDEST PUSH1 0x40 MLOAD DUP1 SWAP2 SUB SWAP1 REVERT JUMPDEST PUSH0 DUP1 DUP6 PUSH20 0xFFFFFFFFFFFFFFFFFFFFFFFFFFFFFFFFFFFFFFFF AND DUP5 DUP7 PUSH1 0x40 MLOAD PUSH2 0xD03 SWAP2 SWAP1 PUSH2 0x138E JUMP JUMPDEST PUSH0 PUSH1 0x40 MLOAD DUP1 DUP4 SUB DUP2 DUP6 DUP8 GAS CALL SWAP3 POP POP POP RETURNDATASIZE DUP1 PUSH0 DUP2 EQ PUSH2 0xD3D JUMPI PUSH1 0x40 MLOAD SWAP2 POP PUSH1 0x1F NOT PUSH1 0x3F RETURNDATASIZE ADD AND DUP3 ADD PUSH1 0x40 MSTORE RETURNDATASIZE DUP3 MSTORE RETURNDATASIZE PUSH0 PUSH1 0x20 DUP5 ADD RETURNDATACOPY PUSH2 0xD42 JUMP JUMPDEST PUSH1 0x60 SWAP2 POP JUMPDEST POP SWAP2 POP SWAP2 POP PUSH2 0xD52 DUP7 DUP4 DUP4 PUSH2 0xD5D JUMP JUMPDEST SWAP3 POP POP POP SWAP4 SWAP3 POP POP POP JUMP JUMPDEST PUSH1 0x60 DUP3 PUSH2 0xD72 JUMPI PUSH2 0xD6D DUP3 PUSH2 0xDEA JUMP JUMPDEST PUSH2 0xDE2 JUMP JUMPDEST PUSH0 DUP3 MLOAD EQ DUP1 ISZERO PUSH2 0xD98 JUMPI POP PUSH0 DUP5 PUSH20 0xFFFFFFFFFFFFFFFFFFFFFFFFFFFFFFFFFFFFFFFF AND EXTCODESIZE EQ JUMPDEST ISZERO PUSH2 0xDDA JUMPI DUP4 PUSH1 0x40 MLOAD PUSH32 0x9996B31500000000000000000000000000000000000000000000000000000000 DUP2 MSTORE PUSH1 0x4 ADD PUSH2 0xDD1 SWAP2 SWAP1 PUSH2 0x101B JUMP JUMPDEST PUSH1 0x40 MLOAD DUP1 SWAP2 SUB SWAP1 REVERT JUMPDEST DUP2 SWAP1 POP PUSH2 0xDE3 JUMP JUMPDEST JUMPDEST SWAP4 SWAP3 POP POP POP JUMP JUMPDEST PUSH0 DUP2 MLOAD GT ISZERO PUSH2 0xDFC JUMPI DUP1 MLOAD DUP1 DUP3 PUSH1 0x20 ADD REVERT JUMPDEST PUSH1 0x40 MLOAD PUSH32 0x1425EA4200000000000000000000000000000000000000000000000000000000 DUP2 MSTORE PUSH1 0x4 ADD PUSH1 0x40 MLOAD DUP1 SWAP2 SUB SWAP1 REVERT JUMPDEST PUSH0 DUP1 REVERT JUMPDEST PUSH0 PUSH20 0xFFFFFFFFFFFFFFFFFFFFFFFFFFFFFFFFFFFFFFFF DUP3 AND SWAP1 POP SWAP2 SWAP1 POP JUMP JUMPDEST PUSH0 PUSH2 0xE5B DUP3 PUSH2 0xE32 JUMP JUMPDEST SWAP1 POP SWAP2 SWAP1 POP JUMP JUMPDEST PUSH2 0xE6B DUP2 PUSH2 0xE51 JUMP JUMPDEST DUP2 EQ PUSH2 0xE75 JUMPI PUSH0 DUP1 REVERT JUMPDEST POP JUMP JUMPDEST PUSH0 DUP2 CALLDATALOAD SWAP1 POP PUSH2 0xE86 DUP2 PUSH2 0xE62 JUMP JUMPDEST SWAP3 SWAP2 POP POP JUMP JUMPDEST PUSH0 DUP2 SWAP1 POP SWAP2 SWAP1 POP JUMP JUMPDEST PUSH2 0xE9E DUP2 PUSH2 0xE8C JUMP JUMPDEST DUP2 EQ PUSH2 0xEA8 JUMPI PUSH0 DUP1 REVERT JUMPDEST POP JUMP JUMPDEST PUSH0 DUP2 CALLDATALOAD SWAP1 POP PUSH2 0xEB9 DUP2 PUSH2 0xE95 JUMP JUMPDEST SWAP3 SWAP2 POP POP JUMP JUMPDEST PUSH0 DUP1 PUSH0 DUP1 PUSH0 DUP1 PUSH1 0xC0 DUP8 DUP10 SUB SLT ISZERO PUSH2 0xED9 JUMPI PUSH2 0xED8 PUSH2 0xE2E JUMP JUMPDEST JUMPDEST PUSH0 PUSH2 0xEE6 DUP10 DUP3 DUP11 ADD PUSH2 0xE78 JUMP JUMPDEST SWAP7 POP POP PUSH1 0x20 PUSH2 0xEF7 DUP10 DUP3 DUP11 ADD PUSH2 0xE78 JUMP JUMPDEST SWAP6 POP POP PUSH1 0x40 PUSH2 0xF08 DUP10 DUP3 DUP11 ADD PUSH2 0xEAB JUMP JUMPDEST SWAP5 POP POP PUSH1 0x60 PUSH2 0xF19 DUP10 DUP3 DUP11 ADD PUSH2 0xEAB JUMP JUMPDEST SWAP4 POP POP PUSH1 0x80 PUSH2 0xF2A DUP10 DUP3 DUP11 ADD PUSH2 0xEAB JUMP JUMPDEST SWAP3 POP POP PUSH1 0xA0 PUSH2 0xF3B DUP10 DUP3 DUP11 ADD PUSH2 0xEAB JUMP JUMPDEST SWAP2 POP POP SWAP3 SWAP6 POP SWAP3 SWAP6 POP SWAP3 SWAP6 JUMP JUMPDEST PUSH0 PUSH1 0x20 DUP3 DUP5 SUB SLT ISZERO PUSH2 0xF5D JUMPI PUSH2 0xF5C PUSH2 0xE2E JUMP JUMPDEST JUMPDEST PUSH0 PUSH2 0xF6A DUP5 DUP3 DUP6 ADD PUSH2 0xEAB JUMP JUMPDEST SWAP2 POP POP SWAP3 SWAP2 POP POP JUMP JUMPDEST PUSH0 DUP2 ISZERO ISZERO SWAP1 POP SWAP2 SWAP1 POP JUMP JUMPDEST PUSH2 0xF87 DUP2 PUSH2 0xF73 JUMP JUMPDEST DUP3 MSTORE POP POP JUMP JUMPDEST PUSH0 PUSH1 0x20 DUP3 ADD SWAP1 POP PUSH2 0xFA0 PUSH0 DUP4 ADD DUP5 PUSH2 0xF7E JUMP JUMPDEST SWAP3 SWAP2 POP POP JUMP JUMPDEST PUSH0 DUP1 PUSH1 0x40 DUP4 DUP6 SUB SLT ISZERO PUSH2 0xFBC JUMPI PUSH2 0xFBB PUSH2 0xE2E JUMP JUMPDEST JUMPDEST PUSH0 PUSH2 0xFC9 DUP6 DUP3 DUP7 ADD PUSH2 0xE78 JUMP JUMPDEST SWAP3 POP POP PUSH1 0x20 PUSH2 0xFDA DUP6 DUP3 DUP7 ADD PUSH2 0xE78 JUMP JUMPDEST SWAP2 POP POP SWAP3 POP SWAP3 SWAP1 POP JUMP JUMPDEST PUSH2 0xFED DUP2 PUSH2 0xE8C JUMP JUMPDEST DUP3 MSTORE POP POP JUMP JUMPDEST PUSH0 PUSH1 0x20 DUP3 ADD SWAP1 POP PUSH2 0x1006 PUSH0 DUP4 ADD DUP5 PUSH2 0xFE4 JUMP JUMPDEST SWAP3 SWAP2 POP POP JUMP JUMPDEST PUSH2 0x1015 DUP2 PUSH2 0xE51 JUMP JUMPDEST DUP3 MSTORE POP POP JUMP JUMPDEST PUSH0 PUSH1 0x20 DUP3 ADD SWAP1 POP PUSH2 0x102E PUSH0 DUP4 ADD DUP5 PUSH2 0x100C JUMP JUMPDEST SWAP3 SWAP2 POP POP JUMP JUMPDEST PUSH0 DUP1 PUSH1 0x40 DUP4 DUP6 SUB SLT ISZERO PUSH2 0x104A JUMPI PUSH2 0x1049 PUSH2 0xE2E JUMP JUMPDEST JUMPDEST PUSH0 PUSH2 0x1057 DUP6 DUP3 DUP7 ADD PUSH2 0xE78 JUMP JUMPDEST SWAP3 POP POP PUSH1 0x20 PUSH2 0x1068 DUP6 DUP3 DUP7 ADD PUSH2 0xEAB JUMP JUMPDEST SWAP2 POP POP SWAP3 POP SWAP3 SWAP1 POP JUMP JUMPDEST PUSH0 PUSH1 0x20 DUP3 DUP5 SUB SLT ISZERO PUSH2 0x1087 JUMPI PUSH2 0x1086 PUSH2 0xE2E JUMP JUMPDEST JUMPDEST PUSH0 PUSH2 0x1094 DUP5 DUP3 DUP6 ADD PUSH2 0xE78 JUMP JUMPDEST SWAP2 POP POP SWAP3 SWAP2 POP POP JUMP JUMPDEST PUSH32 0x4E487B7100000000000000000000000000000000000000000000000000000000 PUSH0 MSTORE PUSH1 0x11 PUSH1 0x4 MSTORE PUSH1 0x24 PUSH0 REVERT JUMPDEST PUSH0 PUSH2 0x10D4 DUP3 PUSH2 0xE8C JUMP JUMPDEST SWAP2 POP PUSH2 0x10DF DUP4 PUSH2 0xE8C JUMP JUMPDEST SWAP3 POP DUP3 DUP3 MUL PUSH2 0x10ED DUP2 PUSH2 0xE8C JUMP JUMPDEST SWAP2 POP DUP3 DUP3 DIV DUP5 EQ DUP4 ISZERO OR PUSH2 0x1104 JUMPI PUSH2 0x1103 PUSH2 0x109D JUMP JUMPDEST JUMPDEST POP SWAP3 SWAP2 POP POP JUMP JUMPDEST PUSH32 0x4E487B7100000000000000000000000000000000000000000000000000000000 PUSH0 MSTORE PUSH1 0x12 PUSH1 0x4 MSTORE PUSH1 0x24 PUSH0 REVERT JUMPDEST PUSH0 PUSH2 0x1142 DUP3 PUSH2 0xE8C JUMP JUMPDEST SWAP2 POP PUSH2 0x114D DUP4 PUSH2 0xE8C JUMP JUMPDEST SWAP3 POP DUP3 PUSH2 0x115D JUMPI PUSH2 0x115C PUSH2 0x110B JUMP JUMPDEST JUMPDEST DUP3 DUP3 DIV SWAP1 POP SWAP3 SWAP2 POP POP JUMP JUMPDEST PUSH0 PUSH2 0x1172 DUP3 PUSH2 0xE8C JUMP JUMPDEST SWAP2 POP PUSH2 0x117D DUP4 PUSH2 0xE8C JUMP JUMPDEST SWAP3 POP DUP3 DUP3 SUB SWAP1 POP DUP2 DUP2 GT ISZERO PUSH2 0x1195 JUMPI PUSH2 0x1194 PUSH2 0x109D JUMP JUMPDEST JUMPDEST SWAP3 SWAP2 POP POP JUMP JUMPDEST PUSH0 PUSH1 0x80 DUP3 ADD SWAP1 POP PUSH2 0x11AE PUSH0 DUP4 ADD DUP8 PUSH2 0x100C JUMP JUMPDEST PUSH2 0x11BB PUSH1 0x20 DUP4 ADD DUP7 PUSH2 0x100C JUMP JUMPDEST PUSH2 0x11C8 PUSH1 0x40 DUP4 ADD DUP6 PUSH2 0x100C JUMP JUMPDEST PUSH2 0x11D5 PUSH1 0x60 DUP4 ADD DUP5 PUSH2 0xFE4 JUMP JUMPDEST SWAP6 SWAP5 POP POP POP POP POP JUMP JUMPDEST PUSH0 PUSH1 0x40 DUP3 ADD SWAP1 POP PUSH2 0x11F1 PUSH0 DUP4 ADD DUP6 PUSH2 0x100C JUMP JUMPDEST PUSH2 0x11FE PUSH1 0x20 DUP4 ADD DUP5 PUSH2 0x100C JUMP JUMPDEST SWAP4 SWAP3 POP POP POP JUMP JUMPDEST PUSH0 DUP2 MLOAD SWAP1 POP PUSH2 0x1213 DUP2 PUSH2 0xE95 JUMP JUMPDEST SWAP3 SWAP2 POP POP JUMP JUMPDEST PUSH0 PUSH1 0x20 DUP3 DUP5 SUB SLT ISZERO PUSH2 0x122E JUMPI PUSH2 0x122D PUSH2 0xE2E JUMP JUMPDEST JUMPDEST PUSH0 PUSH2 0x123B DUP5 DUP3 DUP6 ADD PUSH2 0x1205 JUMP JUMPDEST SWAP2 POP POP SWAP3 SWAP2 POP POP JUMP JUMPDEST PUSH0 DUP2 SWAP1 POP SWAP2 SWAP1 POP JUMP JUMPDEST PUSH0 PUSH8 0xFFFFFFFFFFFFFFFF DUP3 AND SWAP1 POP SWAP2 SWAP1 POP JUMP JUMPDEST PUSH0 DUP2 SWAP1 POP SWAP2 SWAP1 POP JUMP JUMPDEST PUSH0 PUSH2 0x1283 PUSH2 0x127E PUSH2 0x1279 DUP5 PUSH2 0x1244 JUMP JUMPDEST PUSH2 0x1260 JUMP JUMPDEST PUSH2 0x124D JUMP JUMPDEST SWAP1 POP SWAP2 SWAP1 POP JUMP JUMPDEST PUSH2 0x1293 DUP2 PUSH2 0x1269 JUMP JUMPDEST DUP3 MSTORE POP POP JUMP JUMPDEST PUSH0 PUSH1 0x20 DUP3 ADD SWAP1 POP PUSH2 0x12AC PUSH0 DUP4 ADD DUP5 PUSH2 0x128A JUMP JUMPDEST SWAP3 SWAP2 POP POP JUMP JUMPDEST PUSH0 PUSH1 0x60 DUP3 ADD SWAP1 POP PUSH2 0x12C5 PUSH0 DUP4 ADD DUP7 PUSH2 0x100C JUMP JUMPDEST PUSH2 0x12D2 PUSH1 0x20 DUP4 ADD DUP6 PUSH2 0x100C JUMP JUMPDEST PUSH2 0x12DF PUSH1 0x40 DUP4 ADD DUP5 PUSH2 0xFE4 JUMP JUMPDEST SWAP5 SWAP4 POP POP POP POP JUMP JUMPDEST PUSH2 0x12F0 DUP2 PUSH2 0xF73 JUMP JUMPDEST DUP2 EQ PUSH2 0x12FA JUMPI PUSH0 DUP1 REVERT JUMPDEST POP JUMP JUMPDEST PUSH0 DUP2 MLOAD SWAP1 POP PUSH2 0x130B DUP2 PUSH2 0x12E7 JUMP JUMPDEST SWAP3 SWAP2 POP POP JUMP JUMPDEST PUSH0 PUSH1 0x20 DUP3 DUP5 SUB SLT ISZERO PUSH2 0x1326 JUMPI PUSH2 0x1325 PUSH2 0xE2E JUMP JUMPDEST JUMPDEST PUSH0 PUSH2 0x1333 DUP5 DUP3 DUP6 ADD PUSH2 0x12FD JUMP JUMPDEST SWAP2 POP POP SWAP3 SWAP2 POP POP JUMP JUMPDEST PUSH0 DUP2 MLOAD SWAP1 POP SWAP2 SWAP1 POP JUMP JUMPDEST PUSH0 DUP2 SWAP1 POP SWAP3 SWAP2 POP POP JUMP JUMPDEST DUP3 DUP2 DUP4 MCOPY PUSH0 DUP4 DUP4 ADD MSTORE POP POP POP JUMP JUMPDEST PUSH0 PUSH2 0x1368 DUP3 PUSH2 0x133C JUMP JUMPDEST PUSH2 0x1372 DUP2 DUP6 PUSH2 0x1346 JUMP JUMPDEST SWAP4 POP PUSH2 0x1382 DUP2 DUP6 PUSH1 0x20 DUP7 ADD PUSH2 0x1350 JUMP JUMPDEST DUP1 DUP5 ADD SWAP2 POP POP SWAP3 SWAP2 POP POP JUMP JUMPDEST PUSH0 PUSH2 0x1399 DUP3 DUP5 PUSH2 0x135E JUMP JUMPDEST SWAP2 POP DUP2 SWAP1 POP SWAP3 SWAP2 POP POP JUMP INVALID LOG2 PUSH5 0x6970667358 0x22 SLT KECCAK256 AND 0x21 0xE9 0xE0 0x4D DUP12 DELEGATECALL CHAINID SLT STATICCALL REVERT DUP9 0xEF SLT PUSH20 0xB990481D7DA920DAB94704A9DE72BCABC964736F PUSH13 0x634300081A0033000000000000 "
				},
				"gasEstimates": {
					"creation": {
						"codeDepositCost": "1016400",
						"executionCost": "1052",
						"totalCost": "1017452"
					},
					"external": {
						"checkAllowance(address,address)": "infinite",
						"feesBps()": "2512",
						"initialize(address,uint256)": "infinite",
						"owner()": "2611",
						"pause()": "infinite",
						"paused()": "2592",
						"renounceOwnership()": "infinite",
						"setFees(uint256)": "infinite",
						"tip(address,address,uint256,uint256,uint256,uint256)": "infinite",
						"transferOwnership(address)": "infinite",
						"unpause()": "infinite"
					}
				},
				"methodIdentifiers": {
					"checkAllowance(address,address)": "8b099b23",
					"feesBps()": "ce2c2df1",
					"initialize(address,uint256)": "cd6dc687",
					"owner()": "8da5cb5b",
					"pause()": "8456cb59",
					"paused()": "5c975abb",
					"renounceOwnership()": "715018a6",
					"setFees(uint256)": "3d18678e",
					"tip(address,address,uint256,uint256,uint256,uint256)": "0de5e0e7",
					"transferOwnership(address)": "f2fde38b",
					"unpause()": "3f4ba83a"
				}
			},
			"storageLayout": {
				"storage": [
					{
						"astId": 1480,
						"contract": "contracts/Tipping.sol:Tipping",
						"label": "feesBps",
						"offset": 0,
						"slot": "0",
						"type": "t_uint256"
					}
				],
				"types": {
					"t_uint256": {
						"encoding": "inplace",
						"label": "uint256",
						"numberOfBytes": "32"
					}
				}
			},
			"userdoc": {
				"kind": "user",
				"methods": {},
				"version": 1
			}
		}
	}
}