{
	"data": {
		"bytecode": {
			"linkReferences": {},
			"object": "6080604052348015600e575f80fd5b506113da8061001c5f395ff3fe608060405234801561000f575f80fd5b50600436106100a7575f3560e01c80638456cb591161006f5780638456cb59146101155780638b099b231461011f5780638da5cb5b1461014f578063cd6dc6871461016d578063ce2c2df114610189578063f2fde38b146101a7576100a7565b80630de5e0e7146100ab5780633d18678e146100c75780633f4ba83a146100e35780635c975abb146100ed578063715018a61461010b575b5f80fd5b6100c560048036038101906100c09190610ebf565b6101c3565b005b6100e160048036038101906100dc9190610f48565b6102b7565b005b6100eb610304565b005b6100f5610316565b6040516101029190610f8d565b60405180910390f35b610113610338565b005b61011d61034b565b005b61013960048036038101906101349190610fa6565b61035d565b6040516101469190610ff3565b60405180910390f35b6101576103e5565b604051610164919061101b565b60405180910390f35b61018760048036038101906101829190611034565b61041a565b005b6101916105b2565b60405161019e9190610ff3565b60405180910390f35b6101c160048036038101906101bc9190611072565b6105b7565b005b6101cb61063b565b6101d361067c565b5f8690505f6127105f54876101e891906110ca565b6101f29190611138565b90505f81876102019190611168565b90506102373361020f6103e5565b848673ffffffffffffffffffffffffffffffffffffffff166106d0909392919063ffffffff16565b6102643389838673ffffffffffffffffffffffffffffffffffffffff166106d0909392919063ffffffff16565b8385877fccf4cbdbebf44b8f817936435dfaa557d772265c6eef9c54c198d3c873624f348c338d8760405161029c949392919061119b565b60405180910390a45050506102af610752565b505050505050565b6102bf610769565b6127108111156102fb576040517fdf44072600000000000000000000000000000000000000000000000000000000815260040160405180910390fd5b805f8190555050565b61030c610769565b6103146107f0565b565b5f8061032061085e565b9050805f015f9054906101000a900460ff1691505090565b610340610769565b6103495f610885565b565b610353610769565b61035b610956565b565b5f808390508073ffffffffffffffffffffffffffffffffffffffff1663dd62ed3e84306040518363ffffffff1660e01b815260040161039d9291906111de565b602060405180830381865afa1580156103b8573d5f803e3d5ffd5b505050506040513d601f19601f820116820180604052508101906103dc9190611219565b91505092915050565b5f806103ef6109c5565b9050805f015f9054906101000a900473ffffffffffffffffffffffffffffffffffffffff1691505090565b5f6104236109ec565b90505f815f0160089054906101000a900460ff161590505f825f015f9054906101000a900467ffffffffffffffff1690505f808267ffffffffffffffff1614801561046b5750825b90505f60018367ffffffffffffffff1614801561049e57505f3073ffffffffffffffffffffffffffffffffffffffff163b145b9050811580156104ac575080155b156104e3576040517ff92ee8a900000000000000000000000000000000000000000000000000000000815260040160405180910390fd5b6001855f015f6101000a81548167ffffffffffffffff021916908367ffffffffffffffff1602179055508315610530576001855f0160086101000a81548160ff0219169083151502179055505b61053987610a13565b610541610a27565b610549610a39565b855f8190555083156105a9575f855f0160086101000a81548160ff0219169083151502179055507fc7f505b2f371ae2175ee4913f4499e1f2633a7b5936321eed1cdaeb6115181d260016040516105a09190611299565b60405180910390a15b50505050505050565b5f5481565b6105bf610769565b5f73ffffffffffffffffffffffffffffffffffffffff168173ffffffffffffffffffffffffffffffffffffffff160361062f575f6040517f1e4fbdf7000000000000000000000000000000000000000000000000000000008152600401610626919061101b565b60405180910390fd5b61063881610885565b50565b610643610316565b1561067a576040517fd93c066500000000000000000000000000000000000000000000000000000000815260040160405180910390fd5b565b5f610685610a4b565b90506002815f0154036106c4576040517f3ee5aeb500000000000000000000000000000000000000000000000000000000815260040160405180910390fd5b6002815f018190555050565b61074c848573ffffffffffffffffffffffffffffffffffffffff166323b872dd868686604051602401610705939291906112b2565b604051602081830303815290604052915060e01b6020820180517bffffffffffffffffffffffffffffffffffffffffffffffffffffffff8381831617835250505050610a72565b50505050565b5f61075b610a4b565b90506001815f018190555050565b610771610b07565b73ffffffffffffffffffffffffffffffffffffffff1661078f6103e5565b73ffffffffffffffffffffffffffffffffffffffff16146107ee576107b2610b07565b6040517f118cdaa70000000000000000000000000000000000000000000000000000000081526004016107e5919061101b565b60405180910390fd5b565b6107f8610b0e565b5f61080161085e565b90505f815f015f6101000a81548160ff0219169083151502179055507f5db9ee0a495bf2e6ff9c91a7834c1ba4fdd244a5e8aa4e537bd38aeae4b073aa610846610b07565b604051610853919061101b565b60405180910390a150565b5f7fcd5ed15c6e187e77e9aee88184c21f4f2182ab5827cb3b7e07fbedcd63f03300905090565b5f61088e6109c5565b90505f815f015f9054906101000a900473ffffffffffffffffffffffffffffffffffffffff16905082825f015f6101000a81548173ffffffffffffffffffffffffffffffffffffffff021916908373ffffffffffffffffffffffffffffffffffffffff1602179055508273ffffffffffffffffffffffffffffffffffffffff168173ffffffffffffffffffffffffffffffffffffffff167f8be0079c531659141344cd1fd0a4f28419497f9722a3daafe3b4186f6b6457e060405160405180910390a3505050565b61095e61063b565b5f61096761085e565b90506001815f015f6101000a81548160ff0219169083151502179055507f62e78cea01bee320cd4e420270b5ea74000d11b0c9f74754ebdbfc544b05a2586109ad610b07565b6040516109ba919061101b565b60405180910390a150565b5f7f9016d09d72d40fdae2fd8ceac6b6234c7706214fd39c1cd1e609a0528c199300905090565b5f7ff0c57e16840df040f15088dc2f81fe391c3923bec73e23a9662efc9c229c6a00905090565b610a1b610b4e565b610a2481610b8e565b50565b610a2f610b4e565b610a37610c12565b565b610a41610b4e565b610a49610c31565b565b5f7f9b779b17422d0df92223018b32b4d1fa46e071723d6817e2486d003becc55f00905090565b5f610a9c828473ffffffffffffffffffffffffffffffffffffffff16610c6190919063ffffffff16565b90505f815114158015610ac0575080806020019051810190610abe9190611311565b155b15610b0257826040517f5274afe7000000000000000000000000000000000000000000000000000000008152600401610af9919061101b565b60405180910390fd5b505050565b5f33905090565b610b16610316565b610b4c576040517f8dfc202b00000000000000000000000000000000000000000000000000000000815260040160405180910390fd5b565b610b56610c76565b610b8c576040517fd7e6bcf800000000000000000000000000000000000000000000000000000000815260040160405180910390fd5b565b610b96610b4e565b5f73ffffffffffffffffffffffffffffffffffffffff168173ffffffffffffffffffffffffffffffffffffffff1603610c06575f6040517f1e4fbdf7000000000000000000000000000000000000000000000000000000008152600401610bfd919061101b565b60405180910390fd5b610c0f81610885565b50565b610c1a610b4e565b5f610c23610a4b565b90506001815f018190555050565b610c39610b4e565b5f610c4261085e565b90505f815f015f6101000a81548160ff02191690831515021790555050565b6060610c6e83835f610c94565b905092915050565b5f610c7f6109ec565b5f0160089054906101000a900460ff16905090565b606081471015610cdb57306040517fcd786059000000000000000000000000000000000000000000000000000000008152600401610cd2919061101b565b60405180910390fd5b5f808573ffffffffffffffffffffffffffffffffffffffff168486604051610d03919061138e565b5f6040518083038185875af1925050503d805f8114610d3d576040519150601f19603f3d011682016040523d82523d5f602084013e610d42565b606091505b5091509150610d52868383610d5d565b925050509392505050565b606082610d7257610d6d82610dea565b610de2565b5f8251148015610d9857505f8473ffffffffffffffffffffffffffffffffffffffff163b145b15610dda57836040517f9996b315000000000000000000000000000000000000000000000000000000008152600401610dd1919061101b565b60405180910390fd5b819050610de3565b5b9392505050565b5f81511115610dfc5780518082602001fd5b6040517f1425ea4200000000000000000000000000000000000000000000000000000000815260040160405180910390fd5b5f80fd5b5f73ffffffffffffffffffffffffffffffffffffffff82169050919050565b5f610e5b82610e32565b9050919050565b610e6b81610e51565b8114610e75575f80fd5b50565b5f81359050610e8681610e62565b92915050565b5f819050919050565b610e9e81610e8c565b8114610ea8575f80fd5b50565b5f81359050610eb981610e95565b92915050565b5f805f805f8060c08789031215610ed957610ed8610e2e565b5b5f610ee689828a01610e78565b9650506020610ef789828a01610e78565b9550506040610f0889828a01610eab565b9450506060610f1989828a01610eab565b9350506080610f2a89828a01610eab565b92505060a0610f3b89828a01610eab565b9150509295509295509295565b5f60208284031215610f5d57610f5c610e2e565b5b5f610f6a84828501610eab565b91505092915050565b5f8115159050919050565b610f8781610f73565b82525050565b5f602082019050610fa05f830184610f7e565b92915050565b5f8060408385031215610fbc57610fbb610e2e565b5b5f610fc985828601610e78565b9250506020610fda85828601610e78565b9150509250929050565b610fed81610e8c565b82525050565b5f6020820190506110065f830184610fe4565b92915050565b61101581610e51565b82525050565b5f60208201905061102e5f83018461100c565b92915050565b5f806040838503121561104a57611049610e2e565b5b5f61105785828601610e78565b925050602061106885828601610eab565b9150509250929050565b5f6020828403121561108757611086610e2e565b5b5f61109484828501610e78565b91505092915050565b7f4e487b71000000000000000000000000000000000000000000000000000000005f52601160045260245ffd5b5f6110d482610e8c565b91506110df83610e8c565b92508282026110ed81610e8c565b915082820484148315176111045761110361109d565b5b5092915050565b7f4e487b71000000000000000000000000000000000000000000000000000000005f52601260045260245ffd5b5f61114282610e8c565b915061114d83610e8c565b92508261115d5761115c61110b565b5b828204905092915050565b5f61117282610e8c565b915061117d83610e8c565b92508282039050818111156111955761119461109d565b5b92915050565b5f6080820190506111ae5f83018761100c565b6111bb602083018661100c565b6111c8604083018561100c565b6111d56060830184610fe4565b95945050505050565b5f6040820190506111f15f83018561100c565b6111fe602083018461100c565b9392505050565b5f8151905061121381610e95565b92915050565b5f6020828403121561122e5761122d610e2e565b5b5f61123b84828501611205565b91505092915050565b5f819050919050565b5f67ffffffffffffffff82169050919050565b5f819050919050565b5f61128361127e61127984611244565b611260565b61124d565b9050919050565b61129381611269565b82525050565b5f6020820190506112ac5f83018461128a565b92915050565b5f6060820190506112c55f83018661100c565b6112d2602083018561100c565b6112df6040830184610fe4565b949350505050565b6112f081610f73565b81146112fa575f80fd5b50565b5f8151905061130b816112e7565b92915050565b5f6020828403121561132657611325610e2e565b5b5f611333848285016112fd565b91505092915050565b5f81519050919050565b5f81905092915050565b8281835e5f83830152505050565b5f6113688261133c565b6113728185611346565b9350611382818560208601611350565b80840191505092915050565b5f611399828461135e565b91508190509291505056fea26469706673582212201621e9e04d8bf44612fafd88ef1273b990481d7da920dab94704a9de72bcabc964736f6c634300081a0033",
			"opcodes": "PUSH1 0x80 PUSH1 0x40 MSTORE CALLVALUE DUP1 ISZERO PUSH1 0xE JUMPI PUSH0 DUP1 REVERT JUMPDEST POP PUSH2 0x13DA DUP1 PUSH2 0x1C PUSH0 CODECOPY PUSH0 RETURN INVALID PUSH1 0x80 PUSH1 0x40 MSTORE CALLVALUE DUP1 ISZERO PUSH2 0xF JUMPI PUSH0 DUP1 REVERT JUMPDEST POP PUSH1 0x4 CALLDATASIZE LT PUSH2 0xA7 JUMPI PUSH0 CALLDATALOAD PUSH1 0xE0 SHR DUP1 PUSH4 0x8456CB59 GT PUSH2 0x6F JUMPI DUP1 PUSH4 0x8456CB59 EQ PUSH2 0x115 JUMPI DUP1 PUSH4 0x8B099B23 EQ PUSH2 0x11F JUMPI DUP1 PUSH4 0x8DA5CB5B EQ PUSH2 0x14F JUMPI DUP1 PUSH4 0xCD6DC687 EQ PUSH2 0x16D JUMPI DUP1 PUSH4 0xCE2C2DF1 EQ PUSH2 0x189 JUMPI DUP1 PUSH4 0xF2FDE38B EQ PUSH2 0x1A7 JUMPI PUSH2 0xA7 JUMP JUMPDEST DUP1 PUSH4 0xDE5E0E7 EQ PUSH2 0xAB JUMPI DUP1 PUSH4 0x3D18678E EQ PUSH2 0xC7 JUMPI DUP1 PUSH4 0x3F4BA83A EQ PUSH2 0xE3 JUMPI DUP1 PUSH4 0x5C975ABB EQ PUSH2 0xED JUMPI DUP1 PUSH4 0x715018A6 EQ PUSH2 0x10B JUMPI JUMPDEST PUSH0 DUP1 REVERT JUMPDEST PUSH2 0xC5 PUSH1 0x4 DUP1 CALLDATASIZE SUB DUP2 ADD SWAP1 PUSH2 0xC0 SWAP2 SWAP1 PUSH2 0xEBF JUMP JUMPDEST PUSH2 0x1C3 JUMP JUMPDEST STOP JUMPDEST PUSH2 0xE1 PUSH1 0x4 DUP1 CALLDATASIZE SUB DUP2 ADD SWAP1 PUSH2 0xDC SWAP2 SWAP1 PUSH2 0xF48 JUMP JUMPDEST PUSH2 0x2B7 JUMP JUMPDEST STOP JUMPDEST PUSH2 0xEB PUSH2 0x304 JUMP JUMPDEST STOP JUMPDEST PUSH2 0xF5 PUSH2 0x316 JUMP JUMPDEST PUSH1 0x40 MLOAD PUSH2 0x102 SWAP2 SWAP1 PUSH2 0xF8D JUMP JUMPDEST PUSH1 0x40 MLOAD DUP1 SWAP2 SUB SWAP1 RETURN JUMPDEST PUSH2 0x113 PUSH2 0x338 JUMP JUMPDEST STOP JUMPDEST PUSH2 0x11D PUSH2 0x34B JUMP JUMPDEST STOP JUMPDEST PUSH2 0x139 PUSH1 0x4 DUP1 CALLDATASIZE SUB DUP2 ADD SWAP1 PUSH2 0x134 SWAP2 SWAP1 PUSH2 0xFA6 JUMP JUMPDEST PUSH2 0x35D JUMP JUMPDEST PUSH1 0x40 MLOAD PUSH2 0x146 SWAP2 SWAP1 PUSH2 0xFF3 JUMP JUMPDEST PUSH1 0x40 MLOAD DUP1 SWAP2 SUB SWAP1 RETURN JUMPDEST PUSH2 0x157 PUSH2 0x3E5 JUMP JUMPDEST PUSH1 0x40 MLOAD PUSH2 0x164 SWAP2 SWAP1 PUSH2 0x101B JUMP JUMPDEST PUSH1 0x40 MLOAD DUP1 SWAP2 SUB SWAP1 RETURN JUMPDEST PUSH2 0x187 PUSH1 0x4 DUP1 CALLDATASIZE SUB DUP2 ADD SWAP1 PUSH2 0x182 SWAP2 SWAP1 PUSH2 0x1034 JUMP JUMPDEST PUSH2 0x41A JUMP JUMPDEST STOP JUMPDEST PUSH2 0x191 PUSH2 0x5B2 JUMP JUMPDEST PUSH1 0x40 MLOAD PUSH2 0x19E SWAP2 SWAP1 PUSH2 0xFF3 JUMP JUMPDEST PUSH1 0x40 MLOAD DUP1 SWAP2 SUB SWAP1 RETURN JUMPDEST PUSH2 0x1C1 PUSH1 0x4 DUP1 CALLDATASIZE SUB DUP2 ADD SWAP1 PUSH2 0x1BC SWAP2 SWAP1 PUSH2 0x1072 JUMP JUMPDEST PUSH2 0x5B7 JUMP JUMPDEST STOP JUMPDEST PUSH2 0x1CB PUSH2 0x63B JUMP JUMPDEST PUSH2 0x1D3 PUSH2 0x67C JUMP JUMPDEST PUSH0 DUP7 SWAP1 POP PUSH0 PUSH2 0x2710 PUSH0 SLOAD DUP8 PUSH2 0x1E8 SWAP2 SWAP1 PUSH2 0x10CA JUMP JUMPDEST PUSH2 0x1F2 SWAP2 SWAP1 PUSH2 0x1138 JUMP JUMPDEST SWAP1 POP PUSH0 DUP2 DUP8 PUSH2 0x201 SWAP2 SWAP1 PUSH2 0x1168 JUMP JUMPDEST SWAP1 POP PUSH2 0x237 CALLER PUSH2 0x20F PUSH2 0x3E5 JUMP JUMPDEST DUP5 DUP7 PUSH20 0xFFFFFFFFFFFFFFFFFFFFFFFFFFFFFFFFFFFFFFFF AND PUSH2 0x6D0 SWAP1 SWAP4 SWAP3 SWAP2 SWAP1 PUSH4 0xFFFFFFFF AND JUMP JUMPDEST PUSH2 0x264 CALLER DUP10 DUP4 DUP7 PUSH20 0xFFFFFFFFFFFFFFFFFFFFFFFFFFFFFFFFFFFFFFFF AND PUSH2 0x6D0 SWAP1 SWAP4 SWAP3 SWAP2 SWAP1 PUSH4 0xFFFFFFFF AND JUMP JUMPDEST DUP4 DUP6 DUP8 PUSH32 0xCCF4CBDBEBF44B8F817936435DFAA557D772265C6EEF9C54C198D3C873624F34 DUP13 CALLER DUP14 DUP8 PUSH1 0x40 MLOAD PUSH2 0x29C SWAP5 SWAP4 SWAP3 SWAP2 SWAP1 PUSH2 0x119B JUMP JUMPDEST PUSH1 0x40 MLOAD DUP1 SWAP2 SUB SWAP1 LOG4 POP POP POP PUSH2 0x2AF PUSH2 0x752 JUMP JUMPDEST POP POP POP POP POP POP JUMP JUMPDEST PUSH2 0x2BF PUSH2 0x769 JUMP JUMPDEST PUSH2 0x2710 DUP2 GT ISZERO PUSH2 0x2FB JUMPI PUSH1 0x40 MLOAD PUSH32 0xDF44072600000000000000000000000000000000000000000000000000000000 DUP2 MSTORE PUSH1 0x4 ADD PUSH1 0x40 MLOAD DUP1 SWAP2 SUB SWAP1 REVERT JUMPDEST DUP1 PUSH0 DUP2 SWAP1 SSTORE POP POP JUMP JUMPDEST PUSH2 0x30C PUSH2 0x769 JUMP JUMPDEST PUSH2 0x314 PUSH2 0x7F0 JUMP JUMPDEST JUMP JUMPDEST PUSH0 DUP1 PUSH2 0x320 PUSH2 0x85E JUMP JUMPDEST SWAP1 POP DUP1 PUSH0 ADD PUSH0 SWAP1 SLOAD SWAP1 PUSH2 0x100 EXP SWAP1 DIV PUSH1 0xFF AND SWAP2 POP POP SWAP1 JUMP JUMPDEST PUSH2 0x340 PUSH2 0x769 JUMP JUMPDEST PUSH2 0x349 PUSH0 PUSH2 0x885 JUMP JUMPDEST JUMP JUMPDEST PUSH2 0x353 PUSH2 0x769 JUMP JUMPDEST PUSH2 0x35B PUSH2 0x956 JUMP JUMPDEST JUMP JUMPDEST PUSH0 DUP1 DUP4 SWAP1 POP DUP1 PUSH20 0xFFFFFFFFFFFFFFFFFFFFFFFFFFFFFFFFFFFFFFFF AND PUSH4 0xDD62ED3E DUP5 ADDRESS PUSH1 0x40 MLOAD DUP4 PUSH4 0xFFFFFFFF AND PUSH1 0xE0 SHL DUP2 MSTORE PUSH1 0x4 ADD PUSH2 0x39D SWAP3 SWAP2 SWAP1 PUSH2 0x11DE JUMP JUMPDEST PUSH1 0x20 PUSH1 0x40 MLOAD DUP1 DUP4 SUB DUP2 DUP7 GAS STATICCALL ISZERO DUP1 ISZERO PUSH2 0x3B8 JUMPI RETURNDATASIZE PUSH0 DUP1 RETURNDATACOPY RETURNDATASIZE PUSH0 REVERT JUMPDEST POP POP POP POP PUSH1 0x40 MLOAD RETURNDATASIZE PUSH1 0x1F NOT PUSH1 0x1F DUP3 ADD AND DUP3 ADD DUP1 PUSH1 0x40 MSTORE POP DUP2 ADD SWAP1 PUSH2 0x3DC SWAP2 SWAP1 PUSH2 0x1219 JUMP JUMPDEST SWAP2 POP POP SWAP3 SWAP2 POP POP JUMP JUMPDEST PUSH0 DUP1 PUSH2 0x3EF PUSH2 0x9C5 JUMP JUMPDEST SWAP1 POP DUP1 PUSH0 ADD PUSH0 SWAP1 SLOAD SWAP1 PUSH2 0x100 EXP SWAP1 DIV PUSH20 0xFFFFFFFFFFFFFFFFFFFFFFFFFFFFFFFFFFFFFFFF AND SWAP2 POP POP SWAP1 JUMP JUMPDEST PUSH0 PUSH2 0x423 PUSH2 0x9EC JUMP JUMPDEST SWAP1 POP PUSH0 DUP2 PUSH0 ADD PUSH1 0x8 SWAP1 SLOAD SWAP1 PUSH2 0x100 EXP SWAP1 DIV PUSH1 0xFF AND ISZERO SWAP1 POP PUSH0 DUP3 PUSH0 ADD PUSH0 SWAP1 SLOAD SWAP1 PUSH2 0x100 EXP SWAP1 DIV PUSH8 0xFFFFFFFFFFFFFFFF AND SWAP1 POP PUSH0 DUP1 DUP3 PUSH8 0xFFFFFFFFFFFFFFFF AND EQ DUP1 ISZERO PUSH2 0x46B JUMPI POP DUP3 JUMPDEST SWAP1 POP PUSH0 PUSH1 0x1 DUP4 PUSH8 0xFFFFFFFFFFFFFFFF AND EQ DUP1 ISZERO PUSH2 0x49E JUMPI POP PUSH0 ADDRESS PUSH20 0xFFFFFFFFFFFFFFFFFFFFFFFFFFFFFFFFFFFFFFFF AND EXTCODESIZE EQ JUMPDEST SWAP1 POP DUP2 ISZERO DUP1 ISZERO PUSH2 0x4AC JUMPI POP DUP1 ISZERO JUMPDEST ISZERO PUSH2 0x4E3 JUMPI PUSH1 0x40 MLOAD PUSH32 0xF92EE8A900000000000000000000000000000000000000000000000000000000 DUP2 MSTORE PUSH1 0x4 ADD PUSH1 0x40 MLOAD DUP1 SWAP2 SUB SWAP1 REVERT JUMPDEST PUSH1 0x1 DUP6 PUSH0 ADD PUSH0 PUSH2 0x100 EXP DUP2 SLOAD DUP2 PUSH8 0xFFFFFFFFFFFFFFFF MUL NOT AND SWAP1 DUP4 PUSH8 0xFFFFFFFFFFFFFFFF AND MUL OR SWAP1 SSTORE POP DUP4 ISZERO PUSH2 0x530 JUMPI PUSH1 0x1 DUP6 PUSH0 ADD PUSH1 0x8 PUSH2 0x100 EXP DUP2 SLOAD DUP2 PUSH1 0xFF MUL NOT AND SWAP1 DUP4 ISZERO ISZERO MUL OR SWAP1 SSTORE POP JUMPDEST PUSH2 0x539 DUP8 PUSH2 0xA13 JUMP JUMPDEST PUSH2 0x541 PUSH2 0xA27 JUMP JUMPDEST PUSH2 0x549 PUSH2 0xA39 JUMP JUMPDEST DUP6 PUSH0 DUP2 SWAP1 SSTORE POP DUP4 ISZERO PUSH2 0x5A9 JUMPI PUSH0 DUP6 PUSH0 ADD PUSH1 0x8 PUSH2 0x100 EXP DUP2 SLOAD DUP2 PUSH1 0xFF MUL NOT AND SWAP1 DUP4 ISZERO ISZERO MUL OR SWAP1 SSTORE POP PUSH32 0xC7F505B2F371AE2175EE4913F4499E1F2633A7B5936321EED1CDAEB6115181D2 PUSH1 0x1 PUSH1 0x40 MLOAD PUSH2 0x5A0 SWAP2 SWAP1 PUSH2 0x1299 JUMP JUMPDEST PUSH1 0x40 MLOAD DUP1 SWAP2 SUB SWAP1 LOG1 JUMPDEST POP POP POP POP POP POP POP JUMP JUMPDEST PUSH0 SLOAD DUP2 JUMP JUMPDEST PUSH2 0x5BF PUSH2 0x769 JUMP JUMPDEST PUSH0 PUSH20 0xFFFFFFFFFFFFFFFFFFFFFFFFFFFFFFFFFFFFFFFF AND DUP2 PUSH20 0xFFFFFFFFFFFFFFFFFFFFFFFFFFFFFFFFFFFFFFFF AND SUB PUSH2 0x62F JUMPI PUSH0 PUSH1 0x40 MLOAD PUSH32 0x1E4FBDF700000000000000000000000000000000000000000000000000000000 DUP2 MSTORE PUSH1 0x4 ADD PUSH2 0x626 SWAP2 SWAP1 PUSH2 0x101B JUMP JUMPDEST PUSH1 0x40 MLOAD DUP1 SWAP2 SUB SWAP1 REVERT JUMPDEST PUSH2 0x638 DUP2 PUSH2 0x885 JUMP JUMPDEST POP JUMP JUMPDEST PUSH2 0x643 PUSH2 0x316 JUMP JUMPDEST ISZERO PUSH2 0x67A JUMPI PUSH1 0x40 MLOAD PUSH32 0xD93C066500000000000000000000000000000000000000000000000000000000 DUP2 MSTORE PUSH1 0x4 ADD PUSH1 0x40 MLOAD DUP1 SWAP2 SUB SWAP1 REVERT JUMPDEST JUMP JUMPDEST PUSH0 PUSH2 0x685 PUSH2 0xA4B JUMP JUMPDEST SWAP1 POP PUSH1 0x2 DUP2 PUSH0 ADD SLOAD SUB PUSH2 0x6C4 JUMPI PUSH1 0x40 MLOAD PUSH32 0x3EE5AEB500000000000000000000000000000000000000000000000000000000 DUP2 MSTORE PUSH1 0x4 ADD PUSH1 0x40 MLOAD DUP1 SWAP2 SUB SWAP1 REVERT JUMPDEST PUSH1 0x2 DUP2 PUSH0 ADD DUP2 SWAP1 SSTORE POP POP JUMP JUMPDEST PUSH2 0x74C DUP5 DUP6 PUSH20 0xFFFFFFFFFFFFFFFFFFFFFFFFFFFFFFFFFFFFFFFF AND PUSH4 0x23B872DD DUP7 DUP7 DUP7 PUSH1 0x40 MLOAD PUSH1 0x24 ADD PUSH2 0x705 SWAP4 SWAP3 SWAP2 SWAP1 PUSH2 0x12B2 JUMP JUMPDEST PUSH1 0x40 MLOAD PUSH1 0x20 DUP2 DUP4 SUB SUB DUP2 MSTORE SWAP1 PUSH1 0x40 MSTORE SWAP2 POP PUSH1 0xE0 SHL PUSH1 0x20 DUP3 ADD DUP1 MLOAD PUSH28 0xFFFFFFFFFFFFFFFFFFFFFFFFFFFFFFFFFFFFFFFFFFFFFFFFFFFFFFFF DUP4 DUP2 DUP4 AND OR DUP4 MSTORE POP POP POP POP PUSH2 0xA72 JUMP JUMPDEST POP POP POP POP JUMP JUMPDEST PUSH0 PUSH2 0x75B PUSH2 0xA4B JUMP JUMPDEST SWAP1 POP PUSH1 0x1 DUP2 PUSH0 ADD DUP2 SWAP1 SSTORE POP POP JUMP JUMPDEST PUSH2 0x771 PUSH2 0xB07 JUMP JUMPDEST PUSH20 0xFFFFFFFFFFFFFFFFFFFFFFFFFFFFFFFFFFFFFFFF AND PUSH2 0x78F PUSH2 0x3E5 JUMP JUMPDEST PUSH20 0xFFFFFFFFFFFFFFFFFFFFFFFFFFFFFFFFFFFFFFFF AND EQ PUSH2 0x7EE JUMPI PUSH2 0x7B2 PUSH2 0xB07 JUMP JUMPDEST PUSH1 0x40 MLOAD PUSH32 0x118CDAA700000000000000000000000000000000000000000000000000000000 DUP2 MSTORE PUSH1 0x4 ADD PUSH2 0x7E5 SWAP2 SWAP1 PUSH2 0x101B JUMP JUMPDEST PUSH1 0x40 MLOAD DUP1 SWAP2 SUB SWAP1 REVERT JUMPDEST JUMP JUMPDEST PUSH2 0x7F8 PUSH2 0xB0E JUMP JUMPDEST PUSH0 PUSH2 0x801 PUSH2 0x85E JUMP JUMPDEST SWAP1 POP PUSH0 DUP2 PUSH0 ADD PUSH0 PUSH2 0x100 EXP DUP2 SLOAD DUP2 PUSH1 0xFF MUL NOT AND SWAP1 DUP4 ISZERO ISZERO MUL OR SWAP1 SSTORE POP PUSH32 0x5DB9EE0A495BF2E6FF9C91A7834C1BA4FDD244A5E8AA4E537BD38AEAE4B073AA PUSH2 0x846 PUSH2 0xB07 JUMP JUMPDEST PUSH1 0x40 MLOAD PUSH2 0x853 SWAP2 SWAP1 PUSH2 0x101B JUMP JUMPDEST PUSH1 0x40 MLOAD DUP1 SWAP2 SUB SWAP1 LOG1 POP JUMP JUMPDEST PUSH0 PUSH32 0xCD5ED15C6E187E77E9AEE88184C21F4F2182AB5827CB3B7E07FBEDCD63F03300 SWAP1 POP SWAP1 JUMP JUMPDEST PUSH0 PUSH2 0x88E PUSH2 0x9C5 JUMP JUMPDEST SWAP1 POP PUSH0 DUP2 PUSH0 ADD PUSH0 SWAP1 SLOAD SWAP1 PUSH2 0x100 EXP SWAP1 DIV PUSH20 0xFFFFFFFFFFFFFFFFFFFFFFFFFFFFFFFFFFFFFFFF AND SWAP1 POP DUP3 DUP3 PUSH0 ADD PUSH0 PUSH2 0x100 EXP DUP2 SLOAD DUP2 PUSH20 0xFFFFFFFFFFFFFFFFFFFFFFFFFFFFFFFFFFFFFFFF MUL NOT AND SWAP1 DUP4 PUSH20 0xFFFFFFFFFFFFFFFFFFFFFFFFFFFFFFFFFFFFFFFF AND MUL OR SWAP1 SSTORE POP DUP3 PUSH20 0xFFFFFFFFFFFFFFFFFFFFFFFFFFFFFFFFFFFFFFFF AND DUP2 PUSH20 0xFFFFFFFFFFFFFFFFFFFFFFFFFFFFFFFFFFFFFFFF AND PUSH32 0x8BE0079C531659141344CD1FD0A4F28419497F9722A3DAAFE3B4186F6B6457E0 PUSH1 0x40 MLOAD PUSH1 0x40 MLOAD DUP1 SWAP2 SUB SWAP1 LOG3 POP POP POP JUMP JUMPDEST PUSH2 0x95E PUSH2 0x63B JUMP JUMPDEST PUSH0 PUSH2 0x967 PUSH2 0x85E JUMP JUMPDEST SWAP1 POP PUSH1 0x1 DUP2 PUSH0 ADD PUSH0 PUSH2 0x100 EXP DUP2 SLOAD DUP2 PUSH1 0xFF MUL NOT AND SWAP1 DUP4 ISZERO ISZERO MUL OR SWAP1 SSTORE POP PUSH32 0x62E78CEA01BEE320CD4E420270B5EA74000D11B0C9F74754EBDBFC544B05A258 PUSH2 0x9AD PUSH2 0xB07 JUMP JUMPDEST PUSH1 0x40 MLOAD PUSH2 0x9BA SWAP2 SWAP1 PUSH2 0x101B JUMP JUMPDEST PUSH1 0x40 MLOAD DUP1 SWAP2 SUB SWAP1 LOG1 POP JUMP JUMPDEST PUSH0 PUSH32 0x9016D09D72D40FDAE2FD8CEAC6B6234C7706214FD39C1CD1E609A0528C199300 SWAP1 POP SWAP1 JUMP JUMPDEST PUSH0 PUSH32 0xF0C57E16840DF040F15088DC2F81FE391C3923BEC73E23A9662EFC9C229C6A00 SWAP1 POP SWAP1 JUMP JUMPDEST PUSH2 0xA1B PUSH2 0xB4E JUMP JUMPDEST PUSH2 0xA24 DUP2 PUSH2 0xB8E JUMP JUMPDEST POP JUMP JUMPDEST PUSH2 0xA2F PUSH2 0xB4E JUMP JUMPDEST PUSH2 0xA37 PUSH2 0xC12 JUMP JUMPDEST JUMP JUMPDEST PUSH2 0xA41 PUSH2 0xB4E JUMP JUMPDEST PUSH2 0xA49 PUSH2 0xC31 JUMP JUMPDEST JUMP JUMPDEST PUSH0 PUSH32 0x9B779B17422D0DF92223018B32B4D1FA46E071723D6817E2486D003BECC55F00 SWAP1 POP SWAP1 JUMP JUMPDEST PUSH0 PUSH2 0xA9C DUP3 DUP5 PUSH20 0xFFFFFFFFFFFFFFFFFFFFFFFFFFFFFFFFFFFFFFFF AND PUSH2 0xC61 SWAP1 SWAP2 SWAP1 PUSH4 0xFFFFFFFF AND JUMP JUMPDEST SWAP1 POP PUSH0 DUP2 MLOAD EQ ISZERO DUP1 ISZERO PUSH2 0xAC0 JUMPI POP DUP1 DUP1 PUSH1 0x20 ADD SWAP1 MLOAD DUP2 ADD SWAP1 PUSH2 0xABE SWAP2 SWAP1 PUSH2 0x1311 JUMP JUMPDEST ISZERO JUMPDEST ISZERO PUSH2 0xB02 JUMPI DUP3 PUSH1 0x40 MLOAD PUSH32 0x5274AFE700000000000000000000000000000000000000000000000000000000 DUP2 MSTORE PUSH1 0x4 ADD PUSH2 0xAF9 SWAP2 SWAP1 PUSH2 0x101B JUMP JUMPDEST PUSH1 0x40 MLOAD DUP1 SWAP2 SUB SWAP1 REVERT JUMPDEST POP POP POP JUMP JUMPDEST PUSH0 CALLER SWAP1 POP SWAP1 JUMP JUMPDEST PUSH2 0xB16 PUSH2 0x316 JUMP JUMPDEST PUSH2 0xB4C JUMPI PUSH1 0x40 MLOAD PUSH32 0x8DFC202B00000000000000000000000000000000000000000000000000000000 DUP2 MSTORE PUSH1 0x4 ADD PUSH1 0x40 MLOAD DUP1 SWAP2 SUB SWAP1 REVERT JUMPDEST JUMP JUMPDEST PUSH2 0xB56 PUSH2 0xC76 JUMP JUMPDEST PUSH2 0xB8C JUMPI PUSH1 0x40 MLOAD PUSH32 0xD7E6BCF800000000000000000000000000000000000000000000000000000000 DUP2 MSTORE PUSH1 0x4 ADD PUSH1 0x40 MLOAD DUP1 SWAP2 SUB SWAP1 REVERT JUMPDEST JUMP JUMPDEST PUSH2 0xB96 PUSH2 0xB4E JUMP JUMPDEST PUSH0 PUSH20 0xFFFFFFFFFFFFFFFFFFFFFFFFFFFFFFFFFFFFFFFF AND DUP2 PUSH20 0xFFFFFFFFFFFFFFFFFFFFFFFFFFFFFFFFFFFFFFFF AND SUB PUSH2 0xC06 JUMPI PUSH0 PUSH1 0x40 MLOAD PUSH32 0x1E4FBDF700000000000000000000000000000000000000000000000000000000 DUP2 MSTORE PUSH1 0x4 ADD PUSH2 0xBFD SWAP2 SWAP1 PUSH2 0x101B JUMP JUMPDEST PUSH1 0x40 MLOAD DUP1 SWAP2 SUB SWAP1 REVERT JUMPDEST PUSH2 0xC0F DUP2 PUSH2 0x885 JUMP JUMPDEST POP JUMP JUMPDEST PUSH2 0xC1A PUSH2 0xB4E JUMP JUMPDEST PUSH0 PUSH2 0xC23 PUSH2 0xA4B JUMP JUMPDEST SWAP1 POP PUSH1 0x1 DUP2 PUSH0 ADD DUP2 SWAP1 SSTORE POP POP JUMP JUMPDEST PUSH2 0xC39 PUSH2 0xB4E JUMP JUMPDEST PUSH0 PUSH2 0xC42 PUSH2 0x85E JUMP JUMPDEST SWAP1 POP PUSH0 DUP2 PUSH0 ADD PUSH0 PUSH2 0x100 EXP DUP2 SLOAD DUP2 PUSH1 0xFF MUL NOT AND SWAP1 DUP4 ISZERO ISZERO MUL OR SWAP1 SSTORE POP POP JUMP JUMPDEST PUSH1 0x60 PUSH2 0xC6E DUP4 DUP4 PUSH0 PUSH2 0xC94 JUMP JUMPDEST SWAP1 POP SWAP3 SWAP2 POP POP JUMP JUMPDEST PUSH0 PUSH2 0xC7F PUSH2 0x9EC JUMP JUMPDEST PUSH0 ADD PUSH1 0x8 SWAP1 SLOAD SWAP1 PUSH2 0x100 EXP SWAP1 DIV PUSH1 0xFF AND SWAP1 POP SWAP1 JUMP JUMPDEST PUSH1 0x60 DUP2 SELFBALANCE LT ISZERO PUSH2 0xCDB JUMPI ADDRESS PUSH1 0x40 MLOAD PUSH32 0xCD78605900000000000000000000000000000000000000000000000000000000 DUP2 MSTORE PUSH1 0x4 ADD PUSH2 0xCD2 SWAP2 SWAP1 PUSH2 0x101B JUMP JUMPDEST PUSH1 0x40 MLOAD DUP1 SWAP2 SUB SWAP1 REVERT JUMPDEST PUSH0 DUP1 DUP6 PUSH20 0xFFFFFFFFFFFFFFFFFFFFFFFFFFFFFFFFFFFFFFFF AND DUP5 DUP7 PUSH1 0x40 MLOAD PUSH2 0xD03 SWAP2 SWAP1 PUSH2 0x138E JUMP JUMPDEST PUSH0 PUSH1 0x40 MLOAD DUP1 DUP4 SUB DUP2 DUP6 DUP8 GAS CALL SWAP3 POP POP POP RETURNDATASIZE DUP1 PUSH0 DUP2 EQ PUSH2 0xD3D JUMPI PUSH1 0x40 MLOAD SWAP2 POP PUSH1 0x1F NOT PUSH1 0x3F RETURNDATASIZE ADD AND DUP3 ADD PUSH1 0x40 MSTORE RETURNDATASIZE DUP3 MSTORE RETURNDATASIZE PUSH0 PUSH1 0x20 DUP5 ADD RETURNDATACOPY PUSH2 0xD42 JUMP JUMPDEST PUSH1 0x60 SWAP2 POP JUMPDEST POP SWAP2 POP SWAP2 POP PUSH2 0xD52 DUP7 DUP4 DUP4 PUSH2 0xD5D JUMP JUMPDEST SWAP3 POP POP POP SWAP4 SWAP3 POP POP POP JUMP JUMPDEST PUSH1 0x60 DUP3 PUSH2 0xD72 JUMPI PUSH2 0xD6D DUP3 PUSH2 0xDEA JUMP JUMPDEST PUSH2 0xDE2 JUMP JUMPDEST PUSH0 DUP3 MLOAD EQ DUP1 ISZERO PUSH2 0xD98 JUMPI POP PUSH0 DUP5 PUSH20 0xFFFFFFFFFFFFFFFFFFFFFFFFFFFFFFFFFFFFFFFF AND EXTCODESIZE EQ JUMPDEST ISZERO PUSH2 0xDDA JUMPI DUP4 PUSH1 0x40 MLOAD PUSH32 0x9996B31500000000000000000000000000000000000000000000000000000000 DUP2 MSTORE PUSH1 0x4 ADD PUSH2 0xDD1 SWAP2 SWAP1 PUSH2 0x101B JUMP JUMPDEST PUSH1 0x40 MLOAD DUP1 SWAP2 SUB SWAP1 REVERT JUMPDEST DUP2 SWAP1 POP PUSH2 0xDE3 JUMP JUMPDEST JUMPDEST SWAP4 SWAP3 POP POP POP JUMP JUMPDEST PUSH0 DUP2 MLOAD GT ISZERO PUSH2 0xDFC JUMPI DUP1 MLOAD DUP1 DUP3 PUSH1 0x20 ADD REVERT JUMPDEST PUSH1 0x40 MLOAD PUSH32 0x1425EA4200000000000000000000000000000000000000000000000000000000 DUP2 MSTORE PUSH1 0x4 ADD PUSH1 0x40 MLOAD DUP1 SWAP2 SUB SWAP1 REVERT JUMPDEST PUSH0 DUP1 REVERT JUMPDEST PUSH0 PUSH20 0xFFFFFFFFFFFFFFFFFFFFFFFFFFFFFFFFFFFFFFFF DUP3 AND SWAP1 POP SWAP2 SWAP1 POP JUMP JUMPDEST PUSH0 PUSH2 0xE5B DUP3 PUSH2 0xE32 JUMP JUMPDEST SWAP1 POP SWAP2 SWAP1 POP JUMP JUMPDEST PUSH2 0xE6B DUP2 PUSH2 0xE51 JUMP JUMPDEST DUP2 EQ PUSH2 0xE75 JUMPI PUSH0 DUP1 REVERT JUMPDEST POP JUMP JUMPDEST PUSH0 DUP2 CALLDATALOAD SWAP1 POP PUSH2 0xE86 DUP2 PUSH2 0xE62 JUMP JUMPDEST SWAP3 SWAP2 POP POP JUMP JUMPDEST PUSH0 DUP2 SWAP1 POP SWAP2 SWAP1 POP JUMP JUMPDEST PUSH2 0xE9E DUP2 PUSH2 0xE8C JUMP JUMPDEST DUP2 EQ PUSH2 0xEA8 JUMPI PUSH0 DUP1 REVERT JUMPDEST POP JUMP JUMPDEST PUSH0 DUP2 CALLDATALOAD SWAP1 POP PUSH2 0xEB9 DUP2 PUSH2 0xE95 JUMP JUMPDEST SWAP3 SWAP2 POP POP JUMP JUMPDEST PUSH0 DUP1 PUSH0 DUP1 PUSH0 DUP1 PUSH1 0xC0 DUP8 DUP10 SUB SLT ISZERO PUSH2 0xED9 JUMPI PUSH2 0xED8 PUSH2 0xE2E JUMP JUMPDEST JUMPDEST PUSH0 PUSH2 0xEE6 DUP10 DUP3 DUP11 ADD PUSH2 0xE78 JUMP JUMPDEST SWAP7 POP POP PUSH1 0x20 PUSH2 0xEF7 DUP10 DUP3 DUP11 ADD PUSH2 0xE78 JUMP JUMPDEST SWAP6 POP POP PUSH1 0x40 PUSH2 0xF08 DUP10 DUP3 DUP11 ADD PUSH2 0xEAB JUMP JUMPDEST SWAP5 POP POP PUSH1 0x60 PUSH2 0xF19 DUP10 DUP3 DUP11 ADD PUSH2 0xEAB JUMP JUMPDEST SWAP4 POP POP PUSH1 0x80 PUSH2 0xF2A DUP10 DUP3 DUP11 ADD PUSH2 0xEAB JUMP JUMPDEST SWAP3 POP POP PUSH1 0xA0 PUSH2 0xF3B DUP10 DUP3 DUP11 ADD PUSH2 0xEAB JUMP JUMPDEST SWAP2 POP POP SWAP3 SWAP6 POP SWAP3 SWAP6 POP SWAP3 SWAP6 JUMP JUMPDEST PUSH0 PUSH1 0x20 DUP3 DUP5 SUB SLT ISZERO PUSH2 0xF5D JUMPI PUSH2 0xF5C PUSH2 0xE2E JUMP JUMPDEST JUMPDEST PUSH0 PUSH2 0xF6A DUP5 DUP3 DUP6 ADD PUSH2 0xEAB JUMP JUMPDEST SWAP2 POP POP SWAP3 SWAP2 POP POP JUMP JUMPDEST PUSH0 DUP2 ISZERO ISZERO SWAP1 POP SWAP2 SWAP1 POP JUMP JUMPDEST PUSH2 0xF87 DUP2 PUSH2 0xF73 JUMP JUMPDEST DUP3 MSTORE POP POP JUMP JUMPDEST PUSH0 PUSH1 0x20 DUP3 ADD SWAP1 POP PUSH2 0xFA0 PUSH0 DUP4 ADD DUP5 PUSH2 0xF7E JUMP JUMPDEST SWAP3 SWAP2 POP POP JUMP JUMPDEST PUSH0 DUP1 PUSH1 0x40 DUP4 DUP6 SUB SLT ISZERO PUSH2 0xFBC JUMPI PUSH2 0xFBB PUSH2 0xE2E JUMP JUMPDEST JUMPDEST PUSH0 PUSH2 0xFC9 DUP6 DUP3 DUP7 ADD PUSH2 0xE78 JUMP JUMPDEST SWAP3 POP POP PUSH1 0x20 PUSH2 0xFDA DUP6 DUP3 DUP7 ADD PUSH2 0xE78 JUMP JUMPDEST SWAP2 POP POP SWAP3 POP SWAP3 SWAP1 POP JUMP JUMPDEST PUSH2 0xFED DUP2 PUSH2 0xE8C JUMP JUMPDEST DUP3 MSTORE POP POP JUMP JUMPDEST PUSH0 PUSH1 0x20 DUP3 ADD SWAP1 POP PUSH2 0x1006 PUSH0 DUP4 ADD DUP5 PUSH2 0xFE4 JUMP JUMPDEST SWAP3 SWAP2 POP POP JUMP JUMPDEST PUSH2 0x1015 DUP2 PUSH2 0xE51 JUMP JUMPDEST DUP3 MSTORE POP POP JUMP JUMPDEST PUSH0 PUSH1 0x20 DUP3 ADD SWAP1 POP PUSH2 0x102E PUSH0 DUP4 ADD DUP5 PUSH2 0x100C JUMP JUMPDEST SWAP3 SWAP2 POP POP JUMP JUMPDEST PUSH0 DUP1 PUSH1 0x40 DUP4 DUP6 SUB SLT ISZERO PUSH2 0x104A JUMPI PUSH2 0x1049 PUSH2 0xE2E JUMP JUMPDEST JUMPDEST PUSH0 PUSH2 0x1057 DUP6 DUP3 DUP7 ADD PUSH2 0xE78 JUMP JUMPDEST SWAP3 POP POP PUSH1 0x20 PUSH2 0x1068 DUP6 DUP3 DUP7 ADD PUSH2 0xEAB JUMP JUMPDEST SWAP2 POP POP SWAP3 POP SWAP3 SWAP1 POP JUMP JUMPDEST PUSH0 PUSH1 0x20 DUP3 DUP5 SUB SLT ISZERO PUSH2 0x1087 JUMPI PUSH2 0x1086 PUSH2 0xE2E JUMP JUMPDEST JUMPDEST PUSH0 PUSH2 0x1094 DUP5 DUP3 DUP6 ADD PUSH2 0xE78 JUMP JUMPDEST SWAP2 POP POP SWAP3 SWAP2 POP POP JUMP JUMPDEST PUSH32 0x4E487B7100000000000000000000000000000000000000000000000000000000 PUSH0 MSTORE PUSH1 0x11 PUSH1 0x4 MSTORE PUSH1 0x24 PUSH0 REVERT JUMPDEST PUSH0 PUSH2 0x10D4 DUP3 PUSH2 0xE8C JUMP JUMPDEST SWAP2 POP PUSH2 0x10DF DUP4 PUSH2 0xE8C JUMP JUMPDEST SWAP3 POP DUP3 DUP3 MUL PUSH2 0x10ED DUP2 PUSH2 0xE8C JUMP JUMPDEST SWAP2 POP DUP3 DUP3 DIV DUP5 EQ DUP4 ISZERO OR PUSH2 0x1104 JUMPI PUSH2 0x1103 PUSH2 0x109D JUMP JUMPDEST JUMPDEST POP SWAP3 SWAP2 POP POP JUMP JUMPDEST PUSH32 0x4E487B7100000000000000000000000000000000000000000000000000000000 PUSH0 MSTORE PUSH1 0x12 PUSH1 0x4 MSTORE PUSH1 0x24 PUSH0 REVERT JUMPDEST PUSH0 PUSH2 0x1142 DUP3 PUSH2 0xE8C JUMP JUMPDEST SWAP2 POP PUSH2 0x114D DUP4 PUSH2 0xE8C JUMP JUMPDEST SWAP3 POP DUP3 PUSH2 0x115D JUMPI PUSH2 0x115C PUSH2 0x110B JUMP JUMPDEST JUMPDEST DUP3 DUP3 DIV SWAP1 POP SWAP3 SWAP2 POP POP JUMP JUMPDEST PUSH0 PUSH2 0x1172 DUP3 PUSH2 0xE8C JUMP JUMPDEST SWAP2 POP PUSH2 0x117D DUP4 PUSH2 0xE8C JUMP JUMPDEST SWAP3 POP DUP3 DUP3 SUB SWAP1 POP DUP2 DUP2 GT ISZERO PUSH2 0x1195 JUMPI PUSH2 0x1194 PUSH2 0x109D JUMP JUMPDEST JUMPDEST SWAP3 SWAP2 POP POP JUMP JUMPDEST PUSH0 PUSH1 0x80 DUP3 ADD SWAP1 POP PUSH2 0x11AE PUSH0 DUP4 ADD DUP8 PUSH2 0x100C JUMP JUMPDEST PUSH2 0x11BB PUSH1 0x20 DUP4 ADD DUP7 PUSH2 0x100C JUMP JUMPDEST PUSH2 0x11C8 PUSH1 0x40 DUP4 ADD DUP6 PUSH2 0x100C JUMP JUMPDEST PUSH2 0x11D5 PUSH1 0x60 DUP4 ADD DUP5 PUSH2 0xFE4 JUMP JUMPDEST SWAP6 SWAP5 POP POP POP POP POP JUMP JUMPDEST PUSH0 PUSH1 0x40 DUP3 ADD SWAP1 POP PUSH2 0x11F1 PUSH0 DUP4 ADD DUP6 PUSH2 0x100C JUMP JUMPDEST PUSH2 0x11FE PUSH1 0x20 DUP4 ADD DUP5 PUSH2 0x100C JUMP JUMPDEST SWAP4 SWAP3 POP POP POP JUMP JUMPDEST PUSH0 DUP2 MLOAD SWAP1 POP PUSH2 0x1213 DUP2 PUSH2 0xE95 JUMP JUMPDEST SWAP3 SWAP2 POP POP JUMP JUMPDEST PUSH0 PUSH1 0x20 DUP3 DUP5 SUB SLT ISZERO PUSH2 0x122E JUMPI PUSH2 0x122D PUSH2 0xE2E JUMP JUMPDEST JUMPDEST PUSH0 PUSH2 0x123B DUP5 DUP3 DUP6 ADD PUSH2 0x1205 JUMP JUMPDEST SWAP2 POP POP SWAP3 SWAP2 POP POP JUMP JUMPDEST PUSH0 DUP2 SWAP1 POP SWAP2 SWAP1 POP JUMP JUMPDEST PUSH0 PUSH8 0xFFFFFFFFFFFFFFFF DUP3 AND SWAP1 POP SWAP2 SWAP1 POP JUMP JUMPDEST PUSH0 DUP2 SWAP1 POP SWAP2 SWAP1 POP JUMP JUMPDEST PUSH0 PUSH2 0x1283 PUSH2 0x127E PUSH2 0x1279 DUP5 PUSH2 0x1244 JUMP JUMPDEST PUSH2 0x1260 JUMP JUMPDEST PUSH2 0x124D JUMP JUMPDEST SWAP1 POP SWAP2 SWAP1 POP JUMP JUMPDEST PUSH2 0x1293 DUP2 PUSH2 0x1269 JUMP JUMPDEST DUP3 MSTORE POP POP JUMP JUMPDEST PUSH0 PUSH1 0x20 DUP3 ADD SWAP1 POP PUSH2 0x12AC PUSH0 DUP4 ADD DUP5 PUSH2 0x128A JUMP JUMPDEST SWAP3 SWAP2 POP POP JUMP JUMPDEST PUSH0 PUSH1 0x60 DUP3 ADD SWAP1 POP PUSH2 0x12C5 PUSH0 DUP4 ADD DUP7 PUSH2 0x100C JUMP JUMPDEST PUSH2 0x12D2 PUSH1 0x20 DUP4 ADD DUP6 PUSH2 0x100C JUMP JUMPDEST PUSH2 0x12DF PUSH1 0x40 DUP4 ADD DUP5 PUSH2 0xFE4 JUMP JUMPDEST SWAP5 SWAP4 POP POP POP POP JUMP JUMPDEST PUSH2 0x12F0 DUP2 PUSH2 0xF73 JUMP JUMPDEST DUP2 EQ PUSH2 0x12FA JUMPI PUSH0 DUP1 REVERT JUMPDEST POP JUMP JUMPDEST PUSH0 DUP2 MLOAD SWAP1 POP PUSH2 0x130B DUP2 PUSH2 0x12E7 JUMP JUMPDEST SWAP3 SWAP2 POP POP JUMP JUMPDEST PUSH0 PUSH1 0x20 DUP3 DUP5 SUB SLT ISZERO PUSH2 0x1326 JUMPI PUSH2 0x1325 PUSH2 0xE2E JUMP JUMPDEST JUMPDEST PUSH0 PUSH2 0x1333 DUP5 DUP3 DUP6 ADD PUSH2 0x12FD JUMP JUMPDEST SWAP2 POP POP SWAP3 SWAP2 POP POP JUMP JUMPDEST PUSH0 DUP2 MLOAD SWAP1 POP SWAP2 SWAP1 POP JUMP JUMPDEST PUSH0 DUP2 SWAP1 POP SWAP3 SWAP2 POP POP JUMP JUMPDEST DUP3 DUP2 DUP4 MCOPY PUSH0 DUP4 DUP4 ADD MSTORE POP POP POP JUMP JUMPDEST PUSH0 PUSH2 0x1368 DUP3 PUSH2 0x133C JUMP JUMPDEST PUSH2 0x1372 DUP2 DUP6 PUSH2 0x1346 JUMP JUMPDEST SWAP4 POP PUSH2 0x1382 DUP2 DUP6 PUSH1 0x20 DUP7 ADD PUSH2 0x1350 JUMP JUMPDEST DUP1 DUP5 ADD SWAP2 POP POP SWAP3 SWAP2 POP POP JUMP JUMPDEST PUSH0 PUSH2 0x1399 DUP3 DUP5 PUSH2 0x135E JUMP JUMPDEST SWAP2 POP DUP2 SWAP1 POP SWAP3 SWAP2 POP POP JUMP INVALID LOG2 PUSH5 0x6970667358 0x22 SLT KECCAK256 AND 0x21 0xE9 0xE0 0x4D DUP12 DELEGATECALL CHAINID SLT STATICCALL REVERT DUP9 0xEF SLT PUSH20 0xB990481D7DA920DAB94704A9DE72BCABC964736F PUSH13 0x634300081A0033000000000000 "
		},
		"gasEstimates": {
			"creation": {
				"codeDepositCost": "1016400",
				"executionCost": "1052",
				"totalCost": "1017452"
			},
			"external": {
				"checkAllowance(address,address)": "infinite",
				"feesBps()": "2512",
				"initialize(address,uint256)": "infinite",
				"owner()": "2611",
				"pause()": "infinite",
				"paused()": "2592",
				"renounceOwnership()": "infinite",
				"setFees(uint256)": "infinite",
				"tip(address,address,uint256,uint256,uint256,uint256)": "infinite",
				"transferOwnership(address)": "infinite",
				"unpause()": "infinite"
			}
		},
		"methodIdentifiers": {
			"checkAllowance(address,address)": "8b099b23",
			"feesBps()": "ce2c2df1",
			"initialize(address,uint256)": "cd6dc687",
			"owner()": "8da5cb5b",
			"pause()": "8456cb59",
			"paused()": "5c975abb",
			"renounceOwnership()": "715018a6",
			"setFees(uint256)": "3d18678e",
			"tip(address,address,uint256,uint256,uint256,uint256)": "0de5e0e7",
			"transferOwnership(address)": "f2fde38b",
			"unpause()": "3f4ba83a"
		}
	},
	"abi": [
		{
			"inputs": [
				{
					"internalType": "address",
					"name": "target",
					"type": "address"
				}
			],
			"name": "AddressEmptyCode",
			"type": "error"
		},
		{
			"inputs": [
				{
					"internalType": "address",
					"name": "account",
					"type": "address"
				}
			],
			"name": "AddressInsufficientBalance",
			"type": "error"
		},
		{
			"inputs": [],
			"name": "EnforcedPause",
			"type": "error"
		},
		{
			"inputs": [],
			"name": "ExpectedPause",
			"type": "error"
		},
		{
			"inputs": [],
			"name": "FailedInnerCall",
			"type": "error"
		},
		{
			"inputs": [],
			"name": "FeesBpsTooHigh",
			"type": "error"
		},
		{
			"inputs": [
				{
					"internalType": "string",
					"name": "message",
					"type": "string"
				}
			],
			"name": "InsufficientAllowance",
			"type": "error"
		},
		{
			"inputs": [],
			"name": "InvalidInitialization",
			"type": "error"
		},
		{
			"inputs": [],
			"name": "NotInitializing",
			"type": "error"
		},
		{
			"inputs": [
				{
					"internalType": "address",
					"name": "owner",
					"type": "address"
				}
			],
			"name": "OwnableInvalidOwner",
			"type": "error"
		},
		{
			"inputs": [
				{
					"internalType": "address",
					"name": "account",
					"type": "address"
				}
			],
			"name": "OwnableUnauthorizedAccount",
			"type": "error"
		},
		{
			"inputs": [],
			"name": "ReentrancyGuardReentrantCall",
			"type": "error"
		},
		{
			"inputs": [
				{
					"internalType": "address",
					"name": "token",
					"type": "address"
				}
			],
			"name": "SafeERC20FailedOperation",
			"type": "error"
		},
		{
			"inputs": [
				{
					"internalType": "string",
					"name": "message",
					"type": "string"
				}
			],
			"name": "TipFailed",
			"type": "error"
		},
		{
			"anonymous": false,
			"inputs": [
				{
					"indexed": false,
					"internalType": "uint64",
					"name": "version",
					"type": "uint64"
				}
			],
			"name": "Initialized",
			"type": "event"
		},
		{
			"anonymous": false,
			"inputs": [
				{
					"indexed": true,
					"internalType": "address",
					"name": "previousOwner",
					"type": "address"
				},
				{
					"indexed": true,
					"internalType": "address",
					"name": "newOwner",
					"type": "address"
				}
			],
			"name": "OwnershipTransferred",
			"type": "event"
		},
		{
			"anonymous": false,
			"inputs": [
				{
					"indexed": false,
					"internalType": "address",
					"name": "account",
					"type": "address"
				}
			],
			"name": "Paused",
			"type": "event"
		},
		{
			"anonymous": false,
			"inputs": [
				{
					"indexed": true,
					"internalType": "uint256",
					"name": "fromProfileId",
					"type": "uint256"
				},
				{
					"indexed": true,
					"internalType": "uint256",
					"name": "toProfileId",
					"type": "uint256"
				},
				{
					"indexed": true,
					"internalType": "uint256",
					"name": "publicationId",
					"type": "uint256"
				},
				{
					"indexed": false,
					"internalType": "address",
					"name": "token",
					"type": "address"
				},
				{
					"indexed": false,
					"internalType": "address",
					"name": "from",
					"type": "address"
				},
				{
					"indexed": false,
					"internalType": "address",
					"name": "to",
					"type": "address"
				},
				{
					"indexed": false,
					"internalType": "uint256",
					"name": "amount",
					"type": "uint256"
				}
			],
			"name": "TipSent",
			"type": "event"
		},
		{
			"anonymous": false,
			"inputs": [
				{
					"indexed": false,
					"internalType": "address",
					"name": "account",
					"type": "address"
				}
			],
			"name": "Unpaused",
			"type": "event"
		},
		{
			"inputs": [
				{
					"internalType": "address",
					"name": "tokenAddress",
					"type": "address"
				},
				{
					"internalType": "address",
					"name": "owner",
					"type": "address"
				}
			],
			"name": "checkAllowance",
			"outputs": [
				{
					"internalType": "uint256",
					"name": "",
					"type": "uint256"
				}
			],
			"stateMutability": "view",
			"type": "function"
		},
		{
			"inputs": [],
			"name": "feesBps",
			"outputs": [
				{
					"internalType": "uint256",
					"name": "",
					"type": "uint256"
				}
			],
			"stateMutability": "view",
			"type": "function"
		},
		{
			"inputs": [
				{
					"internalType": "address",
					"name": "owner",
					"type": "address"
				},
				{
					"internalType": "uint256",
					"name": "_feesBps",
					"type": "uint256"
				}
			],
			"name": "initialize",
			"outputs": [],
			"stateMutability": "nonpayable",
			"type": "function"
		},
		{
			"inputs": [],
			"name": "owner",
			"outputs": [
				{
					"internalType": "address",
					"name": "",
					"type": "address"
				}
			],
			"stateMutability": "view",
			"type": "function"
		},
		{
			"inputs": [],
			"name": "pause",
			"outputs": [],
			"stateMutability": "nonpayable",
			"type": "function"
		},
		{
			"inputs": [],
			"name": "paused",
			"outputs": [
				{
					"internalType": "bool",
					"name": "",
					"type": "bool"
				}
			],
			"stateMutability": "view",
			"type": "function"
		},
		{
			"inputs": [],
			"name": "renounceOwnership",
			"outputs": [],
			"stateMutability": "nonpayable",
			"type": "function"
		},
		{
			"inputs": [
				{
					"internalType": "uint256",
					"name": "_feesBps",
					"type": "uint256"
				}
			],
			"name": "setFees",
			"outputs": [],
			"stateMutability": "nonpayable",
			"type": "function"
		},
		{
			"inputs": [
				{
					"internalType": "address",
					"name": "tokenAddress",
					"type": "address"
				},
				{
					"internalType": "address",
					"name": "recipient",
					"type": "address"
				},
				{
					"internalType": "uint256",
					"name": "amount",
					"type": "uint256"
				},
				{
					"internalType": "uint256",
					"name": "fromProfileId",
					"type": "uint256"
				},
				{
					"internalType": "uint256",
					"name": "toProfileId",
					"type": "uint256"
				},
				{
					"internalType": "uint256",
					"name": "publicationId",
					"type": "uint256"
				}
			],
			"name": "tip",
			"outputs": [],
			"stateMutability": "nonpayable",
			"type": "function"
		},
		{
			"inputs": [
				{
					"internalType": "address",
					"name": "newOwner",
					"type": "address"
				}
			],
			"name": "transferOwnership",
			"outputs": [],
			"stateMutability": "nonpayable",
			"type": "function"
		},
		{
			"inputs": [],
			"name": "unpause",
			"outputs": [],
			"stateMutability": "nonpayable",
			"type": "function"
		}
	]
}